:020000040800F2
:1000000000500020BD770008592500085B25000836
:100010005D2500085F25000861250008000000003C
:100020000000000000000000000000006325000840
:100030006525000800000000672500086925000804
:10004000057800080578000805780008057800089C
:1000500005780008057800086D2500088925000846
:1000600005780008A5250008C525000805780008C2
:10007000057800080578000805780008057800086C
:10008000057800080578000805780008057800085C
:10009000057800080578000805780008057800084C
:1000A000057800080578000805780008057800083C
:1000B000E5250008012600080578000805780008F5
:1000C000057800080578000805780008057800081C
:1000D000057800082D260008057800080578000836
:1000E0004D2600080578000805780008000000008B
:1000F0000000000000000000000000000000000000
:0C01000000000000000000005FF808F1A3
:1001100010B5054C237833B9044B13B10448AFF341
:1001200000800123237010BD780000200000000033
:10013000C498000808B5034B1BB103490348AFF34B
:10014000008008BD000000007C000020C49800086A
:10015000D0400B1CD1409C46203AD3401843524219
:10016000634693401843704781F0004102E000BFAE
:1001700083F0004330B54FEA41044FEA430594EA67
:10018000050F08BF90EA020F1FBF54EA000C55EAA2
:10019000020C7FEA645C7FEA655C00F0E2804FEA73
:1001A0005454D4EB5555B8BF6D420CDD2C4480EA55
:1001B000020281EA030382EA000083EA010180EA85
:1001C000020281EA0303362D88BF30BD11F0004FD3
:1001D0004FEA01314FF4801C4CEA113102D0404209
:1001E00061EB410113F0004F4FEA03334CEA133344
:1001F00002D0524263EB430394EA050F00F0A7805C
:10020000A4F10104D5F1200E0DDB02FA0EFC22FA56
:1002100005F2801841F1000103FA0EF2801843FA4A
:1002200005F359410EE0A5F120050EF1200E012A3B
:1002300003FA0EFC28BF4CF0020C43FA05F3C01879
:1002400051EBE37101F0004507D54FF0000EDCF1F2
:10025000000C7EEB00006EEB0101B1F5801F1BD39B
:10026000B1F5001F0CD349085FEA30004FEA3C0C9F
:1002700004F101044FEA445212F5800F80F09A8095
:10028000BCF1004F08BF5FEA500C50F1000041EB99
:10029000045141EA050130BD5FEA4C0C404141EB9D
:1002A000010111F4801FA4F10104E9D191F0000FC4
:1002B00004BF01460020B1FA81F308BF2033A3F147
:1002C0000B03B3F120020CDA0C3208DD02F1140C3E
:1002D000C2F10C0201FA0CF021FA02F10CE002F179
:1002E0001402D8BFC2F1200C01FA02F120FA0CFC72
:1002F000DCBF41EA0C019040E41AA2BF01EB0451BB
:10030000294330BD6FEA04041F3C1CDA0C340EDCB8
:1003100004F11404C4F1200220FA04F001FA02F3FB
:1003200040EA030021FA04F345EA030130BDC4F1B9
:100330000C04C4F1200220FA02F001FA04F340EAAE
:100340000300294630BD21FA04F0294630BD94F05F
:10035000000F83F4801306BF81F480110134013D46
:100360004EE77FEA645C18BF7FEA655C29D094EAB7
:10037000050F08BF90EA020F05D054EA000C04BF35
:100380001946104630BD91EA030F1EBF0021002020
:1003900030BD5FEA545C05D14000494128BF41F0BF
:1003A000004130BD14F580043CBF01F5801130BD23
:1003B00001F0004545F0FE4141F470014FF00000AE
:1003C00030BD7FEA645C1ABF194610467FEA655C5F
:1003D0001CBF0B46024650EA013406BF52EA033501
:1003E00091EA030F41F4002130BD00BF90F0000FEF
:1003F00004BF0021704730B54FF4806404F132042B
:100400004FF000054FF0000150E700BF90F0000FE3
:1004100004BF0021704730B54FF4806404F132040A
:1004200010F0004548BF40424FF000013EE700BFDA
:1004300042004FEAE2014FEA31014FEA02701FBF6A
:1004400012F07F4393F07F4F81F06051704792F03C
:10045000000F14BF93F07F4F704730B54FF46074B6
:1004600001F0004521F0004120E700BF50EA010201
:1004700008BF704730B54FF000050AE050EA0102AE
:1004800008BF704730B511F0004502D5404261EB1E
:1004900041014FF4806404F132045FEA915C3FF45F
:1004A000DCAE4FF003025FEADC0C18BF03325FEAF8
:1004B000DC0C18BF033202EBDC02C2F1200300FAAD
:1004C00003FC20FA02F001FA03FE40EA0E0021FAD2
:1004D00002F11444C1E600BF70B54FF0FF0C4CF4BC
:1004E000E06C1CEA11541DBF1CEA135594EA0C0F72
:1004F00095EA0C0F00F0DEF82C4481EA030621EAAD
:100500004C5123EA4C5350EA013518BF52EA0335E7
:1005100041F4801143F4801338D0A0FB02CE4FF099
:100520000005E1FB02E506F00042E0FB03E54FF0C9
:100530000006E1FB03569CF0000F18BF4EF0010EC1
:10054000A4F1FF04B6F5007F64F5407404D25FEABD
:100550004E0E6D4146EB060642EAC62141EA555170
:100560004FEAC52040EA5E504FEACE2EB4F1FD0CB2
:1005700088BFBCF5E06F1ED8BEF1004F08BF5FEA30
:10058000500E50F1000041EB045170BD06F00046E2
:1005900046EA010140EA020081EA0301B4EB5C048F
:1005A000C2BFD4EB0C0541EA045170BD41F4801187
:1005B0004FF0000E013C00F3AB8014F1360FDEBFAC
:1005C000002001F0004170BDC4F10004203C35DA88
:1005D0000C341BDC04F11404C4F1200500FA05F30B
:1005E00020FA04F001FA05F240EA020001F00042AC
:1005F00021F0004110EBD37021FA04F642EB060122
:100600005EEA430E08BF20EAD37070BDC4F10C044B
:10061000C4F1200500FA04F320FA05F001FA04F20F
:1006200040EA020001F0004110EBD37041F10001FB
:100630005EEA430E08BF20EAD37070BDC4F1200506
:1006400000FA05F24EEA020E20FA04F301FA05F26E
:1006500043EA020321FA04F001F0004121FA04F216
:1006600020EA020000EBD3705EEA430E08BF20EAE6
:10067000D37070BD94F0000F0FD101F00046400020
:1006800041EB010111F4801F08BF013CF7D041EAA2
:10069000060195F0000F18BF704703F000465200A6
:1006A00043EB030313F4801F08BF013DF7D043EA77
:1006B0000603704794EA0C0F0CEA135518BF95EA2D
:1006C0000C0F0CD050EA410618BF52EA4306D1D1B4
:1006D00081EA030101F000414FF0000070BD50EAD3
:1006E000410606BF1046194652EA430619D094EA5D
:1006F0000C0F02D150EA013613D195EA0C0F05D147
:1007000052EA03361CBF104619460AD181EA03019A
:1007100001F0004141F0FE4141F470014FF0000052
:1007200070BD41F0FE4141F4780170BD70B54FF0ED
:10073000FF0C4CF4E06C1CEA11541DBF1CEA13556D
:1007400094EA0C0F95EA0C0F00F0A7F8A4EB05044F
:1007500081EA030E52EA03354FEA013100F0888046
:100760004FEA03334FF0805545EA131343EA12630F
:100770004FEA022245EA111545EA10654FEA0026C4
:100780000EF000419D4208BF964244F1FD0404F57D
:10079000407402D25B084FEA3202B61A65EB0305D9
:1007A0005B084FEA32024FF480104FF4002CB6EB96
:1007B000020E75EB030E22BFB61A754640EA0C0016
:1007C0005B084FEA3202B6EB020E75EB030E22BF56
:1007D000B61A754640EA5C005B084FEA3202B6EB97
:1007E000020E75EB030E22BFB61A754640EA9C0056
:1007F0005B084FEA3202B6EB020E75EB030E22BF26
:10080000B61A754640EADC0055EA060E18D04FEAE3
:10081000051545EA16754FEA06164FEAC30343EA83
:1008200052734FEAC2025FEA1C1CC0D111F4801F50
:100830000BD141EA00014FF000004FF0004CB6E749
:1008400011F4801F04BF01430020B4F1FD0C88BFE8
:10085000BCF5E06F3FF6AFAEB5EB030C04BFB6EBF3
:10086000020C5FEA500C50F1000041EB045170BDE6
:100870000EF0004E4EEA113114EB5C04C2BFD4EB13
:100880000C0541EA045170BD41F480114FF0000E97
:10089000013C90E645EA060E8DE60CEA135594EA13
:1008A0000C0F08BF95EA0C0F3FF43BAF94EA0C0F16
:1008B0000AD150EA01347FF434AF95EA0C0F7FF48B
:1008C00025AF104619462CE795EA0C0F06D152EADF
:1008D00003353FF4FDAE1046194622E750EA4106C3
:1008E00018BF52EA43067FF4C5AE50EA41047FF4D4
:1008F0000DAF52EA43057FF4EBAE12E74FF0FF3C39
:1009000006E000BF4FF0010C02E000BF4FF0010C09
:100910004DF804CD4FEA410C7FEA6C5C4FEA430C82
:1009200018BF7FEA6C5C1BD001B050EA410C0CBFD1
:1009300052EA430C91EA030F02BF90EA020F002033
:10094000704710F1000F91EA030F58BF994208BF9A
:1009500090422CBFD8176FEAE37040F00100704757
:100960004FEA410C7FEA6C5C02D150EA013C07D1AE
:100970004FEA430C7FEA6C5CD6D152EA033CD3D0F9
:100980005DF8040B704700BF8446104662468C46F3
:100990001946634600E000BF01B5FFF7B7FF002826
:1009A00048BF10F1000F01BD4DF808EDFFF7F4FF4F
:1009B0000CBF012000205DF808FB00BF4DF808EDDA
:1009C000FFF7EAFF34BF012000205DF808FB00BFFD
:1009D0004DF808EDFFF7E0FF94BF012000205DF81F
:1009E00008FB00BF4DF808EDFFF7CEFF94BF0120D4
:1009F00000205DF808FB00BF4DF808EDFFF7C4FFCD
:100A000034BF012000205DF808FB00BF4FEA410C15
:100A10007FEA6C5C02D150EA013C0AD14FEA430CF8
:100A20007FEA6C5C02D152EA033C02D14FF0000035
:100A300070474FF0010070474FEA410212F5001273
:100A400015D211D56FF47873B3EB625212D94FEA15
:100A5000C12343F0004343EA505311F0004F23FAFF
:100A600002F018BF404270474FF00000704750EA54
:100A7000013005D111F0004008BF6FF00040704711
:100A80004FF00000704700BF4A0011D212F500126B
:100A900011D20DD56FF47873B3EB62520ED44FEAD6
:100AA000C12343F0004343EA505323FA02F0704756
:100AB0004FF00000704750EA013002D14FF0FF3094
:100AC00070474FF0000070474FEA4102B2F1E04337
:100AD00024BFB3F5001CDCF1FE5C0DD901F0004C25
:100AE0004FEAC0024CEA5070B2F1004F40EB830075
:100AF00008BF20F00100704711F0804F21D113F1A1
:100B00003872BCBF01F00040704741F480114FEAD9
:100B10005252C2F11802C2F1200C10FA0CF320FA62
:100B200002F018BF40F001004FEAC1234FEAD3237F
:100B300003FA0CFC40EA0C0023FA02F34FEA4303E9
:100B4000CCE77FEA625307D150EA01331EBF4FF072
:100B5000FE4040F44000704701F0004040F0FE408D
:100B600040F40000704700BF80F0004002E000BF8A
:100B700081F0004142001FBF5FEA410392EA030F88
:100B80007FEA226C7FEA236C6AD04FEA1262D2EBD2
:100B90001363C1BFD218414048404140B8BF5B42D7
:100BA000192B88BF704710F0004F40F4000020F070
:100BB0007F4018BF404211F0004F41F4000121F086
:100BC0007F4118BF494292EA030F3FD0A2F10102D0
:100BD00041FA03FC10EB0C00C3F1200301FA03F10E
:100BE00000F0004302D5494260EB4000B0F5000F31
:100BF00013D3B0F1807F06D340084FEA310102F1F0
:100C00000102FE2A51D2B1F1004F40EBC25008BFA1
:100C100020F0010040EA03007047490040EB00006B
:100C200010F4000FA2F10102EDD1B0FA80FCACF19A
:100C3000080CB2EB0C0200FA0CF0AABF00EBC25099
:100C400052421843BCBFD0401843704792F0000F87
:100C500081F4000106BF80F400000132013BB5E7DA
:100C60004FEA41037FEA226C18BF7FEA236C21D050
:100C700092EA030F04D092F0000F08BF08467047B5
:100C800090EA010F1CBF0020704712F07F4F04D183
:100C9000400028BF40F00040704712F100723CBF96
:100CA00000F50000704700F0004343F0FE4040F4C0
:100CB000000070477FEA226216BF08467FEA23637E
:100CC0000146420206BF5FEA412390EA010F40F469
:100CD000800070474FF0000304E000BF10F00043B5
:100CE00048BF40425FEA000C08BF704743F096439C
:100CF00001464FF000001CE050EA010208BF7047B7
:100D00004FF000030AE000BF50EA010208BF70473D
:100D100011F0004302D5404261EB41015FEA010C52
:100D200002BF84460146002043F0B64308BFA3F14A
:100D30008053A3F50003BCFA8CF2083AA3EBC2532C
:100D400010DB01FA02FC634400FA02FCC2F120024B
:100D5000BCF1004F20FA02F243EB020008BF20F082
:100D60000100704702F1200201FA02FCC2F12002E8
:100D700050EA4C0021FA02F243EB020008BF20EADD
:100D8000DC7070474FF0FF0C1CEAD0521EBF1CEA0B
:100D9000D15392EA0C0F93EA0C0F6FD01A4480EAF9
:100DA000010C400218BF5FEA41211ED04FF00063E2
:100DB00043EA501043EA5111A0FB01310CF000400E
:100DC000B1F5000F3EBF490041EAD3715B0040EA34
:100DD000010062F17F02FD2A1DD8B3F1004F40EB04
:100DE000C25008BF20F00100704790F0000F0CF0D7
:100DF000004C08BF49024CEA502040EA51207F3A9B
:100E0000C2BFD2F1FF0340EAC250704740F4000075
:100E10004FF00003013A5DDC12F1190FDCBF00F066
:100E200000407047C2F10002410021FA02F1C2F114
:100E3000200200FA02FC5FEA310040F1000053EAB0
:100E40004C0308BF20EADC70704792F0000F00F0FE
:100E5000004C02BF400010F4000F013AF9D040EA04
:100E60000C0093F0000F01F0004C02BF490011F498
:100E7000000F013BF9D041EA0C018FE70CEAD15396
:100E800092EA0C0F18BF93EA0C0F0AD030F0004C16
:100E900018BF31F0004CD8D180EA010000F00040CA
:100EA000704790F0000F17BF90F0004F084691F088
:100EB000000F91F0004F14D092EA0C0F01D14202C2
:100EC0000FD193EA0C0F03D14B0218BF084608D18B
:100ED00080EA010000F0004040F0FE4040F40000D5
:100EE000704740F0FE4040F4400070474FF0FF0C68
:100EF0001CEAD0521EBF1CEAD15392EA0C0F93EAAF
:100F00000C0F69D0A2EB030280EA010C49024FEA00
:100F1000402037D04FF0805343EA111143EA1013B9
:100F20000CF000408B4238BF5B0042F17D024FF471
:100F3000000C8B4224BF5B1A40EA0C00B3EB510F4C
:100F400024BFA3EB510340EA5C00B3EB910F24BF35
:100F5000A3EB910340EA9C00B3EBD10F24BFA3EBBA
:100F6000D10340EADC001B0118BF5FEA1C1CE0D182
:100F7000FD2A3FF650AF8B4240EBC25008BF20F035
:100F8000010070470CF0004C4CEA50207F32C2BF89
:100F9000D2F1FF0340EAC250704740F400004FF026
:100FA0000003013A37E792F0000F00F0004C02BF57
:100FB000400010F4000F013AF9D040EA0C0093F021
:100FC000000F01F0004C02BF490011F4000F013B7B
:100FD000F9D041EA0C0195E70CEAD15392EA0C0FE3
:100FE00008D142027FF47DAF93EA0C0F7FF470AF1B
:100FF000084676E793EA0C0F04D14B023FF44CAF5E
:1010000008466EE730F0004C18BF31F0004CCAD1F2
:1010100030F000427FF45CAF31F000437FF43CAF2E
:101020005FE700BF4FF0FF3C06E000BF4FF0010C50
:1010300002E000BF4FF0010C4DF804CD4FEA400232
:101040004FEA41037FEA226C18BF7FEA236C11D07C
:1010500001B052EA530C18BF90EA010F58BFB2EB2F
:10106000030088BFC81738BF6FEAE17018BF40F0AF
:10107000010070477FEA226C02D15FEA402C05D163
:101080007FEA236CE4D15FEA412CE1D05DF8040BE8
:10109000704700BF844608466146FFE70FB5FFF77B
:1010A000C9FF002848BF10F1000F0FBD4DF808ED33
:1010B000FFF7F4FF0CBF012000205DF808FB00BF24
:1010C0004DF808EDFFF7EAFF34BF012000205DF87E
:1010D00008FB00BF4DF808EDFFF7E0FF94BF0120CB
:1010E00000205DF808FB00BF4DF808EDFFF7D2FFC8
:1010F00094BF012000205DF808FB00BF4DF808ED0B
:10110000FFF7C8FF34BF012000205DF808FB00BFD7
:101110004FEA40024FEA41037FEA226C02D15FEAC4
:10112000402C08D17FEA236C02D15FEA412C02D126
:101130004FF0000070474FF0010070474FEA400247
:10114000B2F1FE4F0FD34FF09E03B3EB12620DD9F5
:101150004FEA002343F0004310F0004F23FA02F05F
:1011600018BF404270474FF00000704712F1610F06
:1011700001D1420205D110F0004008BF6FF00040DD
:1011800070474FF00000704742000ED2B2F1FE4FA0
:101190000BD34FF09E03B3EB126209D44FEA002346
:1011A00043F0004323FA02F070474FF0000070470D
:1011B00012F1610F01D1420202D14FF0FF307047AE
:1011C0004FF00000704700BF38B50E4B0546187849
:1011D0004FF47A73B3FBF0F30B4A1068B0FBF3F0F3
:1011E00000F09EF8044658B90F2D09D8024629464A
:1011F0004FF0FF3000F054F8044B20461D6038BD1E
:10120000012038BD0000002008000020040000205C
:10121000074A08B51368032043F01003136000F079
:101220002DF80020FFF7D0FF01F074F9002008BD71
:1012300000200240034A044B11681B780B441360E2
:10124000704700BFB02D002000000020014B18683F
:10125000704700BFB02D002038B50446FFF7F6FFF9
:101260000546631C1EBF044B1B78E418FFF7EEFF16
:10127000401B8442FAD838BD00000020074A000213
:10128000D36800F4E06023F4E0631B041B0C43F01C
:10129000BF6343F400330343D360704700ED00E0C5
:1012A000174B30B5DC68C4F30224C4F10703251DD5
:1012B000042B28BF0423062D4FF0010598BF0024FE
:1012C00005FA03F303F1FF3388BF033C1940A14043
:1012D00005FA04F4013C2240002842EA01024FEAE8
:1012E0000212AFBF00F16040064B00F00F00D2B217
:1012F000A5BFD2B200F561401A5480F8002330BD7A
:1013000000ED00E014ED00E00123420900F01F00B1
:1013100003FA00F0014B43F82200704700E100E0BF
:101320000138B0F1807F0AD2F021064B064A58609E
:1013300082F823100020072298601A60704701206D
:10134000704700BF10E000E000ED00E0012243091B
:1013500000F01F0002FA00F0024A603342F8230056
:10136000704700BF00E100E0114AD36813F010039A
:1013700005D01049CB6943F00203CB611023D2683A
:10138000500706D50B4943F00403CA6942F0010235
:10139000CA61074AD169C90708D50648C16941F041
:1013A0000401C161D16921F00101D161D3607047AD
:1013B00000200240B82D0020064B186910F0800074
:1013C00007D0054A5A6002F188325A601869C0F3A2
:1013D000C01070470020024023016745034A0020E7
:1013E000136943F080031361704700BF002002407F
:1013F000F8B50646FFF72AFF114C07462546E36875
:10140000D80712D4E368990644BF2023E360EB6851
:10141000DA0606D4EB69DB0703D4E86810F00400B1
:1014200002D0FFF7A1FF0120F8BD731CE7D00EB971
:101430000320F8BDFFF70AFFC01B8642DFD2F7E7A3
:10144000002002402DE9F84F1F4C9946237E0546A7
:10145000012B0F46904633D001234CF250302376B7
:10146000FFF7C6FF40BB012D03D0022D0CBF0225A4
:1014700004250026B246DFF854B032014046494602
:10148000FEF766FEC4F81CA0DBF8103080B243F013
:101490000103CBF8103027F816004CF25030FFF75C
:1014A000A7FFDBF8103023F00103CBF8103018B998
:1014B0000136F3B29D42E0D800232376BDE8F88FD1
:1014C0000220BDE8F88F00BFB82D002000200240A8
:1014D0000022064BDA61064B1A6942F002021A61D9
:1014E00058611A6942F040021A617047B82D002015
:1014F000002002402DE9F74F00221646654BDFF829
:10150000A4E1DFF8A4C14FF001080C6808FA06F85E
:1015100008EA0404A0457FD14D68122D00F0AF8089
:1015200000F28880022D00F0A7807CD8002D00F00A
:101530008E80012D00F09E804FF00F09FF2C93BF8D
:10154000824606F18045083DD0F800B092BFB50054
:10155000D0F804B0AD0009FA05F82BEA080802FA41
:1015600005F588BF00F1040A48EA0505CAF80050ED
:10157000D1F804A01AF0805F4ED0474D464FAD69B8
:1015800026F0030845F00105BD61BD6908F18048FA
:1015900005F00105019508F5803806F0030B019D63
:1015A0004FEA8B0BD8F8085009FA0BF925EA09091C
:1015B0003A4DA84268D005F58065A84266D005F589
:1015C0008065A84264D005F58065A8420CBF03255C
:1015D000042505FA0BF545EA0905C8F808501D6809
:1015E0001AF4803F14BF2543A5431D605D681AF4BB
:1015F000003F14BF2543A5435D609D681AF4801F1A
:1016000014BF2543A5439D60DD681AF4001F14BF75
:101610002C4325EA0404DC600136102E7FF473AFFE
:1016200003B0BDE8F08F032D22D0112D84D1CA68FC
:10163000043281E71A4FBD4209D012D8DFF86C900E
:101640004D4504D009F580394D457FF475AF8A6862
:10165000C2B1012A0CBFC0F81080C0F81480082263
:101660006AE77545F3D06545F1D0DFF84490EBE7C4
:10167000002261E7CA685FE7CA6808325CE7CA68A7
:101680000C3259E7042257E70025A2E70125A0E71D
:1016900002259EE7000401400010024000080140BE
:1016A0000000211000003110000032100000111065
:1016B000000022100AB1016170470904FBE770477E
:1016C00008B5044B5969014202D05861FFF7F7FF92
:1016D00008BD00BF0004014038B5044608B9012028
:1016E00038BD90F83D3003F0FF021BB980F83C2074
:1016F00000F000FE2423226884F83D30136823F0B4
:101700000103136000F0E2FA63682F4A934230D875
:101710002E4A9042E3D92E4A2168B0FBF2F24A6089
:1017200001320A62284A0138934232D85B00B0FB8A
:10173000F3F0431CC3F30B03042B38BF0423CB612A
:10174000226AE369002013430B60E26823691343B4
:101750008B60A26963691343CB600B6843F001039C
:101760000B602023206484F83D30206384F83E0021
:1017700038BD184A9042B2D9154D4FF49672B0FB5D
:10178000F5F521686A434D604FF47A75B2FBF5F2C6
:10179000C6E7A26852B903EB4303B0FBF3F0431C66
:1017A000C3F30B036BB143F40043C8E7192253435F
:1017B000B0FBF3F0431CC3F30B0313B143F44043FA
:1017C000BDE70123BBE700BFA08601007F841E00A8
:1017D00040420F00FF083D0003682DE9F341DB079D
:1017E000054610D42B689F075ED42B68190700F1BB
:1017F00095802B685A0700F1BF80EA69002A40F003
:101800002D81002014E0904C636803F00C03042B3E
:1018100007D0636803F00C03082B0CD16368DE0368
:1018200009D523689C03DDD56B68002BDAD1012034
:1018300002B0BDE8F0816B68B3F5803F10D123683A
:1018400043F480332360FFF701FD064623689803C5
:10185000C8D4FFF7FBFC801B6428F7D90320E7E717
:101860009BB9236823F480332360236823F4802307
:101870002360FFF7EBFC064623689903B2D5FFF718
:10188000E5FC801B6428F7D9E8E7B3F5A02F2368AF
:1018900003D143F480232360D1E723F48033236012
:1018A000236823F48023CDE7674C636813F00C0FA3
:1018B00007D0636803F00C03082B10D16368DA03C8
:1018C0000DD423689B0702D52B69012BAFD1236868
:1018D0006A6923F0F80343EAC203236085E72A69B3
:1018E0005A4B6AB101221A60FFF7B0FC0646236822
:1018F0009F07ECD4FFF7AAFC801B0228F7D9ADE7BD
:101900001A60FFF7A3FC0646236898077FF56DAFC2
:10191000FFF79CFC801B0228F6D99FE7AA694A4C76
:101920004B4BDAB101221A60FFF790FC0646636A5E
:101930009B070DD54FF4FA52464B1B68B3FBF2F3ED
:10194000019300BF019B5A1E0192002BF9D150E771
:10195000FFF77CFC801B0228E9D97FE71A60FFF7BC
:1019600075FC0646636A9F077FF543AFFFF76EFC81
:10197000801B0228F6D971E7334CE369D80024D4E0
:101980000127E36943F08053E361E36903F0805387
:101990000093009B304E3368D90518D5EB68012BB6
:1019A00026D1236A43F001032362FFF74FFC41F283
:1019B00088368046236A9B073FD5002F3FF41DAF32
:1019C000E36923F08053E36117E70027E2E7336818
:1019D00043F480733360FFF739FC80463368DA05DF
:1019E000DCD4FFF733FCA0EB08006428F6D935E718
:1019F000ABB9236A41F2883823F001032362236ADA
:101A000023F004032362FFF721FC0646236A9807AC
:101A1000D3D5FFF71BFC801B4045F7D91EE7052BEC
:101A2000236A03D143F004032362BAE723F00103DE
:101A30002362236A23F00403B6E7FFF707FCA0EB59
:101A40000800B042B6D909E7001002400000424247
:101A5000800442420800002000700040224C63686D
:101A600003F00C03082B3FF4E2AE00231F4E022AC2
:101A700033602BD1FFF7EAFB0746236899011FD497
:101A80002B6AB3F5803F05D16268A96822F4003261
:101A90000A436260696A62680B4322F4741213435A
:101AA000636001233360FFF7D1FB054623689A0189
:101AB0003FF5A7AEFFF7CAFB401B0228F6D9CDE6DB
:101AC000FFF7C4FBC01B0228D7D9C7E6FFF7BEFB50
:101AD000054623689B017FF594AEFFF7B7FB401BDB
:101AE0000228F6D9BAE600BF001002406000424268
:101AF00030B5194B87B002AC03F1100522461868C7
:101B00005968083303C2AB421446F7D101238DF85C
:101B10000430022311498DF805304B6803F00C02A4
:101B2000082A17D1C3F3834206A80244DB0312F844
:101B3000102C0CD54B680A48C3F34043504306AA07
:101B4000134413F8143CB0FBF3F007B030BD054864
:101B50005043FAE70248F8E7DC980008001002401A
:101B600000127A0000093D00544A2DE9F041136843
:101B7000054603F007038B420E462AD329688C07DB
:101B800034D4CA0747D44D4A136803F007039E4272
:101B9000C0F082802A684A4C12F0040F40F087801F
:101BA000130706D563682A6923F4605343EAC20326
:101BB0006360FFF79DFF6368424AC3F30313D35C7E
:101BC000D840414B18600020FFF7FEFA0020BDE826
:101BD000F081136823F007030B431360136803F0CD
:101BE00007039942CAD00120BDE8F081344B11F0BF
:101BF000040F1EBF5A6842F4E0625A60080742BFF1
:101C00005A6842F460525A605A68A86822F0F0029A
:101C100002435A60B5E76A68294C012A23681CD13F
:101C200013F4003FDFD0636841F2883823F00303E8
:101C300013436360FFF70AFB6B680746012B14D15F
:101C4000636803F00C03042B9DD0FFF7FFFAC01B61
:101C50004045F5D90320BDE8F081022A02D113F0F6
:101C6000007FDFE713F0020FDCE7022B0FD1636880
:101C700003F00C03082B86D0FFF7E8FAC01B4045A1
:101C8000F5D9E7E7FFF7E2FAC01B4045E2D8636801
:101C900013F00C0FF6D176E7136823F007033343F4
:101CA0001360136803F007039E429CD172E76368D8
:101CB000E96823F4E0630B43636071E700200240AE
:101CC00000100240EC98000808000020044B054A70
:101CD0005B68C3F30223D35C034A1068D8407047A3
:101CE00000100240FC980008080000202DE9F04F89
:101CF0000D68C5F30F2595FAA5F24FF00F09B2FA5A
:101D000082F24FF003084FF0040C40F2011E35FA46
:101D100002F302D10120BDE8F08F012393402B4252
:101D200063D0072A83BF4FF00114A2F1080304FA1D
:101D300003F30EFA02F388BF43F080631E0E93FA9A
:101D4000A3FABAFA8AFA93FAA3FBBBFA8BFB84597B
:101D50004FEA8A0A09FA0AFA24EA0A0A4C684FEAA0
:101D60008B0B04FA0BFB4AEA0B048451C4684FEA5C
:101D7000132A9AFAAAFBBBFA8BFB24EA0A0A0C691B
:101D800004FA0BF44AEA0404C4604C6824F0080422
:101D9000012C2AD193FAA3FABAFA8AFA93FAA3F495
:101DA000B4FA84F487594FEA840B4FEA8A0A8C68A4
:101DB00008FA0AFA27EA0A0A04FA0BF44AEA0404BF
:101DC000845193FAA3FBBBFA8BFB93FAA3F3B3FA08
:101DD00083F3CF684FEA8B0B0CFA0BFB9B0024EAD2
:101DE0000B0407FA03F31C43845101328FE7000010
:101DF000034B044A5B68C3F30313D35CD8407047BA
:101E000000100240EC980008034B044A5B68C3F3DF
:101E10000223D35CD840704700100240FC980008B1
:101E2000034B044A5B68C3F3C223D35CD8407047BA
:101E300000100240FC980008094B5A6802F48032F6
:101E400062B15868074AC0F340400130B2FBF0F07D
:101E50005B68C3F383430233584370470248F7E794
:101E60000010024000127A0000093D00044B5B683C
:101E700003F00C03082B01D1FFF7DEBF01487047C8
:101E80000010024000127A0008B50146FFF7EEFF8D
:101E90000860FFF7ADFF4860FFF7B6FF886048684D
:101EA000FFF7BEFFC86008BD1A4A036890420AD017
:101EB000B0F1804F07D0A2F59432904203D002F5E2
:101EC0008062904215D14A6823F070031343114A8F
:101ED00090420AD0B0F1804F07D0A2F594329042E0
:101EE00003D002F58062904203D1CA6823F44073A4
:101EF000134303608B68C3620B888362054B98426F
:101F000004BF0B7C0363436943F001034361012079
:101F1000704700BF002C0140102930B55FD003D8B6
:101F200001292CD0002030BDB1F5807F00F08980E0
:101F3000B1F5805FF6D1036A156823F4805303621C
:101F4000036A4468C16923F4005321F4E64141EA7D
:101F50000521156943EA0533556823F4805343EAA4
:101F60000533504DA84204BF956924F48044D268DB
:101F700008BF44EA85144460C16102642CE0036A2E
:101F8000156823F001030362036A4168846923F042
:101F9000020324F073042C4315692B43556823F086
:101FA00001032B433F4DA84212D1556923F008038A
:101FB00043EA8503956823F0040343EA85039569A2
:101FC00021F480712943D56921F4007141EA45016A
:101FD000D2684160846142630362012030BD036ABC
:101FE000156823F010030362036A4168846923F0D3
:101FF000200324F4E64444EA0524156943EA051362
:10200000556823F0100343EA0513264DA84213D167
:10201000556923F0800343EA8513956823F0400354
:1020200043EA8513956921F4806141EA8501D56908
:1020300021F4006141EAC501D26841608461826394
:10204000CAE7036A156823F480730362036A416870
:10205000C46923F4007324F073042C43156943EA24
:102060000523556823F4807343EA05230D4DA842E8
:1020700013D1556923F4006343EA8523956823F45B
:10208000806343EA8523956921F4805141EA051173
:10209000D56921F4005141EA4511D2684160C4611B
:1020A000C26399E7002C01408A680B7B13434A689E
:1020B00023F4806313430A6823F400631343CA893B
:1020C00023F4805313430A6923F4005313434A69EA
:1020D00023F44043134343640120704730B5C36881
:1020E00085B09B0404460D4602D5002005B030BDE6
:1020F0004B68C968C2680B43296922F4B0520B438C
:1021000022F00C021343C3600369AA6823F440530E
:102110001343036143696A6923F4407313434361C2
:102120006846FFF7B1FE134B9C4219D10399002971
:10213000DBD02A68002AD8D019234B439200B3FB86
:10214000F2F36422B3FBF2F102FB11331B013233D1
:10215000B3FBF2F303EB01139BB2A3600120C5E7CD
:10216000054B9C4201D10299E1E7044B9C42BCD152
:10217000F9E700BF0038014000440040004800403B
:1021800010222DE9F04F89B00DEB0200002105F07F
:1021900032FC434BDFF814919A69DFF8148142F066
:1021A00010029A619A693F4F02F010020092009A61
:1021B0009A69484642F020029A619A694FF4604158
:1021C00002F020020192019A9A69012542F004026C
:1021D0009A619A69032602F004020292029A9A69AD
:1021E0004FF0020A42F008029A619B69002203F054
:1021F00008030393039BFFF75DFA4046002241F674
:10220000FF61FFF757FA002238462021FFF752FA04
:102210004FF4C04300244FF4004B04A948460493F4
:102220000595CDF818A00796FFF764F904A948466C
:10223000CDF810B0059506940796FFF75BF941F6C7
:10224000FF6304A940460493059506940796FFF79B
:1022500051F941F61B430493134B04A938460593E7
:102260000695FFF747F904A94046CDF810B005944C
:10227000CDF818A0FFF73EF9202304A938460493AF
:10228000059506940796FFF735F922462146282042
:10229000FFF706F82820FFF737F809B0BDE8F08F00
:1022A00000100240000C014000002110001001400D
:1022B0000008014008B50C480C4BDFF834E04FF43F
:1022C000804280E80840002302618360C36043616C
:1022D0008361C3610362FFF7FFF918B1BDE80840ED
:1022E00000F016B908BD00BFD82D002000540040F2
:1022F000A086010010B5044686B01022002102A875
:1023000005F079FB2268154B9A4224D1144C02A99E
:10231000A369144843F00803A361A36903F0080309
:102320000093009B4FF44073029312230393032303
:102330000593FFF7DFF80C4A536843F0E06343F07E
:1023400002035360E36943F40013E361E36903F4B8
:1023500000130193019B06B010BD00BF0054004064
:1023600000100240000C01400000014010B590B088
:102370002822002106A805F03EFB0021142201A816
:1023800005F039FB4FF480330122022407930E93AA
:102390004FF4201306A806920A920F930D94FFF7AC
:1023A0001BFA0F234FF4806201930023214601A8FA
:1023B0000294039304920593FFF7D6FB10B010BD6F
:1023C0002DE9F041FEF724FF0024FFF7CFFFFFF7D0
:1023D000D7FE00F095F900F08DFA00F00BFA00F04E
:1023E00049FAFFF767FF20223E4B2146DB683E4B50
:1023F000062083F825435A602246FEF751FF062047
:10240000FEF782FF224621460720FEF749FF0720FC
:10241000FEF77AFF224621460920FEF741FF0920F8
:10242000FEF772FF224621460A20FEF739FF0A20F6
:10243000FEF76AFF05F054FA05F07EFA00F046FB5D
:1024400003F072FD04F058F804F058FB04F048FF64
:10245000264A274B92F848201C605C609C60254B04
:1024600012F0100F1C701C4618BF01234FF000051E
:10247000204F214E18BF237014220021384694F8B3
:10248000008005F0B8FA642323726372A3721B4BB9
:1024900084F800801D701A4B35601D70194B7560F3
:1024A0001D70194BB5601D70184B1D7003F0C8FDF1
:1024B00000F06EFB04F04CF800F096FA01F084FB9B
:1024C00002F076FD05F0B8F902F0CCF904F0D0FA8C
:1024D00002F052FC00F072FB03F080F903F028F8E0
:1024E000CAE700BF00ED00E000E100E07834002022
:1024F000542E0020302E0020482E0020462E002092
:10250000452E0020602E00202C2E0020442E00207E
:10251000704700000E4B82B09A6942F001029A6146
:102520009A6902F001020092009ADA6942F0805240
:10253000DA61DB69074A03F080530193019B53681A
:1025400023F0E06343F00073536002B0704700BFB4
:1025500000100240000001407047FEE7FEE7FEE782
:10256000FEE7704770477047FEF764BE08B501206C
:10257000FFF7A6F8012004F0CDFE4022014BC3F87E
:10258000802108BD00E100E008B50220FFF798F8BF
:10259000022004F0BFFE8022014BC3F8802108BD59
:1025A00000E100E008B50820FFF78AF8082004F0F1
:1025B000B1FE4FF40072024BC3F8802108BD00BF8A
:1025C00000E100E008B51020FFF77AF8102004F0D1
:1025D000A1FE4FF48062024BC3F8802108BD00BF0A
:1025E00000E100E04FF080431A69D20706D56FF092
:1025F00001021A6100225A6204F0FCB87047000020
:10260000084B1A69D2070BD56FF001021A6100223C
:102610005A624FF00052044BC3F8802004F0DCB93A
:10262000704700BF0004004000E100E010B5064C18
:10263000E3689B0606D56068C0B203F091FC6FF0BA
:102640002003236010BD00BF0038014008B54FF4DF
:102650008060FFF735F84FF40060FFF731F84FF472
:102660008050FFF72DF84FF48072034BC3F884219C
:10267000BDE8084001F0E6BA00E100E008B50A4B09
:102680000246196809B9094919606946186802447F
:102690008A4206D905F076F90C2303604FF0FF302B
:1026A00008BD1A6008BD00BF9400002068350020F6
:1026B0000F4B1A6842F001021A6059680D4A0A402D
:1026C0005A601A6822F0847222F480321A601A6802
:1026D00022F480221A605A6822F4FE025A604FF4F3
:1026E0001F029A604FF00062034B9A60704700BF70
:1026F000001002400000FFF800ED00E000207047ED
:1027000070B514249AB02246002102A805F073F98E
:102710002022002112A8334E05F06DF91822002165
:102720000CA805F068F92246002107A805F063F916
:10273000B3692D4D43F40063B361B36902A903F497
:1027400000630193019B41F61F4328460493FFF762
:10275000ABFB2B68002423F080032B60AB6912AA2B
:1027600043F00803AB6160230121284612931394C0
:10277000149415941694179418941994FFF7CCFB9D
:10278000AB690CA923F00403AB616B68284623F006
:1027900070036B60AB6823F08003AB604FF40053B1
:1027A0000C9410930D940E948DF83C40ADF83E407F
:1027B0001194FFF779FCB36907A943F00403B361EF
:1027C000B3690A4803F004030093009B084B0A9482
:1027D00007930923089302230993FFF787FA1AB096
:1027E00070BD00BF00100240002C014000080140F5
:1027F000010001047FB50021142201A805F0FBF8B7
:10280000194BDA6942F00102DA61DB6903F0010376
:102810000093009B154BD868C0F30220FFF76EFFB2
:102820004FF08052124B0001C0B283F81C0301A983
:102830001A604FF08040FFF737FB4FF080431A6873
:1028400022F080021A609A6822F4804222F0070285
:102850009A605A6822F070025A609A6822F08002E8
:102860009A6007B05DF804FB0010024000ED00E044
:1028700000E100E010B586B00021142201A805F0A7
:10288000BAF8184B184CDA6942F00202DA61DB69D7
:1028900003F002030093009B144BD868C0F302209E
:1028A000FFF72CFF4FF00052114B0001C0B283F82C
:1028B0001D0301A91A602046FFF7F6FA236823F0EA
:1028C00080032360A36823F4804323F00703A360FD
:1028D000636823F070036360A36823F08003A36040
:1028E00006B010BD001002400004004000ED00E002
:1028F00000E100E010B58EB01822002108A805F014
:102900007AF81422002103A805F075F8254B264C0F
:102910009A6903A942F480429A619A69204602F4B6
:1029200080420292029A9A6942F008029A619B6977
:1029300003F008030193019B44F24003039309232E
:10294000049303230593FFF7D1F948F2800303931F
:10295000042303A920460493FFF7C8F9134A04F59A
:102960003054536808A943F0040353604FF46123C3
:102970000C2208930023204609930A930B930D938E
:102980000C92FFF7ABFB236923F490432361636947
:1029900023F02A036361E36843F40053E3600EB05D
:1029A00010BD00BF00100240000C014000000140BB
:1029B000044BD868DB68C0F340305B0448BF40F08C
:1029C000020070470010014010B5064C4FF4005152
:1029D000204604F0D1FF2046BDE810404FF480416E
:1029E00004F0CABF00100140FFF7EEBF38B50C4C31
:1029F0000546627822B920B9FFF7E6FF002323736A
:102A000038BD420604D54FF40051064804F0B7FF24
:102A10002B06F3D54FF48041024804F0B0FFEDE7F8
:102A2000302E00200010014010B5064B04461B78E4
:102A3000022B06D002F00EFE2046BDE81040FFF744
:102A4000D5BF10BD302E00202DE9F0414FF6FF76A6
:102A5000FEF7B2FC1748FEF73BFD4CF25030FEF794
:102A6000C7FC154A134D1369DFF85C8023F002039D
:102A7000124F136135F80820114BB2422B4416D087
:102A8000FC18294600230120FEF7DCFC23461A88A7
:102A9000B24204D00023A91C0120FEF7D3FC094B4D
:102AA00004359D42E6D1BDE8F041FEF797BC3B44BA
:102AB000EDE700BF00FC010800200240612E00206D
:102AC0000204FEF7000002086132FE170C4A30B51E
:102AD00010460C4B0C4C1D7803F178410133A1F5E5
:102AE000FE31A3425554F6D113780D2B06D00023A6
:102AF000FF22C2540133B3F5806FFAD130BD00BF5D
:102B0000612E002000FC010800000208014B185C47
:102B1000704700BF612E0020014B1954704700BF61
:102B2000612E00200023F0B40A4C451E25448F1866
:102B3000B94204D120448354F0BCFFF785BF3BB9B0
:102B4000DB0911F8016B3344DBB205F8016FEFE7E5
:102B50000123F6E7612E00200023F0B50B4C4D1E3B
:102B600025448718B84205D12144885CC31A5842CD
:102B70005841F0BD15F8016F2BB9DB093344DBB2C6
:102B800000F8016BEEE70123F8E700BF612E00209B
:102B900008B500214822074804F02DFF064900200F
:102BA00003F035FB20B9BDE80840072002F0AABDBC
:102BB00008BD00BF64320020903200200149024865
:102BC00004F00EBC542E00208432002000000000CF
:102BD0002DE9F04F97B006904C220021AC4804F04C
:102BE0000AFFAC4BAC4A984603F108051C4603CCDF
:102BF000AC4210605160234602F10802F6D1206811
:102C00004FF0000A1060A379A18893719180069B10
:102C10001B78242B40F09F8701239D4A82F802A055
:102C2000537003229A468DF83B2000242546264601
:102C3000089407949DF83B20069B13F802B0BBF163
:102C4000000F23D115B1002E08BF0226A20605D51C
:102C50008F4B5A6A914B9A4200F36287BAF1000F88
:102C600000F0F381E30740F16487894FFB78012B83
:102C700040F0F8813869FDF7DBFB83A3D3E900233B
:102C8000FDF72AFCFDF720FF3861EBE1ABF14101D4
:102C9000192900F2338701328DF83B200DF13B01F9
:102CA0000FAA069801F0CCFB002800F02A87DDF877
:102CB0003C904846FDF7BCFB05F062FCFDF7E4FEE6
:102CC000C7B23846FEF70AF801464846FDF750FFFE
:102CD0007349FEF757F8FDF7ABFB05F00BFCFDF76A
:102CE000D3FEBBF1470F80B21FD0BBF14D0F00F0F8
:102CF000DB80ABF14503152B24D8DFE813F02D0161
:102D00004501230023004A0153015C0165012300B2
:102D10006A012300710176017B0180018501230096
:102D200023002300910198019F01282F00F0A0802B
:102D30001ED8132F08D8112F75D2042F5DD012D3AF
:102D40000A2F55D0142375E01C2F51D007D8152F0A
:102D5000F8D84F4BC7F11507DF70062367E01E2F29
:102D600046D0262FEED1002E40F0CE86022620E05F
:102D70003D2F78D017D8352F3FD00DD82B2F01D02D
:102D8000312FDFD1002E40F0BF86312F64D1404B70
:102D90009E71082303263EE03B2FD3D83C4B363FA1
:102DA000DF71092343E05B2F18D85A2F46D2502FEA
:102DB000C8D1374B262F5F705ED1A0F1140292B2BA
:102DC0001E2ABFD8374921FA02F2D707BAD50A27F7
:102DD000B0FBF7F07638587001231CE05C2F07D069
:102DE0005E2FAFD82A4BC7F15E079F7005231EE008
:102DF00018B9002E40F088860126254B07F0FD0209
:102E00001C2A1F7001D05C2F34D108B10A2899D137
:102E1000384418700023012202FA03F3089A1A4278
:102E20002CD0152306E01A4B113F5F7102230028B6
:102E3000F1D01723184617B0BDE8F08F20B9144B16
:102E40005A3F1F710323E6E70A287FF47BAF5A2F0E
:102E50003FF478AF0423DEE70A287FF473AF012242
:102E60000B4B9A7195E700287FF46CAF0A23D2E7E9
:102E70000723DCE70023DAE70123D8E7089A1A439F
:102E80000892D7E6AFF300806666666666663940EC
:102E9000AC32002064320020AD32002080969800D1
:102EA0000000C842010410400028C2D1092F15D8E3
:102EB000072F3AD2022F29D9052F3FF643AF042F0F
:102EC000B14B2ED0052F2ED010229A720C23012246
:102ED00002FA03F3089A1A42D1D0A2E73F2F31D069
:102EE00009D81E2F15D03E2F7FF42CAF0122A64B00
:102EF0001A730F23EBE7432F26D0642F28D0422FDD
:102F00007FF420AF0122A04B5A73F2E727B1012FC3
:102F100005D09D4B1F7202E003229B4B1A720B23BC
:102F2000D5E72022D1E70022CFE7082F964B05D026
:102F3000092F05D080225A720D23C8E74022FAE7F4
:102F40000022F8E70222D2E701228F4B9A73D0E7E2
:102F500001228D4BDA73CCE78B4B83F8447010233E
:102F600001279F403C4240F0D58540F2613141FA53
:102F700003F3D90706D500214846FEF7A1F800283B
:102F800040F0CB853C4355E67F4BC3F810900023BF
:102F9000E6E77D4BC3F81490079B43F001030793CA
:102FA0000123DDE7784BC3F81890079B43F0020339
:102FB00007930223D4E7744BC3F81C90079B43F09C
:102FC000040307930323CBE76F4B83F8207004239C
:102FD000C6E74846FEF7B2F86B4B58620523BFE7D9
:102FE000694BC3F828900623BAE7674BC3F84890AB
:102FF0001123B5E7644BC3F82C900723B0E7624B6D
:10300000C3F830900823ABE760494846FEF776F8EE
:10301000002840F07C855C4B83F8347009239FE7DF
:10302000594B45F00105C3F838900A2398E7564BF1
:1030300045F00205C3F83C900B2391E7524B45F055
:103040000405C3F840900C238AE74F4FBB78012B4F
:1030500017D1022E06D17B78502B03D013B1E7078E
:1030600040F1678514F4807F08BFD8F81030464FD0
:1030700008BF3B633B78042B10D161060CD41C23A2
:10308000D8E698F80130002BECD1E0073FF5EEAD23
:10309000D8F814303B61E5E724F040047B79002B3D
:1030A0003CD0012B0CBF012300230B930CBF00234A
:1030B00002230A930CBF022301230993FB78012BFF
:1030C00031D0032E05D1BB79012B02D1042D40F064
:1030D0002A852F4A10AB07CA83E80700089A2A4FAF
:1030E00012F4007F3CD197F800B0BBF10A0F55D025
:1030F000BBF15C0F00F01781032E40F04981BBF15A
:103100001E0F00F08381BBF1350F00F09A81BBF1F7
:103110001C0F40F036811F49062079E102220B92F4
:1031200001220A92C9E74FF00009DFF86CB045FAB6
:1031300009F3DA070CD5DBF80000FDF779F910A3E5
:10314000D3E90023FDF7C8F9FDF7BEFCCBF800007A
:1031500009F10109B9F1030F0BF1040BE7D1B0E755
:10316000F879062801D91D2364E698F806208242E2
:10317000B9D0194603F04BF80028B4D1072359E61B
:103180006666666666663940AC32002000007F43A2
:1031900090320020C0320020E43200200DB91A2302
:1031A00048E614F0500F3FF46AAFB86AFDF740F9F3
:1031B00005F0E6F9FDF768FCC0B20628D3D897F809
:1031C0002030142B05D0022B7FF4BCAD23063FF535
:1031D000B9AD24F05004002800F09E800138C3B23D
:1031E0000693A849069803F012F80028C6D04FF0BD
:1031F000000897F82030A44F0C93DFF888B27B6C5E
:10320000ABF114090D93203745FA08F2D10715D513
:103210000C9B142B40F08280B9693868FDF7A8FC3C
:10322000DBF82410FDF7A4FCB8F1020FCBF8000086
:1032300004D10D99FDF79CFCC9F81C0008F10108A8
:10324000B8F1030F0BF1040B07F10407DCD18F4B2E
:103250005F789946502F40F0FA80002D40F0668448
:103260001AF001020ABF24F4487424F0210424F067
:1032700001040EB124F47C44844F3B7B23B16306EC
:103280007FF5FDAE24F040047B7B43B1804B2340AF
:10329000002B3FF4F4AE24F4003424F05004BB7B44
:1032A0002BB114F4403F3FF4EAAE24F44034FB7BEE
:1032B00043B1784B2340002B3FF4E1AE24F40034BB
:1032C00024F04004002C40F040841394149415948E
:1032D000002A00F05D82089B33F0490340F03884F7
:1032E0003B78352B02D0002B40F03284664C674986
:1032F0002369227A1493637A13A813438DF8543008
:1033000000F032FC034600287FF494AD624A20347A
:1033100007CA84E807008DE5FB7961E7DBF8242024
:10332000CBF800208AE7002D3FF439AF4FF00008BA
:10333000554FDFF864917B6CA9F1380B0693203769
:1033400045FA08F1CA071FD510AB53F828103868A2
:10335000FDF70EFCD9F80010FDF70AFCB8F1020FDA
:10336000C9F8000004D10699FDF702FCCBF8400033
:1033700008F10108B8F1030F07F1040709F1040986
:10338000DED10023069362E7B969C9F80010EFE7C0
:10339000002D3FF4B4AE4FF000093B793E4F069349
:1033A000394B5A6C03F120080C9245FA09F2D30705
:1033B0000CD4D8F800203A6009F10109B9F1030FE3
:1033C00008F1040807F10407EFD198E6BBF1350FC7
:1033D000F2D0069B9BB910ABD8F8181053F829000F
:1033E000FDF7C8FB3968FDF7C5FBB9F1020F38607E
:1033F000E2D10C99FDF7BEFB244B1864DCE738687A
:10340000D8F80010FDF7B6FB3860D5E707201D4956
:1034100002F0FDFE00283FF4B1AE15B906952E4628
:1034200015E700231949184845FA03F2D70704D4D1
:103430009A0057180244126A7A610133032BF3D1C0
:103440009FE7124B5B78012B9BD91E23F2E4022EDF
:103450007FF406AF1FB9002D08BF002600E700214A
:103460001869FDF723FE002840F063838C2F1DD0E0
:1034700014D8022F2BD0032F2BD0012F7FF4F0AEC6
:10348000E9E700BFC032002064320020AC320020E7
:103490005000020040000200E43200208E2F05D0D0
:1034A00002D38F2F7FF4DCAE4AF0100A7237FFB2DE
:1034B000012F98BF4AF0080A002D3FF470AE0C228D
:1034C000AD49AE4804F088FA002838D0C8E64AF082
:1034D000040A002D3FF463AE0122099B0A9902FA07
:1034E00003F38A4013431D4200F026830C93099B8B
:1034F000DFF8948203F10E0203F1080158F821105D
:1035000059F82200FDF734FB0A9B834603F10E02B3
:1035100003F1080159F8220058F82110FDF728FBA3
:1035200014F0800207460C9B00F0A3800C22924905
:1035300008F1200024F0800404F04EFA08B9212399
:1035400078E499F80330012B0CD1D9F82C00FCF762
:103550006FFF83A3D3E90023FCF7BEFFFDF7B4FAA6
:10356000C9F82C00864BD86AFCF762FF8046894672
:103570000022844BFCF7B0FF42464B46FCF7ACFF01
:103580008046894658465946FDF7FCFBFCF750FF3C
:1035900002460B4640464946FCF7EAFD804689460E
:1035A00038463946FDF7EEFBFCF742FF02460B4674
:1035B00040464946FCF7DCFDFDF786FA00218046CF
:1035C000FDF77EFD002840F0BA824046FCF730FF50
:1035D00005F0B2F8814688465846394600F0F4FFB7
:1035E000FCF726FF08F1004802460B4648464146D4
:1035F000FDF79CF8FDF768FA614BDFF884915B7882
:103600008046032BD9F82C3008BF00F10048002178
:1036100018460793FDF754FD079B28B103F10043BB
:1036200008F10048C9F82C30099B3946043309EBEE
:10363000830340460793FDF7A5FB01465846FDF777
:1036400097FA4FF07C51FDF79DFB079B5946586058
:103650000A9B4046043309EB8309FDF793FB394687
:10366000FDF788FA4FF07C51FDF78CFBC9F8040098
:10367000F6E507990B4200F0658299F8033024F0D3
:103680000E04012B4ED00A9BDFF8F48003F10409ED
:1036900008EB8909D9F804103846FDF769FA099B47
:1036A00007901F1D08EB870779685846FDF760FAF9
:1036B000079B194600F088FFD9F804108346786804
:1036C00000F082FFC8F82C00014607465846FDF777
:1036D0004FFA20F0004B5846FCF7AAFE22A3D3E98C
:1036E000002380468946FDF787F900283FF4B8ADEE
:1036F0004FF07C515846FDF701FD00287FF41FAFC5
:103700003846FCF795FE1AA3D3E90023FCF7E4FE44
:1037100002460B4640464946FDF76EF900287FF405
:103720000EAF9DE59046DFF86490079B43FA08F3DF
:10373000DA070CD5D9F80000FCF77AFE08A3D3E924
:103740000023FCF7C9FEFDF7BFF9C9F8000008F136
:103750000108B8F1030F09F10409E6D193E700BFAE
:1037600066666666666639407B14AE47E17A743FEA
:10377000FCA9F1D24D62503FE43200208432002097
:10378000AC3200200000104064320020C032002023
:10379000AA4BAB4C93F8483013F0020F0DD07B7856
:1037A000013B022B88BF4AF0400A002D00F0E58063
:1037B000022E40F0E2804AF0800A7B6AE361BB7827
:1037C000637013B108238DF854303B69D7F830800B
:1037D0006361414620691393FDF768FC0AF04005D8
:1037E00010B11AF0200F0CD0607A40B11AF0800F9F
:1037F00005D1002D00F0D580002102F067FF3B6B62
:1038000023610DB92369149397F83430B87A23767D
:10381000637A834204D0149902F058FFBB7A637232
:103820009DF85430627A787A13438DF85430237AB5
:10383000834206D0FFF7F8F87B7A002B40F0B38084
:1038400023729DF85430227A13438DF854303B781C
:10385000042B02D1B86A00F02BFD7B79032E237173
:10386000FB78A3700DD1BB7963710BB900233B6466
:103870003D6C606C2946FDF719FC10B9656403F0D6
:1038800097FDFB79A2799A4207D0A3716D4B10AADC
:1038900007CA83E8070003F08BFD3B79E3703B78B0
:1038A000262B00F0B48000F281801C2B00F0998060
:1038B0001E2B00F096800A2B00F081807B78502B25
:1038C00023700ED0022E0CD1012B5F4D40F0AE8044
:1038D00013A9284600F004FB95E807005B4B83E83A
:1038E00007003B7AE37183B101F0B4FEE379032B67
:1038F000574B40F0DF801B78022B04D0082003F0E8
:103900009BFD01F03FFD0023E3713C7B54B1B86A9D
:10391000FCF78EFD04F034FEFDF7B6F82146C0B288
:1039200003F0B8FF7B7B6BB1B86AFCF781FD04F054
:1039300027FEFDF7A9F897F82040464A2146C0B275
:1039400003F0CCFFBB7B23B1424997F8440003F05E
:10395000C4FFFB7B002B3FF46DAAB86AFCF768FD3F
:1039600004F00EFEFDF790F83A49C0B202F08AFD6D
:1039700000F078FF0023FFF75DBA637A102B7FF425
:103980001CAF2378013B022B0AF0400305D8002B23
:103990003FF413AF4AF0200A0FE7002B7FF40DAF7E
:1039A000F8E7414629E7227A134349E75C2B33D0F5
:1039B000662B35D0282B81D12449072029E0264DBC
:1039C0000698294602F05CFBA379069A93427FF49D
:1039D00075AF95E807001B4B83E8070003F0E8FC90
:1039E0006CE79DF8543043F001038DF854301EB15C
:1039F00013A9154800F074FA174D13A9284600F0D2
:103A00006FFA95E80700114B83E8070056E7062098
:103A10000E4902F035FB51E70B4A104B07CADBE7B2
:103A200000230E4AA36353609360D7E7C3B99DF8A0
:103A3000543043F001038DF8543049E778340020C6
:103A40006432002090320020E432002084320020D2
:103A5000302E0020F4320020C03200209C320020A2
:103A6000023B012B12D8CAF3800304930B9B3C4A00
:103A700003930A9B13A90293099B28460193FB6AAF
:103A80000093A5F1240300F05FFA25E79DF8543078
:103A9000524643F0040313A928468DF8543000F031
:103AA00041FC00283FF418AF01287FF41AAFFFF75C
:103AB00085F816E701222270642200251A725A72D4
:103AC0009A721B782571022BE5706570A57165727D
:103AD00025720FD02349284602F099FB00283FF4B5
:103AE0004DAB03F065FC2846002102F0C3FD2846DB
:103AF000FEF77CFF082001F02DFE04E70123FFF70D
:103B000099B90223FFF796B91823FFF793B9262333
:103B1000FFF790B91923FFF78DB90423FFF78AB98E
:103B20001B23FFF787B92523FFF784B91F23FFF76E
:103B300081B91623FFF77EB92023FFF77BB9222333
:103B4000FFF778B92323FFF775B92423FFF772B97C
:103B50001023FFF76FB98DF83BA0FFF766B800BFE1
:103B6000843200209032002038B50B69054603608E
:103B7000037A01F1380443F004030372104B93F805
:103B8000483013F0200F10D129460E4D204600F08A
:103B9000A7F92C7884B900F097FE68B120232B7028
:103BA00002F0E6FF02F0A4FD07E0204603F026FC49
:103BB0000028E9D00F2400E00024204638BD00BFD3
:103BC00078340020302E0020054B93F848301B0736
:103BD0005EBF4FF48072034BC3F88420704700BF70
:103BE0007834002000E100E04FF48072014BC3F80C
:103BF0008420704700E100E00F4B104A9B6892F868
:103C000048209BB2520658BF83F4E0538BB10C4A54
:103C100011880B4218BF01205188928808BF0020EC
:103C20000B4218BF40F00200134203D040F00400E2
:103C300070471846704700BF000C014078340020E0
:103C4000E09A000808B5094B1B78012B0CD0084BF3
:103C50001B784BB9FFF7D0FF30B100F0C7FBBDE8D0
:103C60000840012003F074BD08BD00BF302E0020C5
:103C7000602E00202DE9F04F824B8BB05C7881469E
:103C80000193002C40F0B38006230025DFF80CA23E
:103C9000DFF8F4B10694049405948DF818303AF8DE
:103CA000143002AA22F8143049FA04F3D80718D5C0
:103CB0000BEB8403586AFCF7BBFB00224FF0404338
:103CC000FCF70AFC06460F462846FCF7B1FB3246D5
:103CD0003B46FCF791FE20B930463946FCF7F4FE2E
:103CE00005460134032CDAD104244FF00108664E56
:103CF000D6F850B00DF11C0A5046644903F070FB31
:103D0000002003460746864696F849C005F1004262
:103D100049FA03F1C90717D55C49013041F823E09E
:103D20004CFA03F1C907C0B205D5B8F1000F05D0B0
:103D30004AF8232004E0B8F1000FF9D04AF82350E4
:103D400002A931F813100F430133032BE0D1FCF724
:103D5000C1FF04F047FD019B0146DF805846FDF797
:103D600011F804A9049007A800F07AFE0423019A30
:103D7000474D137102F0FCFE02F0BAFCB8F1000FDF
:103D800011D0FFF739FF002302AA32F813203A427C
:103D900004D040FA03F1C90748BF97430133032B0E
:103DA000F2D1019BDF8002F0E3FE2B7813F0340F99
:103DB00059D02D78EDB2EB0602D5062003F0C8FCF1
:103DC000AF0602D5072003F0C3FCB8F1000F55D1B0
:103DD000FFF712FF19EA000F02D0082003F0B8FC29
:103DE0002C4B1B7833B100F001FB01F0CBFA0BB088
:103DF000BDE8F08F042003F0A1FC02F039FEB6F814
:103E0000540000F0D7FB98F001082FD02249B06D84
:103E1000FCF7B8FF0546D6F84CB0013C14F0FF049F
:103E20007FF468AF184D194F49FA04F3D90711D53B
:103E300096F849302341DA071CD5B16D686AFCF762
:103E400099FE2968FCF79EFFFCF7F2FA04F010FBDC
:103E500047F824000134032C05F10405E4D10023C4
:103E6000019A1371C3E7780788D1C6E7B56DD6F814
:103E700050B0D2E7B06D00F10040E2E76B07AFD57C
:103E80000920ABE7302E002078340020542E00208B
:103E9000452E0020602E00200000A040E69A000879
:103EA00010B503F0ABFAC0B101220C4C2078E270DF
:103EB000082808D000F09AFA022003F049FCBDE877
:103EC000104001F05FBA03F0B7FA01F05BFA6378D3
:103ED0001BB92378002BF8D1ECE710BD302E002061
:103EE000F8B5174C074694F848200D4612F0200FFD
:103EF000144E04D03378202B01D0FFF7D1FF337854
:103F0000022B1BD001F03EFA7378BBB900F008FD1C
:103F100010B101F079F8F5E72946384600F0A0FD28
:103F200060B994F848309A0708D52B7ADB0605D596
:103F300069681020BDE8F84002F0C8BBF8BD00BFBA
:103F400078340020302E00202DE9F04F1C468FB031
:103F50009DF864500192AB001A44E31854F82570A0
:103F60000993019B03900291384653F8251008925B
:103F7000FCF700FE9DF86880019A4FEA88031A4416
:103F8000E3180B9354F82840019B049053F8281031
:103F900020460A92FCF7EEFD039B0499059053F826
:103FA0002500FCF7E5FD039B0546059953F828001D
:103FB000FCF7DEFD07F10047804629463846FCF74E
:103FC000E1FE04F10044824641462046FCF7DAFE59
:103FD00001465046FCF7CEFD414682463846FCF786
:103FE000D1FE294680462046FCF7CCFE01464046DD
:103FF000FCF7BEFD5146189E9DF86CB09DF8709080
:1040000004F0EEFB0546B9F1000F4ED0FCF710FAB4
:104010009BA3D3E9002380468946FCF7E3FC48B123
:1040200099A3D3E9002340464946FCF7A1F8FCF7E1
:104030004BFD05469A4B3146D3F83C803046FCF7A1
:1040400099FD4146FCF794FD4146FCF79BFE04F0C8
:10405000C9FB82462846FCF7EBF90022914BFCF79E
:104060003BFA804630468946FCF7E2F902460B46A9
:1040700040464946FCF730FA8046504621F000465B
:10408000FCF7D6F902460B4640463146FCF74EFB9C
:1040900004F06AF9FCF7F8FC86B2CEB902990398ED
:1040A0000FB0BDE8F04FFFF71BBFFCF7C1F978A3D5
:1040B000D3E9002380468946FCF78AFC0028B9D062
:1040C00071A3D3E9002340464946FCF753F8AEE715
:1040D000029B93F8088018F0080F0DD03046FCF7CB
:1040E000FDFD029B01461868FCF74CFE029B28F080
:1040F0000808186083F808803046FCF7EFFD80461A
:1041000001462846FCF7F2FE019B824603EB8B0337
:104110000693019B53F82B10039B53F82B00FCF7DD
:1041200027FD4146FCF7E2FE51460C905046FCF755
:1041300029FE01464FF08040FCF71AFD0546504627
:10414000FCF776F954A3D3E90023FCF7C5F98046C0
:1041500028468946FCF76CF90022534BFCF70AF815
:1041600002460B4640464946FCF7B6F9FCF7ACFC64
:104170004FF07C5107902846FCF704FE012580464D
:104180004FF00009ABB29E4288D9B9F10B0F3FD86E
:1041900007993846FCF7F6FD414683462046FCF772
:1041A000F1FD01465846FCF7E5FC4146834638469A
:1041B000FCF7E8FD079907462046FCF7E3FD0146BA
:1041C0003846FCF7D5FC5C46074609F101095FFA61
:1041D00089F904993846FCF7CDFC089B05991860CD
:1041E0002046FCF7C7FC0A9B0C991860069B01351A
:1041F0001868FCF7BFFC069B029918600198FFF74E
:104200006FFE2A4B5B78002BBCD00FB0BDE8F08F5F
:104210002846FCF763FD5146FCF7B4FD074604F061
:1042200021FA0446384604F051FA099B0B9A1B68A0
:10423000834603F1004319462046D2F800900D93BF
:10424000FCF7A0FD494607465846FCF79BFD014692
:104250003846FCF78FFC0D9B074619465846FCF77D
:1042600091FD494683462046FCF78CFD01465846A1
:10427000FCF77EFC4FF000090446AAE7AFF300808C
:104280008DEDB5A0F7C6A0BE182D4454FB211940F2
:104290008DEDB5A0F7C6A03E4BDA7D5C5555C53F08
:1042A000783400200000E03F00001040302E002055
:1042B00010B5074B04461B78022B07D001F0CAF952
:1042C0002046BDE81040002100F050B910BD00BFED
:1042D000302E002010B50446FFF786FCBCB1204606
:1042E000FFF7C8FC01F04EF80C4B5B78A3B9FEF762
:1042F00065FC00F041FD4FF4E052094B28205A6163
:10430000FDF724F8BDE810402820FCF7FDBF04208D
:10431000FFF7B0FC0320E3E710BD00BF302E002004
:10432000000401402DE9F8432C4C8046237889464F
:10433000022B174625464ED001F08CF9667816B14F
:104340000220BDE8F883C7F3C000667100F01AFED2
:1043500000F032FE40B1042003F0FAF901F012F847
:10436000304600F00FFEEBE740464946FFF7B8FD48
:1043700001231B4C0220237003F05EF801F002F8C9
:104380006B78002BDCD12B78002BF7D12378012B15
:104390001ED1FB0618D5134B134A07CA83E8070042
:1043A0000020207000F0EEFD00F0ECFF02F060FB5A
:1043B00000F058FA00F0E0FC01F0D8FA687900301B
:1043C00018BF0120BDE8F883052003F0C1F9E7E735
:1043D00001236B71E4E70020BDE8F883302E002054
:1043E000462E0020482E0020542E002008B5114BE8
:1043F0001B78DB061DD4102003F01EF802F0A0F895
:10440000FEF7E2FA0C4A137813F02C0F03D112795D
:1044100012F0060F0DD0042B09D1084B1B7813B9ED
:10442000062003F095F9BDE8084002F0A5B9032085
:10443000F7E708BD452E0020302E0020602E00201A
:104440002DE9F74F0B789346C218C35C06462D2B17
:104450008A4618D101275378951C00210A460C463C
:104460000846303BDBB2092B19D80132D2B2082AF8
:1044700010D809B1013C64B200EB800003EB4000AE
:1044800015F8013BEDE72B2B12BF551C951C5378FB
:104490000027E2E70029F3D1013464B2F0E7FE2BF4
:1044A00002D109B90121EBE71AB3FCF713FC002193
:1044B0000190FCF7FBFD019B88B90FF27C09D9E95B
:1044C0000089621C19DB25D11846FBF7B1FF1CA33C
:1044D000D3E90023FCF700F8FCF7F6FA03460FB126
:1044E00003F100430122AD1B013DCBF800308AF8F7
:1044F0000050104603B0BDE8F08F1846FBF798FF58
:104500004B464246FBF7E8FFFCF7DEFA023403466F
:1045100064B2D6E7002CE2D0DFF82C801846414682
:10452000FCF730FC013CE2B2034654B2002AF5D15C
:10453000D5E700BFAFF300807B14AE47E17A843F3C
:104540009A9999999999B93F000020414FF47A724C
:10455000054B1B68B3FBF2F300229A4200D170476F
:1045600000BF0132F9E700BF0800002070B50E4619
:104570000E49FCF707FCFBF75BFF03F071FEFCF74D
:1045800083FA0B4D84B27CB16B786BB93EB900F005
:10459000F9FE3220013CFCF75FFEA4B2F3E700F025
:1045A0003DFDAB789B07F4D570BD00BF0000A04176
:1045B000302E0020014608B501B908BD0120FFF7E3
:1045C000C5FF013989B2F7E738B50D460146FCF75A
:1045D000D9FB294604462846FCF7D4FB0146204671
:1045E000FCF7C8FABDE8384004F0FCB82DE9F84300
:1045F00000250446A946061F00F1080856F8047F66
:1046000049463846FCF752FD40B939463846FCF772
:10461000B9FB01462846FCF7ADFA0546B045EDD199
:10462000284604F0DFF8064601464FF07E50FCF7BE
:104630005DFC054601462068FCF7A4FB2946206086
:104640006068FCF79FFB29466060A068FCF79AFB56
:10465000A0603046BDE8F8832DE9F8430746884658
:1046600000244FF000090D4D58F8246049463046AB
:10467000FCF71CFD60B9314657F82400FCF736FC06
:1046800020F0004629463046FCF738FD00B9354693
:104690000134032CE8D12846BDE8F883FFFF7F7F73
:1046A0002DE9F04F614B624E1F7896F80090002F75
:1046B00008BFC827013FFFB285B0B945019377D045
:1046C00034245C4D04FB075BDBF81C10DBF818A0FE
:1046D0000846FCF74FFADBF82010FCF753FB834643
:1046E00001465046FCF7ECFC00B9DA46002F14BF37
:1046F0003B46C82304FB0754013BC4F814A05FFAEF
:1047000083FAD14536D04FF034093278524537D04C
:10471000BAF1000FD04609FB0A5B08BF4FF0C80A88
:104720000AF1FF335FFA83FA434B1A78524501D1FD
:1047300002F006FA09FB0858D8F81870D8F81400E7
:104740003946FCF7B3FC98B9D8F81C100846FCF7BA
:1047500011FAD8F82010FCF715FB6169FCF70AFA8A
:10476000044601463846FCF7C9FC20B3C8F814409B
:104770005C46CAE7304B1B784B4501D102F0E0F9AB
:1047800096F800A034270AF10104E4B2C82C08BF4F
:1047900000244FF00008019B07FB0A5B1B78039382
:1047A000039B9C420AD1B8F1000F01D086F800A00B
:1047B00005B0BDE8F08FC8F81470D9E707FB0459BD
:1047C000DBF814300193D9F814300198194602939C
:1047D000FCF776FCB0B1DBF81C100846FCF7CAF910
:1047E000DBF82010FCF7CEFA0199FCF7C3F98346F9
:1047F00001460298FCF782FC20B1A2464FF0010866
:10480000C9F814B007FB045291695069FCF74EFCDB
:10481000002818BFA24604F10104E4B218BF4FF00B
:104820000108C82C08BF0024CB46B9E7382900206E
:1048300039290020980000203A2900200023012176
:10484000044A1370044A1370044A1170044A137026
:10485000704700BF3A290020382900203B2900205A
:104860003929002008B51C220021034803F0C3F8B1
:10487000BDE80840FFF7E2BF3C29002010B5094B16
:10488000094A197812788A421A460AD04B1CDBB2C0
:10489000C82B08BF00230548137004788C4208BF5A
:1048A000037010BD3A290020382900203929002042
:1048B0003420034B1A78034B00FB0230704700BFD3
:1048C0003829002098000020054B1878054B1B78EC
:1048D00083421DBF3422044B02FB0030002070478E
:1048E0003A2900203829002098000020094B0A4A64
:1048F0001B7812780133DBB2C82B08BF00239A4221
:104900001FBF3421054A01FB0323586908BF00205B
:10491000704700BF3A290020382900209800002065
:10492000034B1878034B1B78C31A58425841704701
:104930003A2900203B290020F8B5437C0546DA07D8
:10494000C46A20D5244B587AFBF760FD20A3D3E935
:104950000023FBF7C1FD064620460F46FBF768FD26
:1049600002460B4630463946FBF7B6FDFCF7ACF87D
:1049700004464FF07E512046FCF7C0FB08B94FF0CB
:104980007E542046F8BD5B0716D4134B187AFBF70C
:104990003DFD0FA3D3E90023FBF79EFD064620460D
:1049A0000F46FBF745FD02460B4630463946FBF7FE
:1049B00093FDFCF789F80446AD6A20462946FCF7CA
:1049C0009DFB0028D5D02C46D3E700BFAFF3008075
:1049D0007B14AE47E17A843F302E00202DE9F0476A
:1049E0004FF03408194B1A4D1C781A4B1A4F93F894
:1049F00000904C4503D1194B9D61BDE8F08708FB41
:104A0000047A5046FFF798FF064601462846FCF711
:104A100057FBB8B129462846FCF7B4F908FB0475E2
:104A2000CAF81800D5F824A0A8695146FCF766FB1F
:104A300008B1C5F818A00134E4B2C82C08BF00249E
:104A40003546D6E731463046E6E700BF3A29002032
:104A5000FFFF7F7F38290020980000203C2900209C
:104A600034222DE9F04F8B46B54EB64D347891B0D7
:104A700002FB045701900021384602F0BCFF9BF86E
:104A80000830DBF8042013F0020F7B7414BFAE4B28
:104A9000AE4B3A63009693E8070034234FF00008CA
:104AA0000DF11C0A8AE8070003FB0459A84A019B80
:104AB00052F8281053F828000292FCF763F9FBF72C
:104AC000B7FC03F0D5FC5AF8281004AB43F82800D3
:104AD000401A80EAE076A6EBE07647F82860D9F83D
:104AE0000C1033468E4238BF0B46C9F80C30039386
:104AF000FCF7F4F8029A0AAE52F82810FCF7F6F91F
:104B0000002146F82800FCF7DBFA039B38B1914AF4
:104B100012F8181099F810200A4389F8102008F1AB
:104B20000108B8F1030FC1D1002B00F0FD804FF058
:104B300034093046FFF75AFD09FB04593146C9F8DC
:104B400020008548FFF788FD3146C9F81C008348DE
:104B5000FFF782FD99F81180C9F8280018F0010FBD
:104B600052D0C9F82C00009B4FF0000A1A787C4BF9
:104B70001B789A4202D018F0020851D0342303FB6C
:104B80000453C3F814A0C3F824A04FF0340808FB62
:104B9000045898F811309B0734D43846FFF7CCFE00
:104BA0006A4F8146D7F818A05146FCF7A7FA0028AB
:104BB00000F0B78051465046FCF7E4F8342303FB7D
:104BC0000454656AC8F818002946A069FCF796FAEB
:104BD00000B1A561634B96E80700C7F8189083E819
:104BE000070004AB93E8070087E807005E4A0099D6
:104BF00013780B700133DBB2C82B08BF002313708E
:104C0000FFF74EFD012090E0DBF8001018F0080FD0
:104C1000C9F82C10A7D0D9F82000FCF7B3F8A0E70A
:104C2000D1460DF1340B494B4344DA6856F808304D
:104C30001046194603930192FCF7A4F80146484632
:104C4000FBF796FF019A039B814611461846FBF736
:104C50008FFF4BF8080008F10408B8F10C0FE2D1FF
:104C60004846FBF7E5FB32A3D3E90023804689469B
:104C7000FBF7C2FE18B1342303FB045383E72EA3D2
:104C8000D3E9002340464946FBF798FE28B1342378
:104C900003FB0453354A5A6277E75846FFF7A6FCF0
:104CA00059462D48FFF7D8FC42464B4683463049CB
:104CB0000020FBF75DFA00222E4BFBF70DFCFBF703
:104CC00003FF03F08FFD8246029B5846996BFCF769
:104CD00059F85146FCF756F8FBF7AAFB80465046B8
:104CE0008946FBF7A5FB02460B4600202049FBF74F
:104CF0003FFA02460B4640464946FBF717FD0022A5
:104D0000002380468946FBF759FE40B94046494694
:104D1000FBF7DAFE342303FB0453586235E7002027
:104D2000F8E74946484647E7184611B0BDE8F08F16
:104D3000E90B21E7FDFFEF3FE90B21E7FDFFEFBFA7
:104D40003829002098000020542E00203C29002003
:104D500078340020DA9A0008E434002084340020FB
:104D60003A290020482900203B290020FFFF7F7FAF
:104D70000000F03F0000E03F044A054B1168196055
:104D80005168926859609A60704700BF542E0020A5
:104D90003C290020064B1A78064B1B789A422CBF00
:104DA000A3F1390003F1FF30801AC0B2704700BF91
:104DB000382900203A29002008B501F0C1FE044B33
:104DC0001A78044B1A70BDE80840FFF769BC00BFB1
:104DD0003A2900203929002010B5441E14F8010F8B
:104DE00000B910BD01F0A1F8F8E7632838B51DD966
:104DF0000A24B0FBF4F304FB13043034E4B2D8B259
:104E00000A25B0FBF5F305FB13053035EDB2D8B23A
:104E10003030C0B201F089F815B1284601F085F8AC
:104E200054B12046BDE8384001F07FB809284FF062
:104E30000004E5D82546EBE738BD0000F0B50D4687
:104E400085B000210446FCF73BF920B12D2001F08C
:104E50006CF804F100442E46284F012E2AD86B0826
:104E6000C3EBC31305EB430313F0FF0F04D020463D
:104E70002349FBF787FF04464FF07C512046FBF7A0
:104E800079FEFCF75BF900230A22DCB20133C8B9D2
:104E90003022631E6B44AC421FD306D104AA631CAC
:104EA0001444302204F8102CDCB20DEB0406CCB90B
:104EB00005B0F0BD20463946FBF764FF023E0446CC
:104EC000F6B2CAE704A90C44B0FBF2F102FB1100F0
:104ED000303004F8100C0846D7E70134E4B203F888
:104EE000012FD8E7AC4202D12E2001F01EF816F8AF
:104EF000010D013C01F019F8E4B2D8E70000C84206
:104F0000000020410000000008B50D4B93F8483028
:104F1000DB070DD5FBF78CFA07A3D3E90023FBF7DA
:104F2000DBFAFBF7D1FD0421BDE80840FFF786BF9F
:104F30000321F9E7AFF300806568E1575128A43FEA
:104F4000783400200000000008B50D4B93F848109D
:104F500011F0010109D0FBF76BFA07A3D3E9002395
:104F6000FBF7BAFAFBF7B0FD0121BDE80840FFF7F7
:104F700065BF00BFAFF300806568E1575128A43FCB
:104F8000783400200022084B1A80084A92F9482001
:104F9000002AA4BF4FF400421A8018B11A8882F484
:104FA00000421A80704700BFF83200207834002099
:104FB0000020FFF7E7BF0000044B054A9B681088FC
:104FC00003F400431B1A584258417047000801403F
:104FD000F832002008B5FFF7EFFF60B10022064B62
:104FE0001A70064B064A07CA83E80700054A137879
:104FF00043F04003137008BD462E0020482E0020C9
:10500000542E0020452E002008B5FFF75DFC20B18E
:10501000BDE80840022002F00FBA08BDF8B5384BD1
:10502000384C1B78384E03F0FF054BB1012728465A
:10503000013D277000F07CFBBD420CD902F092FBD1
:10504000337803F0FF05002B00F0BA80E8060CD59A
:1050500001236370F8BD384600F07CFB102002F09D
:105060006DFB3378DD06FCD5E8E7E90704D500F0F1
:10507000E3FD012002F062FB15F0E80F5AD023781F
:105080006EB213F0030F47D113F0280F10D0A3789E
:1050900013F0C00F0CD101F053FD022323712378CC
:1050A000202B05D1002E07DBA37863F07F03A370CC
:1050B00023780BB90122A2706A0605D59F065EBF50
:1050C000A27842F04002A270280704D513F0E00F46
:1050D00004BF10232370A9061ED5062000F03AFB5A
:1050E000A3781A0614D42278402A0FD11F0704D5BA
:1050F00023F01C0343F00203A3704023237007E056
:10510000602E0020302E0020452E0020802AF4D171
:10511000A37843F02003A370002E08DA2378012B34
:1051200002BFA37843F00503A37080232370E82017
:1051300002F004FBA80723D515F0680F1DD12378D2
:10514000402B07D1A37813F0200203D1D90640F1F8
:10515000D48022702378002B00F0D580DF060CD598
:10516000A278D60709D5102B40F0CD80E37A002B2A
:1051700000F0C98043F00803E372022002F0DEFA77
:1051800068071DD5237813F0D00F00F0D180E378A5
:10519000002B40F0CD8094F90230002BC0F2C88083
:1051A000FFF70AFE2379990748BFA27823F0060388
:1051B00044BF42F00102A2702371042002F0BEFA43
:1051C0006D4B1B7803F0FF05002B38D002F0E6FA98
:1051D000207A15F0010F0CBF03466423AA0744BFD1
:1051E0000A33DBB26F0744BF0A3BDBB22E0744BF72
:1051F0000133DBB2E90644BF03F1FF33DBB2C82B56
:1052000028BFC8230A2B38BF0A23617A15F0200F64
:1052100014BF64220A4615F0400F18BF322215F061
:10522000800F18BF1922984201D18A4207D02372F9
:10523000002362722373FFF7D1FBFFF7BDFD4F4BD5
:105240001B7803F0FF06002B4FD002F0AFFAA27AD2
:1052500016F0010F0CBF13466423B70744BF0A338F
:10526000DBB2750744BF0A3BDBB2300744BF0133F2
:10527000DBB2F10644BF03F1FF33DBB2C82B28BF1A
:10528000C8230A2B38BF0A239A4206D0A3720023F0
:105290002279237342F008022271B70607D52378DA
:1052A000102B04D1E37A002B5FD10223E37216F0B6
:1052B000C00F1AD0237813B113F0180F15D0304F48
:1052C00030063D7A05D529064CBF05F07F0545F02F
:1052D0008005720605D56B064CBF05F0BF0545F08D
:1052E00040052846FDF782FB3D72237813F0FC0F42
:1052F00040D0BDE8F84001F03BBC5A0744BF43F042
:105300000803A37026E700232371FFF7DDFA58B1E5
:10531000A37813F0400307D1A3700823237001F092
:1053200027FC01F0E5F928E70023A370237024E7A8
:1053300094F90230002B09DA00232371FFF792FA67
:1053400001F096FBFDF73AFCFFF716FDA37813F08A
:1053500020021FBF03F07F0343F00103A37040232B
:105360000ABFA2702370227027E7DD079FD543F0A4
:1053700004039BE7F8BD00BF2C2E0020442E002024
:10538000643200202DE9F84F664CFFF747FEA37802
:10539000ABB1FFF799FAA0B9634B5D7A1A7A1F692E
:1053A0001543624E96F848309B0702D5202002F044
:1053B000EBF94FF000084FF0814AA37823B9BDE81C
:1053C000F88F457C076BECE794F80190B9F1000F7A
:1053D000F5D1D80715D5217811F0C00067D013F0AA
:1053E000040B11D14146584684F80BB001F042F944
:1053F0005846FDF7FBFAA37823F0020343F00403B9
:10540000A370FFF70BFED8E7802912D10B2000F024
:10541000A1F90021484601F02DF94846FDF7E6FACA
:1054200001F0AAF963780BB1BDE8F88FFFF7F6FD3C
:10543000F8E7402906D101F09BFF18B9A37823F0C3
:105440002003A370A3781907DBD5DFF8DCB09BF845
:1054500009204AB19A0707D496F848309B071CD513
:10546000237943F0080323719BF808305BB1A378DC
:10547000980708D405F04000FDF7B8FA01214FF075
:105480007E50FFF773F8A3789907BAD443F010035E
:105490000220A37001F0D0FFB3E7394605F03000D9
:1054A00001F0E8F801215046FFF760F8DCE7E37A05
:1054B0004BB39A0708D51C4B5B7AE3B1414601F028
:1054C000D9F80123E3729CE713F00C0F99D0164B27
:1054D0005B7A53B10A2000F03DF996F848309907FD
:1054E0000BD5237943F008032371E37A1A0702D519
:1054F000022001F0A1FF0023E4E7394605F0300067
:1055000001F0B8F8F1E723791B077FF57AAF394648
:1055100005F0300001F0AEF8237923F00803237181
:105520006FE700BF302E0020643200207834002066
:105530002DE9F041434B444E93F8483013F0080FE7
:1055400007D0FEF759FB20B101230720337000F08C
:1055500001F9337813F0810314D0022000F0FAF837
:105560000123337000242546384F00F0E1FCFF286A
:1055700017D1FFF749FDFFF705FF7378002BF4D033
:10558000BDE8F081337001F0F3FE30B1304A13789A
:1055900043F020031370FFF7F5FE2C4801F0EEFEF8
:1055A000E0E70A2801D00D282AD1FFF7EBFE96F894
:1055B0000180B8F1000FE3D115F0010507F8048070
:1055C00005D00B2000F09EF844462546CDE73C78F8
:1055D0001CB9204600F096F8F7E7242C06D138468F
:1055E00001F034FF00F08EF82C46EEE7337813F02C
:1055F000210401D00920F5E73846FDF7E9FAE9E78B
:1056000035B12928B1D1AB07AFD505F0FD05ACE721
:105610002028AAD92F28A8D028280DD03B280DD083
:105620004E2C0DD8A0F16103DBB2192B98BF2038A6
:10563000631C3855DCB298E7022596E7042594E709
:10564000012592E778340020302E002058290020D0
:10565000452E002010B5FFF7D7FC064CFFF792FE51
:10566000637833B9FFF730F90028F7D12378082B96
:10567000F4D010BD302E00200148FFF7ADBB00BFB5
:10568000499A000808B55D2000F04FFCBDE80840CD
:10569000FFF7F2BF10B504460068FFF735FC2C2079
:1056A00000F043FC6068FFF72FFC2C2000F03DFC6D
:1056B000A068BDE81040FFF727BC10B504462420C1
:1056C00000F033FC2046FFF790FBBDE810403D2082
:1056D00000F02BBC10B50C46FFF7EFFFE0B2FFF770
:1056E00084FBBDE81040FFF7C7BF38B50C46154630
:1056F000FFF7E3FF29462046FFF7A0FBBDE838404F
:10570000FFF7BABF10B5044620B9BDE810400648FF
:10571000FFF762BB0548FFF75FFB2046FFF765FB1D
:10572000BDE81040FFF7A8BFC69A0008CB9A000852
:1057300010B504460648FFF74FFB2046FFF755FB20
:10574000FFF79AFFBDE810404FF4FA70FEF732BF42
:105750000499000810B504461448FFF73DFB601E8D
:105760000A280AD8DFE800F0060D0F1113151719E3
:105770001B1D1F000E48FFF72FFBBDE81040FFF771
:1057800081BF0C48F7E70C48F5E70C48F3E70C48F5
:10579000F1E70C48EFE70C48EDE70C48EBE70C4865
:1057A000E9E70C48E7E70C48E5E700BF2A9900085D
:1057B0003099000842990008569900086899000835
:1057C0007099000879990008849900089199000857
:1057D00099990008AC990008BE9900080148FFF7A4
:1057E000FBBA00BF2A9A00080148FFF7F5BA00BFCC
:1057F000E09900082DE9F0475A4C0322216B002064
:10580000FFF773FF94F836100120FFF763FF94F859
:1058100034100220FFF75EFF94F835100320FFF7E5
:1058200059FF94F848100420C1F38001FFF752FF9C
:1058300094F848100520C1F38011FFF74BFF94F94D
:1058400048100620C90FFFF745FF94F837100A20CB
:10585000FFF740FF0322A16B0B20FFF746FF032257
:10586000E16B0C20FFF741FF94F848100D2001F088
:105870000101FFF72FFF94F848101420C1F34011E5
:10588000FFF728FF94F848101520C1F3C001FFF777
:1058900021FF94F848101620C1F30011FFF71AFFFA
:1058A00094F849101720FFF715FF0322E16C182028
:1058B000FFF71BFF0322216D1920FFF716FFB4F835
:1058C00054101A20FFF706FF0322A16D1B20FFF7DB
:1058D0000CFF0022216C1E20FFF707FF0022616CE5
:1058E0001F20FFF702FF94F848102020C1F3400169
:1058F000FFF7F0FE0322E16D2820FFF7F6FE4FF0E0
:1059000000096425DFF860A02C4605F10308154E58
:105910005FFA89F75FFA88F8022F17D0032F1CD09F
:105920000322012F14BF3168F16820460134E4B22C
:10593000FFF7DBFE444506F10406EDD10A35EDB272
:105940008C2D09F10109DFD1BDE8F0875146B0691E
:10595000FBF7CCFA03220146E7E7716A3A4601F108
:105960000041E2E778340020000061451FB50B4894
:10597000FFF732FA0A4901A801F032FD01A8FFF74A
:1059800089FE3A2000F0D1FA064B5879FFF72DFA3C
:10599000FFF778FE05B05DF804FB00BF619A0008D0
:1059A000482E0020302E00202DE9FF410025234EF7
:1059B000234FDFF8A480ECB201A9204600F027FCB9
:1059C00050B92048FFF708FA0720FFF70EFAFFF753
:1059D00053FE04B0BDE8F0813046FFF7FDF9062C18
:1059E00007D0072C27D004F13600C0B2FFF7FDF92D
:1059F00002E03846FFF7F0F93A2000F096FA013558
:105A000001A8FFF747FEFFF73DFE082DD3D10E4852
:105A1000FFF7E2F90D48FFF73DFEFFF733FE0C48B4
:105A2000FFF7DAF90B4B586CFFF76EFAFFF72AFE17
:105A3000FFF79CFFCDE74046DCE700BF4C9A00082B
:105A40004F9A0008CB9A0008559A00089C32002013
:105A50005B9A000864320020529A000810B5454C49
:105A60004548FFF7B9F920788B2805D94348FFF757
:105A7000B3F920787630C0B2FFF7B7F94048FFF7A6
:105A8000ABF9A0793630C0B2FFF7AFF93C48FFF769
:105A9000A3F920791130C0B2FFF7A7F93848FFF712
:105AA0009BF9A078C0F11500C0B2FFF79EF9344809
:105AB000FFF792F9E0785A30C0B2FFF796F9304814
:105AC000FFF78AF96078C0F15E00C0B2FFF78DF988
:105AD000E3797BB12B48FFF77FF9E079032806D003
