:020000040800F2
:1000000000000220C9860008792F00087B2F000815
:100010007D2F00087F2F0008812F000800000000BE
:10002000000000000000000000000000832F000816
:10003000852F000800000000872F0008892F000886
:100040001987000819870008198700081987000810
:1000500019870008198700088D2F0008A92F0008AC
:10006000C52F0008E52F0008198700081987000828
:1000700019870008198700081987000819870008E0
:1000800019870008198700081987000819870008D0
:1000900019870008198700081987000819870008C0
:1000A00019870008198700081987000819870008B0
:1000B00019870008198700081987000819870008A0
:1000C0001987000819870008198700081987000890
:1000D00019870008053000081987000819870008EB
:1000E00025300008198700081987000819870008BB
:1000F0001987000819870008198700081987000860
:10010000198700081987000845300008198700087A
:10011000198700081987000819870008613000084E
:10012000198700081987000819870008198700082F
:10013000198700081987000819870008198700081F
:10014000198700081987000819870008198700080F
:1001500019870008198700081987000819870008FF
:1001600019870008198700081987000819870008EF
:100170001987000819870008198700080000000087
:08018000198700081987000827
:1001900010B5054C237833B9044B13B10448AFF3C1
:1001A00000800123237010BD940000200000000097
:1001B000B0AA000808B5034B1BB103490348AFF3CD
:1001C000008008BD0000000098000020B0AA0008D0
:1001D00001F0FF01102A2BDB10F0070F08D010F8F8
:1001E000013B013A8B422DD010F0070F42B3F6D1FC
:1001F000F0B441EA012141EA014122F007047FF015
:1002000000070023F0E80256083C85EA010586EA6B
:10021000010685FA47F5A3FA87F586FA47F6A5FAA7
:1002200087F68EB9EED1F0BC01F0FF0102F00702B3
:1002300032B110F8013B013A83EA010313B1F8D15E
:100240000020704701387047002D06BF354603383F
:10025000073815F0010F07D1013015F4807F02BF78
:10026000013015F4C03F0130F0BC0138704700BFC9
:1002700081F0004102E000BF83F0004330B54FEA57
:1002800041044FEA430594EA050F08BF90EA020FC4
:100290001FBF54EA000C55EA020C7FEA645C7FEA57
:1002A000655C00F0E2804FEA5454D4EB5555B8BF7A
:1002B0006D420CDD2C4480EA020281EA030382EAEB
:1002C000000083EA010180EA020281EA0303362D7D
:1002D00088BF30BD11F0004F4FEA01314FF4801C50
:1002E0004CEA113102D0404261EB410113F0004F62
:1002F0004FEA03334CEA133302D0524263EB430319
:1003000094EA050F00F0A780A4F10104D5F1200EB6
:100310000DDB02FA0EFC22FA05F2801841F1000111
:1003200003FA0EF2801843FA05F359410EE0A5F1E5
:1003300020050EF1200E012A03FA0EFC28BF4CF016
:10034000020C43FA05F3C01851EBE37101F00045CC
:1003500007D54FF0000EDCF1000C7EEB00006EEBD9
:100360000101B1F5801F1BD3B1F5001F0CD3490863
:100370005FEA30004FEA3C0C04F101044FEA4452BA
:1003800012F5800F80F09A80BCF1004F08BF5FEA41
:10039000500C50F1000041EB045141EA050130BD21
:1003A0005FEA4C0C404141EB010111F4801FA4F1C4
:1003B0000104E9D191F0000F04BF01460020B1FA19
:1003C00081F308BF2033A3F10B03B3F120020CDA51
:1003D0000C3208DD02F1140CC2F10C0201FA0CF02F
:1003E00021FA02F10CE002F11402D8BFC2F1200C94
:1003F00001FA02F120FA0CFCDCBF41EA0C0190404A
:10040000E41AA2BF01EB0451294330BD6FEA040492
:100410001F3C1CDA0C340EDC04F11404C4F120027D
:1004200020FA04F001FA02F340EA030021FA04F38F
:1004300045EA030130BDC4F10C04C4F1200220FAE6
:1004400002F001FA04F340EA0300294630BD21FA24
:1004500004F0294630BD94F0000F83F4801306BFEA
:1004600081F480110134013D4EE77FEA645C18BFDE
:100470007FEA655C29D094EA050F08BF90EA020F75
:1004800005D054EA000C04BF1946104630BD91EA6D
:10049000030F1EBF0021002030BD5FEA545C05D170
:1004A0004000494128BF41F0004130BD14F58004AF
:1004B0003CBF01F5801130BD01F0004545F0FE4123
:1004C00041F470014FF0000030BD7FEA645C1ABF58
:1004D000194610467FEA655C1CBF0B46024650EA8F
:1004E000013406BF52EA033591EA030F41F40021BB
:1004F00030BD00BF90F0000F04BF0021704730B541
:100500004FF4806404F132044FF000054FF0000115
:1005100050E700BF90F0000F04BF0021704730B5D6
:100520004FF4806404F1320410F0004548BF4042AB
:100530004FF000013EE700BF42004FEAE2014FEA00
:1005400031014FEA02701FBF12F07F4393F07F4FDB
:1005500081F06051704792F0000F14BF93F07F4F0D
:10056000704730B54FF4607401F0004521F0004150
:1005700020E700BF50EA010208BF704730B54FF0D6
:1005800000050AE050EA010208BF704730B511F0DB
:10059000004502D5404261EB41014FF4806404F113
:1005A00032045FEA915C3FF4DCAE4FF003025FEA95
:1005B000DC0C18BF03325FEADC0C18BF033202EB1D
:1005C000DC02C2F1200300FA03FC20FA02F001FA77
:1005D00003FE40EA0E0021FA02F11444C1E600BF16
:1005E00070B54FF0FF0C4CF4E06C1CEA11541DBFC9
:1005F0001CEA135594EA0C0F95EA0C0F00F0DEF894
:100600002C4481EA030621EA4C5123EA4C5350EA78
:10061000013518BF52EA033541F4801143F48013C9
:1006200038D0A0FB02CE4FF00005E1FB02E506F05A
:100630000042E0FB03E54FF00006E1FB03569CF0AF
:10064000000F18BF4EF0010EA4F1FF04B6F5007FB5
:1006500064F5407404D25FEA4E0E6D4146EB060627
:1006600042EAC62141EA55514FEAC52040EA5E50B0
:100670004FEACE2EB4F1FD0C88BFBCF5E06F1ED85A
:10068000BEF1004F08BF5FEA500E50F1000041EB91
:10069000045170BD06F0004646EA010140EA02003E
:1006A00081EA0301B4EB5C04C2BFD4EB0C0541EA60
:1006B000045170BD41F480114FF0000E013C00F375
:1006C000AB8014F1360FDEBF002001F0004170BD99
:1006D000C4F10004203C35DA0C341BDC04F11404B2
:1006E000C4F1200500FA05F320FA04F001FA05F23E
:1006F00040EA020001F0004221F0004110EBD3700B
:1007000021FA04F642EB06015EEA430E08BF20EA36
:10071000D37070BDC4F10C04C4F1200500FA04F3D9
:1007200020FA05F001FA04F240EA020001F000416B
:1007300010EBD37041F100015EEA430E08BF20EADE
:10074000D37070BDC4F1200500FA05F24EEA020E26
:1007500020FA04F301FA05F243EA020321FA04F055
:1007600001F0004121FA04F220EA020000EBD3700C
:100770005EEA430E08BF20EAD37070BD94F0000F0C
:100780000FD101F00046400041EB010111F4801F40
:1007900008BF013CF7D041EA060195F0000F18BFF1
:1007A000704703F00046520043EB030313F4801F2D
:1007B00008BF013DF7D043EA0603704794EA0C0FE7
:1007C0000CEA135518BF95EA0C0F0CD050EA4106FD
:1007D00018BF52EA4306D1D181EA030101F000417A
:1007E0004FF0000070BD50EA410606BF10461946A2
:1007F00052EA430619D094EA0C0F02D150EA0136AE
:1008000013D195EA0C0F05D152EA03361CBF1046EE
:1008100019460AD181EA030101F0004141F0FE418D
:1008200041F470014FF0000070BD41F0FE4141F411
:10083000780170BD70B54FF0FF0C4CF4E06C1CEA11
:1008400011541DBF1CEA135594EA0C0F95EA0C0FC6
:1008500000F0A7F8A4EB050481EA030E52EA033581
:100860004FEA013100F088804FEA03334FF08055A2
:1008700045EA131343EA12634FEA022245EA1115CF
:1008800045EA10654FEA00260EF000419D4208BF80
:10089000964244F1FD0404F5407402D25B084FEA2D
:1008A0003202B61A65EB03055B084FEA32024FF4D9
:1008B00080104FF4002CB6EB020E75EB030E22BF36
:1008C000B61A754640EA0C005B084FEA3202B6EBF6
:1008D000020E75EB030E22BFB61A754640EA5C00A5
:1008E0005B084FEA3202B6EB020E75EB030E22BF35
:1008F000B61A754640EA9C005B084FEA3202B6EB36
:10090000020E75EB030E22BFB61A754640EADC00F4
:1009100055EA060E18D04FEA051545EA16754FEA56
:1009200006164FEAC30343EA52734FEAC2025FEA74
:100930001C1CC0D111F4801F0BD141EA00014FF003
:1009400000004FF0004CB6E711F4801F04BF0143D4
:100950000020B4F1FD0C88BFBCF5E06F3FF6AFAEF0
:10096000B5EB030C04BFB6EB020C5FEA500C50F180
:10097000000041EB045170BD0EF0004E4EEA113103
:1009800014EB5C04C2BFD4EB0C0541EA045170BD0A
:1009900041F480114FF0000E013C90E645EA060E4E
:1009A0008DE60CEA135594EA0C0F08BF95EA0C0F7C
:1009B0003FF43BAF94EA0C0F0AD150EA01347FF4C4
:1009C00034AF95EA0C0F7FF425AF104619462CE79B
:1009D00095EA0C0F06D152EA03353FF4FDAE1046FE
:1009E000194622E750EA410618BF52EA43067FF44F
:1009F000C5AE50EA41047FF40DAF52EA43057FF4DF
:100A0000EBAE12E74FF0FF3C06E000BF4FF0010CE9
:100A100002E000BF4FF0010C4DF804CD4FEA410C4D
:100A20007FEA6C5C4FEA430C18BF7FEA6C5C1BD01A
:100A300001B050EA410C0CBF52EA430C91EA030F9B
:100A400002BF90EA020F0020704710F1000F91EAF8
:100A5000030F58BF994208BF90422CBFD8176FEAC6
:100A6000E37040F0010070474FEA410C7FEA6C5C94
:100A700002D150EA013C07D14FEA430C7FEA6C5C9B
:100A8000D6D152EA033CD3D05DF8040B704700BFC7
:100A90008446104662468C461946634600E000BF15
:100AA00001B5FFF7B7FF002848BF10F1000F01BDE7
:100AB0004DF808EDFFF7F4FF0CBF012000205DF8B2
:100AC00008FB00BF4DF808EDFFF7EAFF34BF012037
:100AD00000205DF808FB00BF4DF808EDFFF7E0FFD0
:100AE00094BF012000205DF808FB00BF4DF808ED21
:100AF000FFF7CEFF94BF012000205DF808FB00BF88
:100B00004DF808EDFFF7C4FF34BF012000205DF869
:100B100008FB00BF4FEA410C7FEA6C5C02D150EA4F
:100B2000013C0AD14FEA430C7FEA6C5C02D152EAE5
:100B3000033C02D14FF0000070474FF001007047B6
:100B40004FEA410212F5001215D211D56FF47873F5
:100B5000B3EB625212D94FEAC12343F0004343EA98
:100B6000505311F0004F23FA02F018BF4042704773
:100B70004FF00000704750EA013005D111F00040FD
:100B800008BF6FF0004070474FF00000704700BF93
:100B90004A0011D212F5001211D20DD56FF47873FC
:100BA000B3EB62520ED44FEAC12343F0004343EA51
:100BB000505323FA02F070474FF00000704750EA9C
:100BC000013002D14FF0FF3070474FF00000704706
:100BD0004FEA4102B2F1E04324BFB3F5001CDCF15F
:100BE000FE5C0DD901F0004C4FEAC0024CEA507097
:100BF000B2F1004F40EB830008BF20F001007047C6
:100C000011F0804F21D113F13872BCBF01F00040C8
:100C1000704741F480114FEA5252C2F11802C2F1FA
:100C2000200C10FA0CF320FA02F018BF40F001007B
:100C30004FEAC1234FEAD32303FA0CFC40EA0C002D
:100C400023FA02F34FEA4303CCE77FEA625307D16A
:100C500050EA01331EBF4FF0FE4040F440007047A1
:100C600001F0004040F0FE4040F40000704700BF3B
:100C700053B94AB9002908BF00281CBF4FF0FF3103
:100C80004FF0FF3000F07AB9ADF1080C6DE904CEF9
:100C900000F006F8DDF804E0DDE9022304B0704757
:100CA0002DE9F0478C460D460446089E002B51D195
:100CB0008A4217466DD9B2FA82FEBEF1000F0BD000
:100CC000CEF1200C01FA0EF520FA0CFC02FA0EF718
:100CD0004CEA050C00FA0EF44FEA174A250CBCFB4F
:100CE000FAF81FFA87F90AFB18CC45EA0C4508FB0D
:100CF00009F3AB420AD9ED1908F1FF3280F02381E4
:100D0000AB4240F22081A8F102083D44ED1AA4B2A2
:100D1000B5FBFAF00AFB105544EA054400FB09F95B
:100D2000A14509D9E41900F1FF3380F00A81A145FA
:100D300040F2078102383C44A4EB090440EA084031
:100D40000021002E61D024FA0EF400233460736079
:100D5000BDE8F0878B4207D9002E54D0002186E8E9
:100D600021000846BDE8F087B3FA83F1002940F07E
:100D70008E80AB4202D3824200F2FA80841A65EB85
:100D800003050120AC46002E3FD086E81010BDE8D8
:100D9000F08712B90127B7FBF2F7B7FA87FEBEF169
:100DA000000F34D1EB1B3A0C1FFA87FC0121B3FB77
:100DB000F2F8250C02FB183345EA03450CFB08F357
:100DC000AB4207D9ED1908F1FF3002D2AB4200F275
:100DD000D1808046ED1AA3B2B5FBF2F002FB1055AC
:100DE00043EA05440CFB00FCA44507D9E41900F1D3
:100DF000FF3302D2A44500F2B8801846A4EB0C04DD
:100E000040EA08409DE731463046BDE8F087CEF124
:100E1000200405FA0EF307FA0EF720FA04F83A0C4C
:100E200025FA04F448EA0308B4FBF2F14FEA184546
:100E300002FB11441FFA87FC45EA044501FB0CF351
:100E4000AB4200FA0EF409D9ED1901F1FF3080F040
:100E50008A80AB4240F2878002393D44EB1A1FFA88
:100E600088F5B3FBF2F002FB103345EA034500FBC3
:100E70000CF3AB4207D9ED1900F1FF386FD2AB424A
:100E80006DD902383D44EB1A40EA01418FE7C1F1C8
:100E9000200722FA07F88B4005FA01F448EA030319
:100EA00020FA07FE4FEA134CFD404EEA040EB5FB54
:100EB000FCF94FEA1E440CFB19551FFA83F844EA6B
:100EC000054509FB08F4AC4202FA01F200FA01FA06
:100ED00008D9ED1809F1FF3043D2AC4241D9A9F14C
:100EE00002091D442D1B1FFA8EFEB5FBFCF00CFB06
:100EF00010554EEA054400FB08F8A04507D9E41850
:100F000000F1FF3529D2A04527D902381C4440EA18
:100F10000940A4EB0804A0FB02894C45C6464D4697
:100F200015D312D056B1BAEB0E0364EB050404FAE4
:100F300007F7CB401F43CC40376074600021BDE809
:100F4000F0871846F8E69046E0E6C245EAD2B8EBEC
:100F5000020E69EB03050138E4E72846D7E740466F
:100F600091E78146BEE7014678E702383C4445E711
:100F7000084608E7A8F102083D442BE7704700BF88
:100F800038B50E4A0E4B054618784FF47A73B3FB0A
:100F9000F0F31068B0FBF3F000F0AAF8044658B97B
:100FA0000F2D09D8024629464FF0FF3000F05EF8B9
:100FB000044B20461D6038BD012038BD08000020CC
:100FC000000000200400002008B50B4B1A6842F412
:100FD00000721A601A6842F480621A601A6842F459
:100FE00080721A60032000F02FF80020FFF7C8FF7E
:100FF00001F0A6FF002008BD003C0240034A044B5C
:1010000011681B780B441360704700BFCC38002078
:1010100000000020014B1868704700BFCC3800204A
:1010200038B50446FFF7F6FF631C1CBF054B1B7861
:10103000054618BFE418FFF7EDFF401B8442FAD8BD
:1010400038BD00BF00000020074AD36823F4E063E6
:101050001B041B0C43F0BF63000243F4003300F495
:10106000E0600343D360704700ED00E0174B30B5FC
:10107000DC68C4F30224C4F10703251D042B28BF38
:101080000423062D4FF0010505FA03F303F1FF33A6
:101090008CBF033C00241940A14005FA04F4013C34
:1010A0002240002842EA01024FEA0212ADBF00F1DD
:1010B000604000F00F00064B00F56140B5BFD2B2B2
:1010C000D2B21A5480F8002330BD00BF00ED00E01A
:1010D00014ED00E0002808DB4209012300F01F00A6
:1010E00003FA00F0014B43F82200704700E100E0F2
:1010F0000138B0F1807F0AD2064B074A5860F021D0
:1011000082F823100020072298601A60704701209F
:10111000704700BF10E000E000ED00E0002809DBB0
:101120004309012200F01F0002FA00F06033024A76
:1011300042F82300704700BF00E100E0084910B505
:101140000C6924F440740C610C6944F440740C6123
:101150000C6944F001040C610260436010BD00BFE3
:10116000003C0240074B1A6922F440721A611A6966
:1011700042F400721A611A6942F001021A610160B8
:10118000704700BF003C0240074B1A6922F44072CE
:101190001A611A6942F480721A611A6942F00102F6
:1011A0001A610180704700BF003C02401A4BDA68A8
:1011B000D20606D51949CA6942F01002CA61102246
:1011C000DA60DA68900606D51449CA6942F0080266
:1011D000CA612022DA60104BDA68510606D50F4941
:1011E000CA6942F00402CA614022DA60DA68120673
:1011F00006D50A49CA6942F00202CA618022DA6051
:10120000054AD3689B0706D50449CB6943F0200300
:10121000CB610223D3607047003C0240D0380020ED
:10122000064B1A69002ABFBF054A5A6002F188328C
:101230005A60BABF1869C00F00207047003C0240D6
:1012400023016745034A136943F0004313610020FB
:10125000704700BF003C0240F8B5124B124C002210
:101260000546DA61FFF7D6FE26460746E368DA034D
:101270000CD4E368DB0744BF0123E360F06810F09F
:10128000F20002D0FFF792FF0120F8BD691CEDD0FB
:101290000DB90320F8BDFFF7BDFEC01B8542E5D2A6
:1012A000F7E700BFD0380020003C02402DE9F041B4
:1012B000204D98462B7E012B07460E46144635D00E
:1012C00001234CF250302B76FFF7C6FFB0B9CFB9EF
:1012D000194B1A6922F440721A611A691A611A6963
:1012E000E4B242F001021A6134704CF25030FFF760
:1012F000B3FF114A136923F00103136100232B7616
:10130000BDE8F081012F04D1A1B23046FFF73CFFC8
:10131000EBE7022F04D121463046FFF723FFE4E735
:10132000224643463046FFF709FFDEE70220BDE8CC
:10133000F08100BFD0380020003C024039B10129C3
:101340001CD002290CBF4FF400714FF440710D4BBB
:101350001A6922F440721A611A69114319611A69F3
:1013600022F0F8021A611A6942F0020242EAC00051
:1013700018611A6942F480321A6170474FF4807123
:10138000E5E700BF003C02402DE9F04F85B00B6857
:10139000DFF8AC81684ADFF8AC91019300234FF08D
:1013A000010E019C0EFA03FE0EEA0406B64540F05B
:1013B000AE804C6824F01007022F16D14FEAD30AF2
:1013C00000EB8A0A03F0070BDAF820504FEA8B0B88
:1013D0004FF00F0C0CFA0BFC25EA0C0C0D6905FA0A
:1013E0000BF545EA0C05CAF820504FEA430A0325DD
:1013F000D0F800B005FA0AF5ED4304F0030C0BEA4F
:10140000050B0CFA0AFC013F4CEA0B0C012FC0F84B
:1014100000C011D8876807EA050BCF6807FA0AFCF5
:101420004CEA0B078760476827EA0E0EC4F30017E3
:101430009F4047EA0E074760C7683D408F6807FA3C
:101440000AF73D43C560E50061D54FF0000BCDF8CC
:101450000CB0D8F84470394D47F48047C8F8447050
:10146000D8F8447007F480470397039F23F00307DD
:1014700007F1804707F59C3703F0030CD7F808A065
:101480004FEA8C0C4FF00F0E0EFA0CFEA8422AEA1F
:101490000E0E43D005F58065A84241D005F5806564
:1014A000A8423FD005F58065A8423DD005F580658E
:1014B000A8423BD048453BD005F50065A84239D04D
:1014C00005F58065A84214BF0825072505FA0CF527
:1014D00045EA0E05BD601568F74314F4803F0CBF64
:1014E0003D4035431560556814F4003F0CBF3D4046
:1014F00035435560956814F4801F0CBF3D4035435B
:101500009560D568A40254BF3D403543D560013392
:10151000102B7FF444AF05B0BDE8F08F5D46D5E7F2
:101520000125D3E70225D1E70325CFE70425CDE741
:101530000525CBE70625C9E7003C01400000024035
:1015400000380240001402400AB18161704709046A
:10155000FBE7704708B5044B5969014202D0586156
:10156000FFF7F7FF08BD00BF003C014070B504461F
:1015700008B9012070BD90F83D3003F0FF021BB99F
:1015800080F83C2001F0FEFA2268242384F83D30E4
:10159000136823F00103136000F0D6FA6568414B2D
:1015A0009D424DD8404B9842E3D922683F49536849
:1015B000B0FBF1F123F03F030B435360136A23F0B8
:1015C0003F03013119431162D169364B21F44F4178
:1015D0009D4221F0FF0100F1FF3048D86D00B0FBC3
:1015E000F5F00130C0F30B03042B38BF04230B4389
:1015F000D3611168206AE36921F0C00103430B4302
:1016000013609168E068236921F40341034321F0EA
:10161000FF010B439360D168A069636921F0FF016A
:1016200003430B43D360136843F0010313600020AE
:101630002023206484F83D30206384F83E0070BD90
:101640001B4B984295D92268184E5368B0FBF6F6AA
:1016500023F03F0333435360136A4FF49671714391
:1016600023F03F034FF47A76B1FBF6F1A9E7A368C4
:1016700053B905EB4503B0FBF3F0431CC3F30B0375
:101680006BB143F40043B2E719236B43B0FBF3F0B3
:10169000431CC3F30B0313B143F44043A7E70123F7
:1016A000A5E700BFA08601007F841E0040420F0016
:1016B000FF083D002DE9F341044618B9012002B0AE
:1016C000BDE8F0810368DD0710D42368980758D47B
:1016D00023681A0700F19A8023685B0700F1B8803D
:1016E000A269002A40F019810020E8E7A64B9A6819
:1016F00002F00C02042A07D09A6802F00C02082AB1
:101700000AD15B68590207D59F4B1B689A03DCD549
:101710006368002BD9D1D1E763689B4DB3F5803F57
:1017200011D12B6843F480332B60FFF773FC964D87
:1017300006462B689B03C8D4FFF76CFC801B64280B
:10174000F7D90320BBE7B3F5A02F04D12B6843F4EE
:1017500080232B60E5E72A6822F480322A602A6819
:1017600022F480222A60002BDFD1FFF753FC0646CB
:101770002B689F03A9D5FFF74DFC801B6428F7D980
:10178000DFE7814B9A6812F00C0F07D09A6802F0DD
:101790000C02082A11D15B685E020ED47A4B1A68DB
:1017A000950702D5E268012A88D11A68216922F0DA
:1017B000F80242EAC1021A608AE7E268734BB2B1EA
:1017C00001221A60FFF726FC6F4D06462B6898072A
:1017D00007D52B68226923F0F80343EAC2032B6084
:1017E00076E7FFF717FC801B0228EFD9A9E71A60FC
:1017F000FFF710FC644D06462B6899077FF568AF2C
:10180000FFF708FC801B0228F6D99AE76269604B53
:101810007AB101221A60FFF7FDFB5B4D06466B6F44
:101820009F073FF559AFFFF7F5FB801B0228F6D95C
:1018300087E71A60FFF7EEFB534D06466B6F98077C
:101840007FF54AAFFFF7E6FB801B0228F6D978E761
:101850004D4B1A6C12F0805228D101921A6C42F052
:1018600080521A641B6C03F080530193019B012684
:10187000484D2B68D9051BD5A368434D012B27D1B3
:101880002B6F43F001032B67FFF7C4FB3E4D074668
:1018900041F288382B6F9B0739D5002E3FF420AFDB
:1018A000394A136C23F08053136419E70026DFE7ED
:1018B0002B6843F480732B60FFF7ACFB07462B6863
:1018C000DA05D9D4FFF7A6FBC01B0228F7D938E701
:1018D000052B04D12B6F43F004032B67D0E72A6F4D
:1018E00022F001022A672A6F22F004022A67002BE5
:1018F000CAD1FFF78FFB41F2883807462B6F980754
:10190000CBD5FFF787FBC01B4045F7D919E7FFF799
:1019100081FBC01B4045BDD913E71B4DAB6803F0ED
:101920000C03082B3FF4CAAE1B4E0023022A33607F
:1019300034D1FFF76FFB07462B6899011ED4226A4A
:10194000E3691343626A43EA8213E26A43EA026389
:10195000A26A0D4C5208013A43EA02436B6001232C
:101960003360FFF757FB054623689A013FF5BCAE8D
:10197000FFF750FB401B0228F6D9E2E6FFF74AFBCF
:10198000C01B0228D8D9DCE60038024000004742DC
:10199000800E47420070004060004742FFF73AFB6C
:1019A00004462B689B017FF59FAEFFF733FB001BBE
:1019B0000228F6D9C5E600BF134908B58B6803F0C5
:1019C0000C03042B03D0082B03D0104808BD10488B
:1019D00008BD4A684B68496813F4800314BF0C487B
:1019E0000A48C1F3881118BF002302F03F02A1FB8F
:1019F0000001FFF73DF9044B5B68C3F3014301337A
:101A00005B00B0FBF3F008BD003802400024F40096
:101A1000001BB7002DE9F0410D46044610B9012026
:101A2000BDE8F081444B1A6802F00F028A4228D3C5
:101A300021688F072DD4C80740D43F4B1A6802F0A5
:101A40000F02954266D3226851076CD4130707D55D
:101A50003A4A2169936823F4604343EAC1039360DF
:101A6000FFF7AAFF354B364A9B68C3F30313D35CD9
:101A7000D840344B18600020FFF782FA0020BDE800
:101A8000F081CAB21A701B6803F00F039942C6D1E5
:101A9000CEE72A4B11F0040F1EBF9A6842F4E052C1
:101AA0009A600E0742BF9A6842F460429A609A6850
:101AB000A06822F0F00202439A60BCE762681F4B04
:101AC000012A1DD11B6813F4003FA8D01B4EB36838
:101AD00023F003031343B360FFF79CFA41F2883805
:101AE0000746B368626803F00C03B3EB820FA4D01F
:101AF000FFF790FAC01B4045F3D90320BDE8F08101
:101B0000911E01291B6802D813F0007FDDE713F056
:101B1000020FDAE7EAB21A701B6803F00F039D4266
:101B20007FF47DAF8FE70549E0688B6823F4E053CD
:101B300003438B608AE700BF003C0240003802404C
:101B4000C8AA000808000020044B054A9B68C3F39C
:101B50008223D35C034A1068D840704700380240A3
:101B6000D8AA000808000020044B054A9B68C3F36C
:101B70004233D35C034A1068D840704700380240B3
:101B8000D8AA000808000020F8B504460E461546FD
:101B90001F4621688A6836EA020301D00020F8BD9A
:101BA0006B1CF7D0FFF736FAC01B8542F1D82368CB
:101BB0005A6822F0E0025A606268B2F5827F0AD168
:101BC000A268B2F5004F02D0B2F5806F03D11A6857
:101BD00022F040021A60A26AB2F5005F07D11A68CB
:101BE00022F400521A601A6842F400521A6001236B
:101BF00084F85130002384F850300320F8BD38B504
:101C000013464268B2F5827F04461FD18268B2F55E
:101C1000004F02D0B2F5806F07D125682868B2F571
:101C2000806F20F04000286007D00A4680212046BF
:101C3000FFF7AAFF20B9002038BD0A460121F6E7C8
:101C4000636D43F020036365032038BD0A4601211C
:101C5000EEE7000073B51346134A144E1568426848
:101C6000B5FBF6F64FF47A757543B2F5827F0446FC
:101C700001950DD10A468021FFF786FF10B900209B
:101C800002B070BD636D43F0200363650320F7E786
:101C9000019B002BF3D0019B013B019323689B68C0
:101CA0001B06F5D4EBE700BF0800002000366E01EC
:101CB00010B50446002836D00023836290F85130D6
:101CC00003F0FF021BB980F8502001F0EDF8216805
:101CD000A068A269022384F851300B6823F0400306
:101CE0000B6063680343E068034320690343606952
:101CF0000343E0690343206A0343A06A034302F4F9
:101D0000007003430B60120C636A02F004021A4372
:101D10004A60CB6923F40063CB6100200123606536
:101D200084F8513010BD012010BD2DE9F3411E464D
:101D300090F85030012B04460D46904600F09B80F1
:101D4000012380F85030FFF765F9074694F85100F9
:101D5000C0B2012840F08D80002D5DD0B8F1000F99
:101D60005AD0032384F851300020A3686065A06333
:101D7000A4F83680A087E08760642064206825632B
:101D8000B3F5004F08BF0368A4F8348004BF43F4E0
:101D90008043036003685B065EBF036843F0400353
:101DA0000360E368B3F5006F63683ED113B1B8F127
:101DB000010F07D135F8023BC3602563E38E013B79
:101DC0009BB2E386E38E9BB2A3B93A4631462046E6
:101DD000FFF740FF002849D1A36833B90193236876
:101DE000DA6801929B680193019B606D003018BF17
:101DF000012011E022689368980705D5236B33F81A
:101E0000021BD1602363D9E7FFF704F9C01BB0427E
:101E1000D8D3711CD6D00320012384F8513000237D
:101E200084F8503002B0BDE8F08113B1B8F1010F71
:101E300008D12B780373236B01332363E38E013BBB
:101E40009BB2E386E38E9BB2002BBED023689A68D8
:101E5000920703D5226B12781A73ECE7FFF7DAF8D2
:101E6000C01B8642EED8731CECD0D4E720236365F8
:101E7000B2E70220D0E70220D4E72DE9F7431E465F
:101E800090F850300A9F012B04460D46914600F011
:101E9000E280012380F85030FFF7BCF894F851300D
:101EA0006168DBB2012B80460AD0B1F5827F40F039
:101EB000D080A068002840F0CC80042B40F0C9807E
:101EC000002D00F0C480B9F1000F00F0C080002E9A
:101ED00000F0BD8094F85130C4F83890042B1CBF3A
:101EE000052384F851300023636523646364236809
:101EF000E687E6861A68A687500658BF1A682563E3
:101F000058BF42F04002A68658BF1A60E268B2F598
:101F1000006F58D109B1012E07D135F8022BDA60D4
:101F2000E38E2563013B9BB2E3860125E38E9BB2E2
:101F3000ABB9E38F9BB293B9424639462046FFF7CF
:101F400089FE002840F08180A368002B32D12368ED
:101F50000190DA6801929B680193019B2AE0226854
:101F6000936899070DD5E38E9BB253B14DB1236BA6
:101F700033F8021BD1602363E38E013B9BB2E386FF
:101F800000259368DB070CD5E38F9BB24BB1A36BA5
:101F9000D26823F8022BA363E38F013B9BB2E38754
:101FA0000125FFF737F8A0EB08008742BED87E1C5A
:101FB000BCD00320012384F85130002384F8503032
:101FC00003B0BDE8F08309B1012E08D12A781A7355
:101FD000236B01332363E38E013B9BB2E386012530
:101FE000E38E9BB21BB9E38F9BB2002BA4D0226877
:101FF000936898070ED5E38E9BB25BB155B1236B06
:102000001B781373236B01332363E38E013B9BB275
:10201000E386002522689368D9070DD5E38F9BB22C
:1020200053B1A36BD2681A70A36B0133A363E38F20
:10203000013B9BB2E3870125FEF7ECFFA0EB080014
:102040008742CDD87B1CCBD0B3E72023636501202A
:10205000B0E70220AEE70220B2E72DE9F3411D46CA
:102060004368B3F5827F0446884617460CD18368DF
:1020700053B9042380F85130134600950A46FFF700
:10208000FCFE02B0BDE8F08194F85030012B79D00D
:10209000012384F85030FEF7BDFF064694F8510046
:1020A000C0B201286CD1B8F1000F57D0002F55D025
:1020B000042384F85130002363652363E787A386F4
:1020C000E38623646364A368A787B3F5004F23689E
:1020D000C4F8388002BF1A6822F480421A601A6875
:1020E00057065EBF1A6842F040021A60E368F3B117
:1020F000E38F9BB2FBB123689A68D20735D5DA68C3
:10210000A36B23F8022BA363E38F013B9BB2E3870E
:10211000EEE723689A68D00718D5A26B1B7B137073
:10212000A36B0133A363E38F013B9BB2E387E38F90
:102130009BB2002BEDD1324629462046FFF75FFDCA
:10214000D8B9606D003018BF012007E0FEF762FFCC
:10215000801B8542EBD8691CE9D00320012384F859
:102160005130002384F850308BE7FEF753FF801B7B
:102170008542BDD86B1CBBD0EFE720236365E0E749
:102180000220EBE702207CE72DE9F0470668C268F1
:102190003369C16923F440531343336104468368B0
:1021A0000069F2680343606922F41642034322F097
:1021B0000C020B431343F3607369A26923F4407369
:1021C0001343B1F5004F73617A4B7CD19E4203D02B
:1021D00003F580639E4244D1FFF7C6FC192505FB39
:1021E00000F360684FF064094000B3FBF0F3B3FB09
:1021F000F9F34FEA0318FFF7B7FC636868435B0025
:10220000B0FBF3F7FFF7B0FC636868435B00B0FB1B
:10221000F3F3B3FBF9F309FB1373DB003233B3FBC6
:10222000F9F35B0003F4F877FFF79EFC62686843FC
:102230005200B0FBF2FAFFF797FC636868435B005B
:10224000B0FBF3F3B3FBF9F309FB13A3DB00323369
:10225000B3FBF9F303F0070343443B44B360BDE829
:10226000F087FFF771FC192505FB00F360684FF05C
:1022700064094000B3FBF0F3B3FBF9F34FEA031832
:10228000FFF762FC636868435B00B0FBF3F7FFF79E
:102290005BFC636868435B00B0FBF3F3B3FBF9F3EB
:1022A00009FB1373DB003233B3FBF9F35B0003F478
:1022B000F877FFF749FC626868435200B0FBF2FA16
:1022C000FFF742FCB9E79E4202D03B4B9E4240D111
:1022D000FFF74AFC676819254FF0640905FB00F316
:1022E000BF00B3FBF7F3B3FBF9F31F01FFF73CFCAF
:1022F000636868439B00B0FBF3F8FFF735FC636845
:1023000068439B00B0FBF3F3B3FBF9F309FB1383C2
:102310001B013233B3FBF9F303F0F008FFF724FCA1
:10232000626868439200B0FBF2FAFFF71DFC636835
:1023300068439B00B0FBF3F3B3FBF9F309FB13A372
:102340001B013233B3FBF9F303F00F0343EA080335
:1023500083E7FFF7F9FB676819254FF0640905FB70
:1023600000F3BF00B3FBF7F3B3FBF9F31F01FFF773
:10237000EBFB636868439B00B0FBF3F8FFF7E4FBFB
:10238000636868439B00B0FBF3F3B3FBF9F309FB0D
:1023900013831B013233B3FBF9F303F0F008FFF7AB
:1023A000D3FB626868439200B0FBF2FAFFF7CCFB04
:1023B000BDE700BF001001400014014010B5044605
:1023C00060B390F8393003F0FF021BB980F8382071
:1023D00001F09CF92268242384F83930D36823F46F
:1023E0000053D3602046FFF7CFFE23681A6922F41A
:1023F00090421A615A6922F022025A615A6942F0E7
:1024000008025A61DA6842F40052DA6000202023A0
:10241000E06384F8393084F83A3010BD012010BDF3
:102420002DE9F0430A6892FAA2F44FF0010EB4FAD3
:1024300084F403250F2732FA04F30DD14B68013BD6
:10244000012B06D84368C96823EA02034A431A43AA
:1024500042600020BDE8F0830EFA04F3134069D017
:10246000D1F80480D0F8009093FAA3FCBCFA8CFC5D
:1024700093FAA3F6B6FA86F64FEA4C0C05FA0CFC72
:10248000760029EA0C0C08FA06F64CEA0606066005
:1024900008F1FF36012E16D8866893FAA3FCBCFA21
:1024A0008CFC93FAA3F94FEA4C0C05FA0CFC26EAD3
:1024B0000C0CB9FA89F98E684FEA490906FA09F64F
:1024C0004CEA06068660C66893FAA3FCBCFA8CFC4C
:1024D00093FAA3F94FEA4C0C05FA0CFC26EA0C0C13
:1024E000B9FA89F90E694FEA490906FA09F64CEA80
:1024F0000606B8F1020FC6601CD193FAA3F6B6FA2D
:1025000086F6072ED1F814C016DCD0F8208093FA96
:10251000A3F6B6FA86F693FAA3F3B3FA83F3B600FA
:1025200007FA06F69B0028EA06060CFA03FC46EAC0
:102530000C06066201347EE7D0F824801B0A93FA69
:10254000A3F6B6FA86F693FAA3F3B3FA83F3B600CA
:1025500007FA06F69B0028EA06060CFA03F3334353
:102560004362E7E7034B044A9B68C3F30313D35C5E
:10257000D840704700380240C8AA0008034B044AFC
:102580009B68C3F38223D35CD84070470038024075
:10259000D8AA0008034B044A9B68C3F34233D35CB8
:1025A000D840704700380240D8AA00080F4B104AA4
:1025B000596810B50F4C01F48001002908BF22466C
:1025C000082810D1596858685B68C3F30143C0F309
:1025D0008810013301F03F015B00B2FBF1F2504380
:1025E000B0FBF3F010BD002010BD00BF003802406A
:1025F000001BB7000024F400064B986800F00C00A4
:10260000042803D0082803D00348704703487047C4
:10261000FFF7CCBF003802400024F400001BB700D5
:1026200010B50446FFF7E8FF2060FFF79BFF6060EE
:10263000FFF7A4FFA0606068FFF7ACFFE06010BD8B
:102640002F4A0368904212D0B0F1804F0FD0A2F50C
:102650007C4290420BD002F58062904207D002F596
:102660008062904203D002F57842904219D14A68C4
:1026700023F070031343224A904229D0B0F1804FD7
:1026800026D0A2F57C42904222D002F58062904290
:102690001ED002F5806290421AD002F57842904234
:1026A00016D0184A904213D002F5806290420FD0A3
:1026B00002F5806290420BD0A2F59832904207D08A
:1026C00002F58062904203D002F58062904203D10D
:1026D000CA6823F44073134303608B68C3620B889A
:1026E0008362074B984203D003F58063984201D17F
:1026F0000B7C0363436943F001034361002070478F
:102700000000014000400140102930B566D003D8D8
:1027100001292FD0012030BDB1F5807F00F09480D9
:10272000B1F5805FF6D1036A156823F48053036224
:10273000036A4468C16921F4E64141EA052115694B
:1027400023F4005343EA0533556823F4805343EAE6
:102750000533584DA84203D005F58065A84204D141
:10276000956924F4804444EA8514D2684460C161C8
:10277000026430E0036A156823F001030362036A10
:102780004168846924F073042C43156923F0020323
:102790002B43556823F001032B43464DA84203D039
:1027A00005F58065A84212D1556923F0080343EA74
:1027B0008503956823F0040343EA8503956921F4B2
:1027C00080712943D56921F4007141EA4501D2683D
:1027D0004160846142630362002030BD036A156872
:1027E00023F010030362036A4168846924F4E64419
:1027F00044EA0524156923F0200343EA05135568CC
:1028000023F0100343EA05132A4DA84203D005F52F
:102810008065A84213D1556923F0800343EA8513EC
:10282000956823F0400343EA8513956921F480619C
:1028300041EA8501D56921F4006141EAC501D26808
:10284000416084618263C6E7036A156823F480737C
:102850000362036A4168C46924F073042C43156958
:1028600023F4007343EA0523556823F4807343EA95
:102870000523104DA84203D005F58065A84213D169
:10288000556923F4006343EA8523956823F4806344
:1028900043EA8523956921F4805141EA0511D56900
:1028A00021F4005141EA4511D2684160C461C2631C
:1028B00091E700BF000001408A680B7B13434A6820
:1028C00023F4806313430A6823F400631343CA8923
:1028D00023F4805313430A6923F4005313434A69D2
:1028E00023F44043134343640020704730B5C3686A
:1028F0009B0485B004460D4602D5012005B030BDCD
:102900004B68C968C2680B4329690B43A96922F463
:1029100016420B4322F00C021343C3600369AA68FA
:1029200023F440531343036143696A6923F44073FA
:10293000134343616846FFF773FE274B9C4225D142
:10294000039B002BD9D029680029D6D0AA69B2F5FB
:10295000004F4FF019022ED15A434900B2FBF1F259
:102960006421B2FBF1F001FB1023DB003233B3FB37
:10297000F1F39BB203F007025B0002EB001203F4D9
:10298000F87313449BB2A3600020B7E7134B9C423B
:1029900001D1029BD5E7124B9C42FAD003F54C4380
:1029A0009C42CDD0A3F548439C42F2D003F580630E
:1029B0009C42A2D1EDE7534364228900B3FBF1F3BB
:1029C000B3FBF2F102FB11331B013233B3FBF2F321
:1029D00003EB0113D6E700BF0010014000440040A4
:1029E000004800402DE9F0478CB01422002107A8D0
:1029F00006F09FF900244E4B01941A6B4D4FDFF8FF
:102A00003CA1DFF83C9142F010021A631A6B02F00D
:102A100010020192019A02941A6B42F080021A632A
:102A20001A6B02F080020292029A03941A6B42F02F
:102A300001021A631A6B02F001020392039A0494D2
:102A40001A6B42F002021A631A6B02F0020204923D
:102A5000049A05941A6B42F008021A631A6B02F08A
:102A600008020592059A06941A6B42F004021A6352
:102A70001B6B03F004030693224638461F21069B76
:102A8000FEF762FD2246504641F6FF71FEF75CFDFF
:102A90002246484640F6FF71FEF756FD01250F23FA
:102AA000032607A9384607934FF0100808950994A4
:102AB0000A96FEF769FC07A93846CDF81C800895F0
:102AC00009940A94FEF760FC41F6FF7307A950468B
:102AD0000793A7F54067089509940A96FEF754FCFA
:102AE00040F20F43079307A9134B08933846099503
:102AF000FEF74AFC40F6FF7307A94846079308957E
:102B000009940A96FEF740FC07A93846CDF81C80C8
:102B100008940995FEF738FC224621462820FEF746
:102B2000A5FA2820FEF7D6FA0CB0BDE8F08700BF62
:102B30000038024000100240000021100000024056
:102B4000000C024008B50C480C4BDFF834E04FF4A1
:102B5000804280E8084000238360C36002614361D3
:102B60008361C3610362FEF701FD18B1BDE808404F
:102B700000F076B908BD00BFF038002000540040D6
:102B8000A086010030B5044689B01422002103A8B4
:102B900006F0CFF82268154B9A4224D1144C154800
:102BA00000250195236B43F002032363236B03F09D
:102BB00002030193019B4FF4407303931223049388
:102BC000012305930323069303A904230793FEF728
:102BD000DBFB0295236C43F400132364236C03F4A2
:102BE00000130293029B09B030BD00BF00540040A7
:102BF000003802400004024030B595B03022002178
:102C000008A806F096F80021142203A806F091F80F
:102C100000241D4B01941A6C42F080521A641B6C04
:102C200003F080530193019B184B02941A6842F4FD
:102C300080421A601B6803F480430293029B0123C5
:102C400008934FF4803309934FF480030F930623C6
:102C50001093A8230225119308A8042313930E951B
:102C60001295FEF727FD0F2303934FF4A05306930D
:102C700005214FF4805303A8049505940793FEF7AC
:102C8000C9FE15B030BD00BF0038024000700040E2
:102C90002DE9F041FEF798F9FFF7AEFFFFF7A2FE2E
:102CA00000F0BEFB00F0AAFA00F05CFB00F0DCFCD8
:102CB00000F04AFCFFF746FF00F0D4F800F0B8FC43
:102CC00000F080FC404B414FDB68414B414E0024FB
:102CD000202283F8254321465A6006202246FEF72B
:102CE000C5F90620FEF7F6F9224621460720FEF731
:102CF000BDF90720FEF7EEF9224621460820FEF72F
:102D0000B5F90820FEF7E6F9224621460920FEF72C
:102D1000ADF90920FEF7DEF905F00AFE05F038FEF0
:102D200000F0B8FD04F018F804F038FB04F0B8FE29
:102D300005F048FA18222146274805F0FAFF274AED
:102D4000224B92F878201C7012F0100F1C461CBF0A
:102D500001232370002514220021384694F80080B6
:102D600005F0E7FF182200216423304623726372C6
:102D7000A37284F8008005F0DCFF194B1D70194B1D
:102D80001D70194B1D70194B1D70194B1D7004F0EF
:102D900073F800F0E1FD04F033FB00F009FD05F0ED
:102DA00089FF01F033FE02F0E1FF05F056FD02F06D
:102DB00021FC04F02FFE02F0B5FE00F0E3FD03F06D
:102DC000FDFB03F0A1FAC6E700ED00E04839002062
:102DD00000E100E060390020783900207C440020C8
:102DE0005E3900205D3900209039002044390020F0
:102DF0005C390020194B1A6A42F001021A621A6A01
:102E000042F010021A621A6A42F480721A621A6A56
:102E100042F480521A625A6C42F400425A641A68B0
:102E200042F001021A60A3F57C431A6A42F00102E3
:102E30001A621A6A42F010021A621A6A42F4807226
:102E40001A621A6A42F480521A625A6C42F40042C0
:102E50005A641A6842F001021A607047000001408B
:102E60007047000008B50E480E4B4FF4827E4FF4B9
:102E7000007280E8084000238360C36003614361FF
:102E8000826103623022436283620A23C261C362A9
:102E9000FEF70EFF18B1BDE80840FFF7E1BF08BD1F
:102EA00094390020003C0040F0B5044689B014225B
:102EB000002103A805F03DFF22681E4B9A4237D13E
:102EC00003F5FE33002400941A6C1B4842F40042C0
:102ED0001A641A6C02F400420092009A01941A6B70
:102EE00042F004021A631A6B02F004020192019A82
:102EF00002941A6B42F002021A631B6B03F0020386
:102F00000293029B02274FF440630326062503A980
:102F10000393049706960795FEF736FA202303A934
:102F2000064803930497059406960795FEF72CFA36
:102F300009B0F0BD003C004000080240000402401F
:102F400082B00C4B002100915A6C42F480425A64CA
:102F50005A6C02F480420092009A01911A6C42F07D
:102F600080521A641B6C03F080530193019B02B0E2
:102F7000704700BF003802407047FEE7FEE7FEE7FB
:102F8000FEE7704770477047FEF738B808B5012074
:102F9000FEF7E0FA012005F02FF9024B4022C3F8BA
:102FA000802108BD00E100E008B50220FEF7D2FA5A
:102FB000022005F021F9024B8022C3F8802108BDD0
:102FC00000E100E008B50420FEF7C4FA042005F093
:102FD00013F9034B4FF48072C3F8802108BD00BF82
:102FE00000E100E008B50820FEF7B4FA082005F07B
:102FF00003F9034B4FF40072C3F8802108BD00BFF2
:1030000000E100E010B5064CE3689B0606D5606859
:10301000C0B203F0BDFE6FF02003236010BD00BFFF
:103020000010014008B54FF48060FEF793FA044B9E
:103030004FF48072C3F88421BDE8084001F018BD48
:1030400000E100E0054B1A69D20706D56FF00102D6
:103050001A6100225A6204F04FBB7047000C004016
:103060000A4B1A69D2070FD56FF001021A610022CC
:103070005A62074B4FF40002C3F88420BFF34F8F0E
:10308000BFF36F8F04F07ABC704700BF001400409C
:1030900000E100E008B50A4B1968024609B9094980
:1030A00019601868694602448A4206D905F008FE8C
:1030B0000C2303604FF0FF3008BD1A6008BD00BF4D
:1030C000B0000020C04500200F49D1F8883043F4FB
:1030D0007003C1F888300D4B1A68002042F00102DD
:1030E0001A6098601A6822F0847222F480321A60A2
:1030F000074A5A601A6822F480221A60D8604FF09A
:1031000000638B60704700BF00ED00E000380240B4
:1031100010300024012910B519D0042919D0102924
:1031200019D0402919D0B1F5807F18D0B1F5806F42
:103130000CBF052306230B4A0B4CD15CE45C183012
:1031400004230A58A34022EA03030B5010BD0023B6
:10315000F1E70123EFE70223EDE70323EBE7042385
:10316000E9E700BFE0AA0008E7AA0008012910B5B6
:1031700018D0042918D0102918D0402918D0B1F53A
:10318000807F17D0B1F5806F0CBF052306230A4A54
:103190000A4CD25CE45C183008231158A3400B435E
:1031A000135010BD0023F2E70123F0E70223EEE7FE
:1031B0000323ECE70423EAE7E0AA0008E7AA0008F3
:1031C000054B1A6B02431A631B6B82B018400190C7
:1031D000019B02B0704700BF00380240054B1A6CDB
:1031E00002431A641B6C82B018400190019B02B02C
:1031F000704700BF003802400020704730B59BB0D8
:103200001422002101A805F094FD18242022002199
:1032100012A805F08EFD22460DEB0400002105F0FA
:1032200088FD224600210CA805F083FD4A4B4B4C3B
:103230005A6C42F001025A645B6C03F00103009384
:10324000009BA723ADF8043001A944F61F63204674
:103250000393FFF7F5F9236823F080032360A36845
:1032600023F4804323F00703A36020460121FFF7E6
:103270007DFF6023002512AA1293012140F2DB5347
:10328000204615931395149516951795189519952D
:10329000FFF73AFA20460121FFF73CFF20461021B4
:1032A000FFF764FF12AA1021204613951495FFF72B
:1032B0002BFA20461021FFF72DFF20464FF4807196
:1032C000FFF754FF12AA4FF480712046139514950E
:1032D000FFF71AFA20464FF48071FFF71BFF2046D4
:1032E0004FF48051FFF742FF12AA4FF4805120465D
:1032F00013951495FFF708FA20464FF48051FFF715
:1033000009FF636823F070036360A36823F0800300
:10331000A36006A94FF4005320460A93069507952B
:1033200008958DF82450ADF826500B95FFF7C4FA98
:103330001020FFF745FF4FF4D4430C9302230D9365
:103340000CA9012306480E950F9510951193FFF7D0
:1033500067F81BB030BD00BF0038024000000140DC
:103360000010024030B595B01422002101A805F0EC
:10337000E0FC202200210CA805F0DBFC18220DEB5C
:10338000020000214FF0804405F0D3FC012000250D
:10339000FFF724FF42F2CF0301A94FF080400393CF
:1033A000ADF8045002950495FFF74AF9236823F01D
:1033B00080032360A36823F4804323F00703A36002
:1033C00020460121FFF7D2FE0CAA602301212046EE
:1033D0000C930D950E950F951095FFF795F901211A
:1033E0002046FFF797FE636823F070036360A368CD
:1033F00023F08003A3600120FFF7E2FE4FF40043B7
:1034000006930223079306A901230448089509950A
:103410000A950B93FFF704F815B030BD0000024089
:1034200030B595B01422002101A805F082FC2022BD
:1034300000210CA805F07DFC18220DEB02000021F4
:103440003F4C05F076FC0220FFF7C8FE5323002511
:10345000ADF8043001A944F61F632046039302959A
:103460000495FFF7EDF8236823F080032360A36839
:1034700023F4804323F00703A36020460121FFF7D4
:1034800075FE60230CAA0C93012140F2DC53204608
:103490000F930D950E951095FFF736F920460121F3
:1034A000FFF738FE20461021FFF760FE0CAA10211E
:1034B00020460D950E95FFF727F920461021FFF7BE
:1034C00029FE20464FF48071FFF750FE0CAA4FF4FE
:1034D000807120460D950E95FFF716F920464FF4A2
:1034E0008071FFF717FE20464FF48051FFF73EFE34
:1034F0000CAA4FF4805120460D950E95FFF704F964
:103500004FF480512046FFF705FE636823F07003F7
:103510006360A36823F08003A3600420FFF750FEDC
:103520004FF47073069306A9022306480793089583
:1035300009950A950B93FEF773FF15B030BD00BFD8
:10354000000400400008024010B586B0142200219B
:1035500001A805F0EEFB0820FFF740FE164B174CC4
:10356000D868C0F30220FFF747FE154B00014FF467
:103570008022C0B283F8320301A95A60204600239A
:10358000ADF80430029303930493FFF759F82368CE
:1035900023F080032360A36823F4804323F0070310
:1035A000A360636823F070036360A36823F0800363
:1035B000A36006B010BD00BF00ED00E0000C0040AD
:1035C00000E100E010B586B01422002101A805F04A
:1035D000B0FB2020FFF702FE124B134CD868C0F35B
:1035E0000220FFF709FE114B00014FF40002C0B2A8
:1035F00083F8370301A95A6020460023ADF8043050
:1036000002930393FFF71CF8236823F080032360E1
:10361000636823F070036360A36823F08003A360F2
:1036200006B010BD00ED00E00014004000E100E035
:1036300008B50B480B4B4FF4E13E80E808400C22E4
:1036400000238360C360036142618361C361FEF74D
:10365000B5FE18B1BDE80840FFF702BC08BD00BFC9
:10366000EC3900200050004010B590B01C22002121
:1036700009A805F05EFB1822002103A805F059FBFC
:103680001F4B204C5A6C204842F010025A645A6C6E
:1036900002F010020292029A1A6B42F002021A63BE
:1036A0001B6B03F002030193019BC02303930223CE
:1036B0000493032305930123079303A90723089386
:1036C000FEF7AEFE4FF4612309930C22002309A9F3
:1036D00020460A930B930C930E930F930D92FFF7D2
:1036E00005F9236923F490432361636923F02A03D6
:1036F0006361E36843F40053E36010B010BD00BFA2
:1037000000380240001001400004024010B5044699
:1037100088B01422002103A805F00BFB2268154B8A
:103720009A4225D103F5F433002101911A6C124815
:1037300042F480121A641A6C02F480120192019A07
:1037400002911A6B42F004021A631B6B03F004032C
:103750000293029B4FF4805303931223049301239B
:1037600005930323069303A908230793FDF70CFE93
:1037700008B010BD0050004000080240044B5869DA
:103780005B69C0F3C0105B0648BF40F002007047A1
:10379000000C024010B5054C8021204605F018F9B8
:1037A00020464021BDE8104005F012B9000C02404F
:1037B000FFF7F0BF38B50B4C6278054622B920B947
:1037C000FFF7E8FF0023237338BD420603D58021AD
:1037D000054805F000F92B06F4D54021024805F014
:1037E000FAF8EFE748390020000C024010B5064B0C
:1037F0001B78022B044606D002F018FE2046BDE8D6
:103800001040FFF7D7BF10BD483900202DE9F04127
:103810001A4C1B4DDFF878801A4FFDF701FDF3239A
:10382000E36002210620FDF789FD4CF25030FDF7E0
:1038300013FD236923F0FA0323614FF6FF7635F871
:103840000820114BB2422B4416D0FC182946002305
:103850000120FDF72BFD23461A88B24204D0002335
:10386000A91C0120FDF722FD084B04359D42E6D13D
:10387000BDE8F041FDF7E6BC3B44EDE7003C02400B
:10388000000004082C3A00200200FCF7000804089D
:103890002C3AFC170C4A0D4B30B50D4C104603F179
:1038A00077411D7801F57C010133A3425554F6D1CF
:1038B00013780A2B06D00023FF22C2540133B3F53C
:1038C000006FFAD130BD00BF2C3A00200000040880
:1038D00000080408014B185C704700BF2C3A002018
:1038E000014B1954704700BF2C3A0020F0B40B4C28
:1038F000451E25448F180023B94204D12044835427
:10390000F0BCFFF783BF3BB9DB0911F8016B05F889
:10391000016F3344DBB2EFE70123F6E72C3A0020D6
:10392000F0B50C4C4D1E254487180023B84205D134
:103930002144885CC31A58425841F0BD15F8016F04
:103940002BB9DB093344DBB200F8016BEEE701234E
:10395000F8E700BF2C3A002008B500216C22074888
:1039600005F0E7F90649002003F084FB20B90720A1
:10397000BDE8084002F0B6BD08BD00BF2C420020E3
:10398000644200200149024804F09CBC78390020C0
:103990004C420020000000002DE9F04F2DED028B7D
:1039A000642297B081460021B14805F0C2F9B14BBD
:1039B000B14A03F1080598461C4603CCAC4210609E
:1039C0005160234602F10802F6D120681060A37905
:1039D000A1889180937199F80030242B4FF0000A50
:1039E00040F0C287A24A012382F802A0537003224A
:1039F0008DF82F209A460024DFEDA08A9C4E069475
:103A00000494254627469DF82F2019F802B0BBF1F3
:103A1000000F23D115B1002F08BF0227A60605D538
:103A2000934B1A6B964B9A4200F38387BAF1000FBF
:103A300000F0F881E00740F185878D4EF378012B87
:103A400040F0FD813069FCF777FD87A3D3E90023BF
:103A5000FCF7C6FDFDF7BCF83061F0E1ABF14103C6
:103A600007939DF81C10192900F2518701328DF837
:103A70002F200DF12F010CAA484601F0DDFB002894
:103A800000F048879DED0C8A18EE100AFCF754FDF3
:103A900041EC100B05F008FF51EC100BFDF778F826
:103AA000C2B207EE902AF8EEE77A089278EE677ACB
:103AB00067EEA87A17EE900AFCF73EFD41EC100B7A
:103AC00005F0ACFE51EC100BFDF762F8BBF1470FAF
:103AD00080B2089A22D0BBF14D0F00F0D780079B2F
:103AE000192B28D8DFE813F022013A014001270002
:103AF00046014A01270027004E0156015E0166017A
:103B000027006A0127007001740178017C0180019F
:103B10002700270027008C0192019801282A00F035
:103B200098801DD8132A08D8112A6FD2042A58D099
:103B300011D30A2A50D014246EE01C2A4CD006D887
:103B4000152AF8D8C2F11502F270062361E01E2A88
:103B500042D0262AEFD1002F40F0DF8602271EE058
:103B60003D2A71D015D8352A3BD00CD82B2A01D04C
:103B7000312AE0D1002F40F0D086312A5ED1B771D2
:103B8000082303273AE03B2AD5D8363AF2710923B5
:103B90003FE05B2A17D85A2A44D2502ACBD1262A92
:103BA00072705AD1A0F114039BB21E2BC3D8354AB0
:103BB00022FA03F3DA07BED50A22B0FBF2F0763818
:103BC000707001231AE05C2A06D05E2AB3D8C2F1D5
:103BD0005E02B27005231CE018B9002F40F09D86EC
:103BE000012702F0FD031C2B327001D05C2A32D178
:103BF00008B10A289FD1104430700023012202FA34
:103C000003F3069A1A422AD0152405E0113A72717C
:103C100002230028F2D01724204617B0BDEC028BF7
:103C2000BDE8F08F18B95A3A32710323E6E70A2843
:103C300081D15A2A3FF47FAF0423DFE70A287FF4BB
:103C40007AAF0123B3719BE700287FF474AF0A2396
:103C5000D4E70723DDE70023DBE70123D9E7069A52
:103C60001A430692CFE600BF66666666666639400E
:103C7000984200202C420020994200200000C842B7
:103C8000809698000104104000007F430028C2D1B4
:103C9000092A14D8072A35D2022A26D9052A3FF63E
:103CA0004AAF042A2AD0052A2AD01023B3720C2343
:103CB000012202FA03F3069A1A42D1D0A4E73F2A5E
:103CC0002CD008D81E2A13D03E2A7FF434AF01230B
:103CD00033730F23ECE7432A22D0642A23D0422AED
:103CE0007FF429AF01237373F3E71AB1012A03D0DC
:103CF000327201E0032333720B23D9E72023D5E787
:103D00000023D3E7082A05D0092A05D0802373723F
:103D10000D23CDE74023FAE70023F8E70223D7E796
:103D20000123B373D5E70123F373D2E786ED148A39
:103D300045F008050D2301229A40144240F0F38516
:103D400040F2613141FA03F3DB0705D5B5EEC08AD5
:103D5000F1EE10FA00F1EA85144354E686ED158A77
:103D600045F010050E23E6E786ED168A45F020059E
:103D70000F23E0E786F85C201023DCE786ED048A59
:103D80000023D8E7049B86ED058A43F001030493E2
:103D90000123D0E7049B86ED068A43F002030493D7
:103DA0000223C8E7049B86ED078A43F004030493CB
:103DB0000323C0E786F82C200423BCE7FDEEC87A75
:103DC0000523C6ED0C7AB6E786ED0D8A0623B2E729
:103DD00086ED188A1123AEE786ED0E8A0723AAE73F
:103DE00086ED0F8A0823A6E75FED597AB4EEE78ADD
:103DF000F1EE10FA00F3948586F8402009239AE743
:103E000086ED118A45F001050A2394E786ED128AB2
:103E100045F002050B238EE786ED138A45F0040575
:103E20000C2388E7B24EB378012B16D1022F06D1AE
:103E30007378502B03D013B1E10740F1838514F45C
:103E4000807FAB4E04BFD8F81030F3633378042B77
:103E500010D163060CD41C24DEE698F80130002B48
:103E6000EDD1E2073FF5EAADD8F814303361E6E76B
:103E700024F040047379002B3BD0012B0CBF0123AD
:103E8000002309930CBF0023022308930CBF0223D5
:103E900001230793F378012B30D0032F05D1B37999
:103EA000012B02D1042D40F04785DFF85CE2BEE82B
:103EB0000F0010AE0FC69EE80300069B13F4007FB0
:103EC00086E803008A4E36D131780A2943D05C292E
:103ED00000F01C81032F40F04A811E2900F08A81E6
:103EE000352900F0A3811C2940F03B81814906203F
:103EF00082E10222099201220892CAE7DFF804B2A5
:103F00004FF0000945FA09F3D8070CD5DBF800009B
:103F1000FCF712FB74A3D3E90023FCF761FBFCF769
:103F200057FECBF8000009F10109B9F1060F0BF1BA
:103F3000040BE7D1B1E7F079062801D91D246BE61F
:103F400098F806308342BFD010A903F093F80028F8
:103F5000BAD1072460E60DB91A245DE614F0500FBB
:103F60003FF479AF706BFCF7E7FA41EC100B05F00A
:103F70009BFC51EC100BFCF70BFEC0B20628DDD801
:103F800096F82C30142B05D0022B7FF4D4AD2106EB
:103F90003FF5D1AD24F05004002800F09C8001389A
:103FA0005FFA80FB5349584603F064F80028D0D0EC
:103FB000514B504996F82C0093ED1A7A0022203389
:103FC000A1F1140645FA02FE1EF0010F14D01428C8
:103FD00040F08480D3ED0C6AD3ED007A77EEE67A78
:103FE000D1ED0C6A77EEE67A022AC1ED007A03D1B0
:103FF00077EEC77AC6ED077A0132062A01F104018D
:1040000003F10403DED13A4A5378502B914640F035
:104010001381002D40F093841AF001020ABF24F4AA
:10402000487424F0210424F001040FB124F47C44EA
:104030002F4E337B23B163067FF50DAF24F0400490
:10404000737B43B12D4B2340002B3FF404AF24F48A
:10405000003424F05004B37B2BB114F4403F3FF400
:10406000FAAE24F44034F37B43B1254B2340002BBC
:104070003FF4F1AE24F4003424F04004002C40F06E
:104080006D840D940E940F94002A00F05882069BC4
:1040900033F0490340F065843378352B02D0002B90
:1040A00040F05F84144D12492B690E932A7A6B7A83
:1040B0000DA813438DF83C3000F064FC0446002842
:1040C0007FF4AAAD0F4E0FCE20350FC596E8030042
:1040D00085E80300A0E596F807B063E7D1F830E083
:1040E000C1F800E088E700BF66666666666639402C
:1040F00098420020AC4200202C42002050000200D8
:1041000040000200DC42002064420020002D3FF409
:1041100023AFCB4BCB4893ED1A7A00212033A0F18B
:10412000440645FA01F2D2071ED510AA02EB81021D
:10413000D2ED006AD3ED007A77EEE67AD0ED006A30
:1041400077EEE67A0229C0ED007A03D177EEC77ADE
:10415000C6ED137A0131062903F1040300F10400CE
:10416000DFD14FF0000B4EE71A6B0260F2E7002D33
:104170003FF4B3AEB24AB34B96F804C092ED1A7A4C
:1041800000202032A3F1440645FA00FE1EF0010F84
:104190000BD1D2F800E0C3F800E00130062802F1AC
:1041A000040203F10403EFD197E63529F5D0BCF101
:1041B000000F16D10DF1400E0EEB800ED2ED0C6A01
:1041C000DEED007A77EEA67AD3ED006A77EEA67A76
:1041D0000228C3ED007AE0D177EE877AC6ED137A34
:1041E000DBE7D3ED007AD2ED006A77EEA67AC3ED75
:1041F000007AD2E79449072002F03CFF00283FF400
:10420000A8AE15B9AB462F46FDE690498E4A00236D
:1042100045FA03F0C0075CBF086810600133062B45
:1042200001F1040102F10402F2D19AE7884B5B78B4
:10423000012B96D91E24EFE4022F7FF4EDAE1BB9BB
:10424000002D08BF0027E7E6D2ED047AF5EE407AAC
:10425000F1EE10FA00F076838C2B10D007D8022BE9
:104260001ED0032B1ED0012B7FF4D6AEE8E78E2B99
:1042700005D002D38F2B7FF4CFAE4AF0100A7233F1
:10428000DBB2012B98BF4AF0080A002D3FF464AE60
:1042900018226C496D4804F03DFD002836D0BBE67D
:1042A0004AF0040A002D3FF457AE079A08990123FB
:1042B00003FA02F28B4013431D4200F0468360482C
:1042C000079A0799624E09EB820200EB8101D1ED5A
:1042D000087AD2ED118A0899089A00EB810109EB5E
:1042E000820278EEE78A92ED118AD1ED087A14F015
:1042F000800838EE678A00F0AF80182206F144018A
:10430000203024F0800404F005FD08B9212483E462
:1043100099F80330012B0CD1D9F83800FCF70CF9CF
:1043200045A3D3E90023FCF75BF9FCF751FCC9F87E
:104330003800B06BFCF700F9002280468946454BF7
:10434000FCF74EF942464B46FCF74AF968EEA87A6C
:10435000804617EE900A8946FCF7EEF802460B46B7
:1043600040464946FBF788FF68EE087A804617EE1C
:10437000900A8946FCF7E0F802460B46404649465B
:10438000FBF77AFFFCF724FC07EE900AF5EEC07A03
:10439000F1EE10FA00F1DC82FCF7CEF841EC100BE4
:1043A00005F07AFB53EC102BF0EE480AB0EE680AE9
:1043B000CDE9042301F006F8DDE9042310EE100A2C
:1043C000904603F10049FCF7B7F802460B46404619
:1043D0004946FCF72FFAFCF7FBFB7378079A032B8F
:1043E0001B4B93ED0E7A07EE900AB5EEC07A08BF2C
:1043F000F1EE677AF1EE10FA42BFB1EE477AF1EED4
:10440000677A83ED0E7AB0EE687AA7EEC87A03EB8E
:104410008202F6EE006AA7EEA88A27EE267A28EE38
:10442000268A82ED057A089A03EB820383ED058ADA
:10443000F2E500BFAFF300806666666666663940E7
:104440002C420020DC420020AC4200204C420020E4
:104450009842002000001040049A134200F07B8232
:1044600099F80330012B24F00E044CD0089B03F183
:104470000409079B03F1040806EB890906EB880889
:10448000D9ED010A98ED010A78EE600A38EEC00A0B
:1044900000F098FFD9ED010AB0EE408A98ED010ACC
:1044A00000F090FF38EE408A86ED0E0AB0EEC88A22
:1044B00018EE100AF0EE408AFCF73EF8E2A3D3E9CA
:1044C000002380468946FCF71BFB00283FF4A4AD7F
:1044D000F6EE007AB4EEE78AF1EE10FA3FF716AF87
:1044E00018EE900AFCF728F8D9A3D3E90023FCF7CB
:1044F00077F802460B4640464946FCF701FB002888
:104500007FF404AF88E506F11409049B43FA08F32D
:10451000DA070CD5D9F80000FCF70EF8CEA3D3E9E2
:104520000023FCF75DF8FCF753FBC9F8000008F125
:104530000108B8F1060F09F10409E6D196E7B84B76
:10454000B84C93F8783013F0020F0DD07378013B1C
:10455000022B88BF4AF0400A002D00F0FF80022F96
:1045600040F0FC804AF0800A336BE361B3786370FB
:1045700013B108238DF83C3096ED0F0AD4ED047A80
:1045800033696361F4EE407AF1EE10FA0D930AF0AC
:10459000400502D11AF0200F0BD0607A38B11AF022
:1045A000800F04D10DB19FEDA00A02F0FFFFF36B65
:1045B00023610DB923690E9396F840302376B07AC3
:1045C000637A834205D09DED0E0A02F0EFFFB37AC5
:1045D00063729DF83C30627A707A13438DF83C30F8
:1045E000237A834206D0FFF701F9737A002B40F05B
:1045F000C98023729DF83C30227A13438DF83C30F9
:104600003378042B03D196ED0D0A00F041FD737948
:104610002371032FF378A37011D1B37963710BB9B0
:104620000023F364D6ED137A94ED1A7AB4EE677A28
:10463000F1EE10FA03D0C4ED1A7A03F029FEF379F3
:10464000A2799A420CD00DF1400EA371BEE80F0082
:10465000764D0FC59EE8030085E8030003F018FEC1
:104660003379E3703378262B00F0C88000F28D8018
:104670001C2B00F0A9801E2B00F0A6800A2B00F056
:104680008E8073782370502B10D0022F0ED1012B07
:1046900040F0E6800DA9664800F05AFB644F654D76
:1046A0000FCF0FC597E8030085E80300337AE37165
:1046B00083B101F0BBFEE379032B5F4B40F0028135
:1046C0001B78022B04D0082003F024FE01F03CFDEF
:1046D0000023E371347B74B1706BFBF72DFF41EC69
:1046E000100B05F0E1F851EC100BFCF751FA2146E4
:1046F000C0B204F04BF8737B8BB1706BFBF71CFFFF
:1047000041EC100B05F0D0F851EC100BFCF740FA1F
:1047100096F82C40494A2146C0B204F0C9F8B37B50
:1047200023B1464996F85C0004F0A1F8F47B002C14
:104730003FF472AA706BFBF7FFFE41EC100B05F023
:10474000B3F851EC100BFCF723FA3C49C0B202F06D
:10475000E3FD002400F04EFFFFF75EBA637A102BF2
:104760007FF402AF2378013B022B0AF0400305D807
:10477000002B3FF4F9AE4AF0200AF5E6002B7FF457
:10478000F3AEF8E7227A134333E75C2B3BD0662B7A
:104790003DD0282B7FF475AF2649072030E028490B
:1047A000584602F089FBA3795B457FF46AAF1F4D41
:1047B000DFF88CE0BEE80F000FC59EE8030085E837
:1047C000030003F065FD5CE79DF83C3043F0010316
:1047D0008DF83C301FB10DA9154800F0B9FA0DA9AC
:1047E0001748144D00F0B4FADFF854E0BEE80F00AB
:1047F0000FC59EE8030085E8030042E70D49062047
:1048000002F05AFB3DE70F4DDFF824E0D2E7182213
:1048100000210C4804F08DFAD3E700BFAFF300800D
:104820007C4400202C420020000000006442002054
:10483000DC4200204C42002048390020F842002091
:10484000AC4200207C4200207B14AE47E17A743FEA
:10485000FCA9F1D24D62503F6666666666663940D5
:1048600033B99DF83C3043F001038DF83C3011E73B
:10487000023B012B12D8CAF380030393099B0293D6
:10488000089B0193079B0093394B96ED0E0A394A1A
:104890000DA903F1300000F08FFAFFE69DF83C30DF
:1048A000354843F0040352460DA98DF83C3000F022
:1048B00031FC00283FF4F2AE01287FF4F7AEFFF799
:1048C00061F8F3E60122227064221A725A729A7217
:1048D0001B780025022B2571E5706570A571657246
:1048E000257210D02549284602F0C4FB00283FF469
:1048F00030AB03F0CDFC28469FED210A02F01EFEEE
:104900002846FEF757FF082001F014FEE0E60124D8
:10491000FFF782B90224FFF77FB91824FFF77CB9AB
:104920002624FFF779B91924FFF776B90424FFF795
:1049300073B91B24FFF770B92524FFF76DB91F2445
:10494000FFF76AB91624FFF767B92024FFF764B9A7
:104950002224FFF761B92324FFF75EB92424FFF76F
:104960005BB91024FFF758B98DF82FA0FFF743B8B3
:10497000AC4200204C420020DC4200206442002077
:104980000000000038B50B690360037A43F00403AC
:104990000372124B93F8783013F0200F054601F1A3
:1049A000440410D129460E4D204600F0D1F92C7850
:1049B00084B900F04FFE68B120232B7003F0B4F8E7
:1049C00002F00EFE07E0204603F08AFC0028E9D042
:1049D0000F2400E00024204638BD00BF7C440020A6
:1049E00048390020044B4FF48072C3F88420BFF391
:1049F0004F8FBFF36F8F704700E100E0024B4FF421
:104A000080725A6004F042B800E100E0044B93F871
:104A100078301B0701D4FFF7E5BFFFF7EFBF00BFFA
:104A20007C44002038B504F00BF90F4A92F8782046
:104A3000520603465CBF80F480639BB28BB10022B8
:104A40000A491046012431F812502B421CBF04FAC7
:104A500002F5284302F1010218BFC0B2062AF2D1C2
:104A600038BD184638BD00BF7C440020F8AC0008B3
:104A700008B5094B1B78012B0CD0084B1B784BB9A0
:104A8000FFF7D0FF30B100F0ADFB0120BDE80840DA
:104A900003F0E4BD08BD00BF483900209039002074
:104AA0002DE9F04F2DED028B914F7E788FB080462F
:104AB000002E40F0BD800623DFF848A29FED8D8ACE
:104AC000DFF844B20496029603968DF810300DF18B
:104AD00014093BF8163029F8163048FA06F3D907BE
:104AE00019D5DAF80000FBF727FD00224FF040430C
:104AF000FBF776FD04460D4618EE100AFBF71CFD89
:104B000022462B46FBF7FCFF28B920462946FCF736
:104B10005FF808EE100A0136062E0AF1040AD8D111
:104B2000754D0423D5ED208A01930126734908A809
:104B300003F0C8FB002295F879E008A811469246D8
:104B4000F1EE487A48FA01FC1CF0010F16D06B4BCD
:104B50004EFA01FC013200241CF0010FD2B243F8DE
:104B6000214003D026B1C0ED007A03E0002EFAD038
:104B700080ED008A39F811C04AEA0C0A0131062991
:104B800000F10400DED107EE902AB8EE670A04F0C7
:104B9000DFFF28EE800A02A908A88DED020AA7F817
:104BA00006A000F031FE04223A7102F0BDFF02F0CF
:104BB00017FDDFF858B19EB1FFF734FF002239F836
:104BC000121011EA0A0F06D040FA02FE1EF0010F81
:104BD00018BF2AEA010A0132062AF0D1A7F806A076
:104BE00002F0A2FF9BF8002012F0340F76D09BF861
:104BF00000B05FFA8BFB1BF0100F02D0062003F011
:104C00002DFD1BF0200F02D0072003F027FD002E02
:104C100069D1FFF707FF18EA000F02D0082003F060
:104C20001DFD374B1B7843B100F0DCFA01F08CFA24
:104C30000FB0BDEC028BBDE8F08F042003F004FD43
:104C400002F0E8FEB5F8840000F0B2FB019BD5ED60
:104C50001F7A95ED228AD5ED208A96F0010618BFBD
:104C6000B1EE047A03F1FF341CBF28EE078AF0EEA0
:104C7000678A14F0FF0301937FF458AF1E4EDFF8EC
:104C80007C901C4648FA04F3DA071FD595F8793072
:104C90002341DB0747BFD6ED127A95ED227AD6ED98
:104CA000007A95ED227A45BF77EE877A96ED007A05
:104CB00067EE677A67EE877A17EE900AFBF73CFC9F
:104CC00041EC100B04F064FD49F824000134062C7B
:104CD00006F10406D6D100233B71A9E71AF4FC5F64
:104CE0007FF469AFACE71BF0040F9AD0092096E778
:104CF00048390020000000007C4400207839002062
:104D000090390020C444002004AD00085D39002023
:104D100010B503F0E5FAC0B10C4C20780122082848
:104D2000E27008D000F05EFA022003F097FCBDE8C4
:104D3000104001F009BA03F0EDFA01F005FA6378CA
:104D40001BB92378002BF8D1ECE710BD48390020BF
:104D5000F8B5174C174E94F8782012F0200F07463C
:104D60000D4604D03378202B01D0FFF7D1FF3378E4
:104D7000022B1CD001F0E8F97378C3B900F098FC5D
:104D800010B101F023F8F5E72946384600F03CFD64
:104D900068B994F878309A0709D52B7ADB0606D5DE
:104DA00095ED010A1020BDE8F84002F0FFBBF8BD08
:104DB0007C440020483900202DE9F04F2DED0A8B6E
:104DC00087B00C469DF868109DF870B09DF874800F
:104DD000890016460A4492ED00AA02929DF86C20C2
:104DE0009200054603EB010AB0189F18DAED009A0D
:104DF00097ED008AD0ED00AA039029442A4439EEA9
:104E00008AAA78EE2AAA91ED007AD2ED007A37EEDE
:104E10004A7A77EEEA7AB1EE488A68EE270AB0EE6F
:104E200040BA27EE480AF1EE699AE9EE870AA9EE40
:104E3000A70A04F08BFEB0EE409A10EE100AB8F10B
:104E4000000F5AD0FBF778FB8FA3D3E900238046ED
:104E50008946FBF74BFE50B183A3D3E900234046BC
:104E60004946FBF709FAFBF7B3FE09EE100A824B3D
:104E7000D3ED1B7AF0EE008AB0EE670A9BEE280AAB
:104E800020EE270A04F064FE19EE100A8DED010AE7
:104E9000FBF752FB0022794BFBF7A2FB80461BEE8F
:104EA000100A8946FBF748FB02460B464046494636
:104EB000FBF796FB9DED010A804610EE100A21F0EB
:104EC0000049FBF739FB0B46024649464046FBF7D3
:104ED000B1FC41EC100B04F0D7FB51EC100BFBF7CD
:104EE00057FE83B20193DBB92146284607B0BDECDB
:104EF0000A8BBDE8F04FFFF72BBFFBF71DFB58A354
:104F0000D3E9002380468946FBF7E6FD0028AED0B2
:104F100055A3D3E9002340464946FBF7AFF9A2E782
:104F2000237ADDED017A13F0080FF8EEE77A08D066
:104F300094ED007A27EE277A23F0080384ED007AB7
:104F4000237289EE27BA4FEA8B0B06EB0B09AB44B1
:104F50004FF00108D9ED006A9BED007A37EE667AD2
:104F60001BEE100AC7EE27BAFBF7E6FA40A3D3E917
:104F70000023FBF735FBCDE904014FF0000BEBEE0E
:104F80004B8A18EE900AFBF7D7FA00223C4BFBF74E
:104F900075F902460B46DDE90401FBF721FBFBF73F
:104FA00017FEF6EE007A0CEE100A68EEA78A019B57
:104FB0001FFA88F2934297D9BBF10B0F2ED868EEF7
:104FC000287A2CEE488AE9EE8C7A0BF101035FFA1D
:104FD00083FBA9EEA88AF0EE489AB0EE678A029B9E
:104FE00079EE8A7A2146C3ED007A039B78EE2A7A1D
:104FF0003046C3ED007AD9ED007A77EEAB7A08F14E
:105000000108C9ED007AFFF7A3FE1E4B5A78002A6B
:10501000CDD007B0BDEC0A8BBDE8F08F07EE908ACB
:10502000B8EEE79A4FF0000B29EE0B9AB0EE490A62
:1050300004F0B0FCF0EE40CAB0EE490A04F0EAFC1D
:1050400097ED008ADAED007A60EE089A28EE6C8A15
:10505000F1EE677AECEEA79AA0EE278ABFE700BFD1
:105060008DEDB5A0F7C6A03E182D4454FB21194084
:105070004BDA7D5C5555C53F7C4400200000E03F85
:1050800000001040483900208DEDB5A0F7C6A0BE45
:1050900008B52DED028B0A4B1B78022BB0EE408A2F
:1050A0000AD001F0C3F9B0EE480ABDEC028B002033
:1050B000BDE8084000F054B9BDEC028B08BD00BF4C
:1050C0004839002010B50446FFF78CFCBCB12046DF
:1050D000FFF7E6FC01F038F80C4B5B78A3B9FEF75C
:1050E00051FC00F01FFD0A4B4FF4806228205A61EA
:1050F000FCF714F82820BDE81040FBF7EBBF0420B4
:10510000FFF7CEFC0320E3E710BD00BF48390020C5
:10511000003C01402DE9F8432E4C2378022B064633
:1051200089469046274652D001F080F9657815B13E
:105130000220BDE8F883C8F3C000657100F002FEEC
:1051400000F018FE40B1042003F088FA00F0FCFFE4
:10515000284600F0F7FDEBE7304649461E4EFFF7C4
:10516000F7FD01230220337003F0D4F800F0ECFFC8
:105170007B78002BDCD13B78002BF7D13378012BE7
:1051800022D118F0100F1BD0144D154C0FCD0FC4A9
:1051900095E8030084E803000020307000F0D2FDA1
:1051A00000F0D2FF02F036FC00F024FA00F0BAFC66
:1051B00001F0DCFA7879003018BF0120BDE8F883EF
:1051C000052003F04BFAE7E701237B71E4E70020B9
:1051D000BDE8F883483900205E3900207839002086
:1051E0006039002008B5114B1B78DB061DD4102058
:1051F00003F090F802F0FCF8FEF7CCFA0C4A1378B2
:1052000013F02C0F03D1127912F0060F0DD0042BDE
:1052100009D1084B1B7813B9062003F01FFABDE82B
:10522000084002F029BA0320F7E708BD5D390020E5
:1052300048390020903900202DE9F84F93460A782C
:105240008318825C2D2A06468A4618D15A789D1CFE
:105250000127002108460C460B46303AD2B2092AF3
:1052600019D80130C0B2082810D809B1013C64B285
:1052700003EB830302EB430315F8012BEDE72B2A25
:1052800012BF5D1C9D1C5A780027E2E70029F3D16C
:10529000013464B2F0E7FE2A02D109B90121EBE73B
:1052A00030B307EE903AF8EE677AF5EE407AF1EE19
:1052B00010FA13D00FF27809D9E90089631C19DBC1
:1052C00027D117EE900AFBF737F91BA3D3E9002388
:1052D000FBF786F9FBF77CFC07EE900A0FB1F1EEC5
:1052E000677AAD1B013DCBED007A01208AF80050B2
:1052F000BDE8F88F17EE900AFBF71EF942464B46C1
:10530000FBF76EF9FBF764FC023407EE900A64B217
:10531000D4E7002CE2D0B2EE047A013CE3B267EEAF
:10532000877A5CB2002BF8D1D8E700BFAFF30080DA
:105330007B14AE47E17A843F9A9999999999B93F3C
:10534000064B4FF47A721B68B3FBF2F300229A42C9
:1053500000D1704700BF0132F9E700BF080000200C
:10536000F3EE047A60EE277A70B5064617EE900ADF
:10537000FBF7E2F841EC100B04F002F951EC100BD2
:10538000FBF706FC094D84B27CB16B786BB93EB972
:1053900000F0DAFE3220013CFBF742FEA4B2F3E754
:1053A00000F01EFDAB789B07F4D570BD4839002096
:1053B00008B5014601B908BD0120FFF7C1FF013959
:1053C00089B2F7E760EEA00AE0EE000AB0EE600AEC
:1053D00004F0BEBB9FED100A38B5044600F1180377
:1053E0000546F5EC017AF5EE407AF1EE10FA18BFB9
:1053F000A7EEA70A9D42F4D104F0AAFBF7EE007ACB
:1054000087EE807AD4ED007A67EE877AE4EC017A51
:10541000AC42F7D138BD00BF000000009FED0E0A7E
:1054200001F11803B1EC017AB5EE407AF1EE10FA11
:105430000CD0D0ED006AC6EE877AF0EEE77AF4EE93
:10544000C07AF1EE10FAD8BFB0EE670A994200F1C7
:105450000400E7D1704700BFFFFF7F7F2DE9F84FC1
:10546000564E574A33781178002B08BFC823013BAA
:10547000DBB2994291466BD0524F07EB8312D2EDCB
:105480000A7AD2ED0B6A92ED097A77EEA77A67EE87
:10549000A67AB4EEE77AF1EE10FA58BFB0EE677A6A
:1054A000002B14BF1C46C824013CE4B2A14282ED8B
:1054B000087A36D0DFF810B1154699F80030A342CB
:1054C00035D0002C0FFA84FAA04608BFC824013C4E
:1054D0009BF80030E4B2A34207EB8A1A01D102F034
:1054E0000BFB07EB8813D3ED096AD3ED087AF4EED2
:1054F000667AF1EE10FA12D093ED0A7AD5ED087AB9
:1055000093ED0B6A37EE077AE7EE067AF4EEE76A78
:10551000F1EE10FAD8BFF0EE667AC3ED087A554680
:10552000CBE7294B1B788B4201D102F0E5FA99F8C1
:10553000005096F800E06B1CDBB2C82B07EB85101F
:1055400008BF00230021734504D109B189F8005038
:10555000BDE8F88F9A01BE18D0ED087AD6ED086A3A
:10556000F4EEE67A1CB2F1EE10FA07EB841410D5D3
:1055700090ED0A7A90ED0B6A37EE077AE7EE067A3D
:10558000F4EEE76AF1EE10FAC2BFC6ED087A1D46E6
:1055900001213A4492ED087AD2ED097AB4EE677AA5
:1055A000F1EE10FA08BF1D4603F10103DBB208BF9C
:1055B0000121C82B08BF00232046C4E7B4320020D5
:1055C000B5320020B4000020B6320020054A002386
:1055D0001370054A1370054A01211170044A1370B3
:1055E000704700BFB6320020B4320020B73200202E
:1055F000B532002008B534220021034803F099FB9E
:10560000BDE80840FFF7E2BFB832002010B5094BF3
:10561000094A197812788A421A460AD007484B1C60
:10562000DBB20478C82B08BF00238C4208BF03708C
:10563000137010BDB6320020B4320020B532002005
:10564000024B1878024B03EB80107047B4320020F5
:10565000B4000020054B064A1B7812789A421ABF04
:10566000044800EB83100020704700BFB6320020D2
:10567000B4320020B4000020094B0A4A1B7812788B
:105680000133DBB2C82B08BF00239A421DBF064A74
:1056900002EB831393ED080A9FED040A704700BFE5
:1056A000B6320020B4320020B40000200000000018
:1056B000034B1878034B1B78C31A58425841704764
:1056C000B6320020B7320020F8B52DED028B437FB3
:1056D00090ED0E8ADA07044624D5274B587AFAF75C
:1056E00019FF23A3D3E90023FAF77AFF044618EE43
:1056F000100A0D46FAF720FF02460B4620462946BF
:10570000FAF76EFFFBF764FA08EE100AB7EE000A2C
:10571000B4EEC08AF1EE10FAC8BFB0EE480ABDEC94
:10572000028BF8BD5B0718D4134B187AFAF7F2FE18
:105730000FA3D3E90023FAF753FF064618EE100A29
:105740000F46FAF7F9FE02460B4630463946FAF79D
:1057500047FFFBF73DFA08EE100AD4ED0D7AB4EEE0
:10576000678AF1EE10FAC8BFB0EE678ACEE700BFD5
:105770007B14AE47E17A843F4839002070B52DEDA7
:10578000028B1C4B9FED1C8A1C781C4B1C4D1E78F9
:10579000B44205D11B4B83ED0C8ABDEC028B70BD6E
:1057A00005EB8410FFF790FFB4EEC08AF1EE10FA1B
:1057B0004FEA84134CBF28EE088A60EE007A05EBAE
:1057C00003024CBF82ED098AC2ED097A2B44D3ED66
:1057D0000C7A93ED097A0134B4EEE77AF1EE10FA1F
:1057E000E4B2C8BFC3ED097AC82C08BF0024B0EEEC
:1057F000408ACDE7B6320020FFFF7F7FB432002021
:10580000B4000020B83200202DE9F04FB64EB74C5E
:1058100035782DED028B04EB85178B469DB0402229
:1058200000218146384603F084FA9BF808307B77E4
:105830009B07DBF804204CBFDFF8E4E2DFF8C8E2A6
:10584000FA63BEE80F000AAC0FC49EE8030084E8C8
:105850000300A64CA64AAD014FF0000804EB050A70
:10586000B9EC017A0192F2EC017A67EE277A0292A2
:1058700017EE900A0392FAF75FFE41EC100B03F06B
:1058800087FF04AB019A43F828000AABD2ED006A07
:1058900053F82810411A07EE901AF8EEE77A81EAD9
:1058A000E17087EEA67AA0EBE17047F82800DAF8FD
:1058B000183010AA834238BF034602EB8801CAF8A9
:1058C0001830029AB5EEC07AF1EE10FA81ED007A46
:1058D00007D5884911F818009AF81C1001438AF876
:1058E0001C1008F10108B8F1060FB9D1002B00F027
:1058F000EC8010A8FFF76EFD04EB050810A97E48A8
:1059000088ED0B0AFFF78AFD7C4888ED0A0A10A98A
:10591000FFF784FD98F81D3088ED0D0AD80751D5A2
:1059200088ED0E0A764A317812789FED768A914298
:1059300001D09A0754D5631983ED088A83ED0C8A48
:1059400004EB050898F81D309B0739D43846FFF75B
:10595000BBFE6D4BD3ED0C7A83ED0C0AB4EEE70A77
:10596000F1EE10FACCBF67EEA77A60EE007A2C4415
:10597000C8ED097A94ED097AD4ED0C7A10AD0FCD0B
:10598000B4EEE77AF1EE10FAC8BFC4ED097A5F4CC5
:105990000FC495E8030004AD84E803000FCD283C54
:1059A0000FC45B4A95E80300137884E80300337062
:1059B0000133DBB2C82B08BF00231370FFF74EFD85
:1059C000012083E019079BED007A48BFD8ED0B7AE0
:1059D00088ED0E7A44BF67EE877AC8ED0E7AA1E7AC
:1059E0004A4B10A916AA03F11800B0EE487AF3EC5E
:1059F000016AF1EC017AA6EEE77A984277EEE67A50
:105A0000E2EC017AF3D117EE100AFAF795FD32A312
:105A1000D3E9002380468946FBF772F808B1631981
:105A20008CE72FA3D3E9002340464946FBF74AF809
:105A300018B16319374A1A6382E716A8FFF7CAFC40
:105A400016A92D48FFF7EAFC42464B460020324992
:105A5000B0EE408AFAF710FC0022304BFAF7C0FD96
:105A6000FBF7B6F800EE100A04F072F8204BD3ED05
:105A70001A7A28EE278AF0EE408A68EE007A17EE4E
:105A8000900AFAF759FD804618EE900A8946FAF70F
:105A900053FD02460B4600201F49FAF7EDFB024674
:105AA0000B4640464946FAF7C5FE002200238046D1
:105AB0008946FBF707F830B940464946FBF788F8B6
:105AC000631918633CE70020FAE718461DB0BDECE7
:105AD000028BBDE8F08F00BFE90B21E7FDFFEF3F30
