:020000040800F2
:1000000000500020217700085D2300085F230008CE
:100010006123000863230008652300080000000036
:10002000000000000000000000000000672300083E
:1000300069230008000000006B2300086D230008FE
:100040006977000869770008697700086977000810
:100050006977000869770008712300088D2300087C
:1000600069770008A9230008C923000869770008F8
:1000700069770008697700086977000869770008E0
:1000800069770008697700086977000869770008D0
:1000900069770008697700086977000869770008C0
:1000A00069770008697700086977000869770008B0
:1000B000E92300080524000869770008697700082B
:1000C0006977000869770008697700086977000890
:1000D000697700083124000869770008697700080B
:1000E00051240008697700086977000800000000C3
:1000F0000000000000000000000000000000000000
:0C01000000000000000000005FF808F1A3
:1001100010B5054C237833B9044B13B10448AFF341
:1001200000800123237010BD780000200000000033
:10013000E497000808B5034B1BB103490348AFF32C
:10014000008008BD000000007C000020E49700084B
:10015000D0400B1CD1409C46203AD3401843524219
:10016000634693401843704781F0004102E000BFAE
:1001700083F0004330B54FEA41044FEA430594EA67
:10018000050F08BF90EA020F1FBF54EA000C55EAA2
:10019000020C7FEA645C7FEA655C00F0E2804FEA73
:1001A0005454D4EB5555B8BF6D420CDD2C4480EA55
:1001B000020281EA030382EA000083EA010180EA85
:1001C000020281EA0303362D88BF30BD11F0004FD3
:1001D0004FEA01314FF4801C4CEA113102D0404209
:1001E00061EB410113F0004F4FEA03334CEA133344
:1001F00002D0524263EB430394EA050F00F0A7805C
:10020000A4F10104D5F1200E0DDB02FA0EFC22FA56
:1002100005F2801841F1000103FA0EF2801843FA4A
:1002200005F359410EE0A5F120050EF1200E012A3B
:1002300003FA0EFC28BF4CF0020C43FA05F3C01879
:1002400051EBE37101F0004507D54FF0000EDCF1F2
:10025000000C7EEB00006EEB0101B1F5801F1BD39B
:10026000B1F5001F0CD349085FEA30004FEA3C0C9F
:1002700004F101044FEA445212F5800F80F09A8095
:10028000BCF1004F08BF5FEA500C50F1000041EB99
:10029000045141EA050130BD5FEA4C0C404141EB9D
:1002A000010111F4801FA4F10104E9D191F0000FC4
:1002B00004BF01460020B1FA81F308BF2033A3F147
:1002C0000B03B3F120020CDA0C3208DD02F1140C3E
:1002D000C2F10C0201FA0CF021FA02F10CE002F179
:1002E0001402D8BFC2F1200C01FA02F120FA0CFC72
:1002F000DCBF41EA0C019040E41AA2BF01EB0451BB
:10030000294330BD6FEA04041F3C1CDA0C340EDCB8
:1003100004F11404C4F1200220FA04F001FA02F3FB
:1003200040EA030021FA04F345EA030130BDC4F1B9
:100330000C04C4F1200220FA02F001FA04F340EAAE
:100340000300294630BD21FA04F0294630BD94F05F
:10035000000F83F4801306BF81F480110134013D46
:100360004EE77FEA645C18BF7FEA655C29D094EAB7
:10037000050F08BF90EA020F05D054EA000C04BF35
:100380001946104630BD91EA030F1EBF0021002020
:1003900030BD5FEA545C05D14000494128BF41F0BF
:1003A000004130BD14F580043CBF01F5801130BD23
:1003B00001F0004545F0FE4141F470014FF00000AE
:1003C00030BD7FEA645C1ABF194610467FEA655C5F
:1003D0001CBF0B46024650EA013406BF52EA033501
:1003E00091EA030F41F4002130BD00BF90F0000FEF
:1003F00004BF0021704730B54FF4806404F132042B
:100400004FF000054FF0000150E700BF90F0000FE3
:1004100004BF0021704730B54FF4806404F132040A
:1004200010F0004548BF40424FF000013EE700BFDA
:1004300042004FEAE2014FEA31014FEA02701FBF6A
:1004400012F07F4393F07F4F81F06051704792F03C
:10045000000F14BF93F07F4F704730B54FF46074B6
:1004600001F0004521F0004120E700BF50EA010201
:1004700008BF704730B54FF000050AE050EA0102AE
:1004800008BF704730B511F0004502D5404261EB1E
:1004900041014FF4806404F132045FEA915C3FF45F
:1004A000DCAE4FF003025FEADC0C18BF03325FEAF8
:1004B000DC0C18BF033202EBDC02C2F1200300FAAD
:1004C00003FC20FA02F001FA03FE40EA0E0021FAD2
:1004D00002F11444C1E600BF70B54FF0FF0C4CF4BC
:1004E000E06C1CEA11541DBF1CEA135594EA0C0F72
:1004F00095EA0C0F00F0DEF82C4481EA030621EAAD
:100500004C5123EA4C5350EA013518BF52EA0335E7
:1005100041F4801143F4801338D0A0FB02CE4FF099
:100520000005E1FB02E506F00042E0FB03E54FF0C9
:100530000006E1FB03569CF0000F18BF4EF0010EC1
:10054000A4F1FF04B6F5007F64F5407404D25FEABD
:100550004E0E6D4146EB060642EAC62141EA555170
:100560004FEAC52040EA5E504FEACE2EB4F1FD0CB2
:1005700088BFBCF5E06F1ED8BEF1004F08BF5FEA30
:10058000500E50F1000041EB045170BD06F00046E2
:1005900046EA010140EA020081EA0301B4EB5C048F
:1005A000C2BFD4EB0C0541EA045170BD41F4801187
:1005B0004FF0000E013C00F3AB8014F1360FDEBFAC
:1005C000002001F0004170BDC4F10004203C35DA88
:1005D0000C341BDC04F11404C4F1200500FA05F30B
:1005E00020FA04F001FA05F240EA020001F00042AC
:1005F00021F0004110EBD37021FA04F642EB060122
:100600005EEA430E08BF20EAD37070BDC4F10C044B
:10061000C4F1200500FA04F320FA05F001FA04F20F
:1006200040EA020001F0004110EBD37041F10001FB
:100630005EEA430E08BF20EAD37070BDC4F1200506
:1006400000FA05F24EEA020E20FA04F301FA05F26E
:1006500043EA020321FA04F001F0004121FA04F216
:1006600020EA020000EBD3705EEA430E08BF20EAE6
:10067000D37070BD94F0000F0FD101F00046400020
:1006800041EB010111F4801F08BF013CF7D041EAA2
:10069000060195F0000F18BF704703F000465200A6
:1006A00043EB030313F4801F08BF013DF7D043EA77
:1006B0000603704794EA0C0F0CEA135518BF95EA2D
:1006C0000C0F0CD050EA410618BF52EA4306D1D1B4
:1006D00081EA030101F000414FF0000070BD50EAD3
:1006E000410606BF1046194652EA430619D094EA5D
:1006F0000C0F02D150EA013613D195EA0C0F05D147
:1007000052EA03361CBF104619460AD181EA03019A
:1007100001F0004141F0FE4141F470014FF0000052
:1007200070BD41F0FE4141F4780170BD70B54FF0ED
:10073000FF0C4CF4E06C1CEA11541DBF1CEA13556D
:1007400094EA0C0F95EA0C0F00F0A7F8A4EB05044F
:1007500081EA030E52EA03354FEA013100F0888046
:100760004FEA03334FF0805545EA131343EA12630F
:100770004FEA022245EA111545EA10654FEA0026C4
:100780000EF000419D4208BF964244F1FD0404F57D
:10079000407402D25B084FEA3202B61A65EB0305D9
:1007A0005B084FEA32024FF480104FF4002CB6EB96
:1007B000020E75EB030E22BFB61A754640EA0C0016
:1007C0005B084FEA3202B6EB020E75EB030E22BF56
:1007D000B61A754640EA5C005B084FEA3202B6EB97
:1007E000020E75EB030E22BFB61A754640EA9C0056
:1007F0005B084FEA3202B6EB020E75EB030E22BF26
:10080000B61A754640EADC0055EA060E18D04FEAE3
:10081000051545EA16754FEA06164FEAC30343EA83
:1008200052734FEAC2025FEA1C1CC0D111F4801F50
:100830000BD141EA00014FF000004FF0004CB6E749
:1008400011F4801F04BF01430020B4F1FD0C88BFE8
:10085000BCF5E06F3FF6AFAEB5EB030C04BFB6EBF3
:10086000020C5FEA500C50F1000041EB045170BDE6
:100870000EF0004E4EEA113114EB5C04C2BFD4EB13
:100880000C0541EA045170BD41F480114FF0000E97
:10089000013C90E645EA060E8DE60CEA135594EA13
:1008A0000C0F08BF95EA0C0F3FF43BAF94EA0C0F16
:1008B0000AD150EA01347FF434AF95EA0C0F7FF48B
:1008C00025AF104619462CE795EA0C0F06D152EADF
:1008D00003353FF4FDAE1046194622E750EA4106C3
:1008E00018BF52EA43067FF4C5AE50EA41047FF4D4
:1008F0000DAF52EA43057FF4EBAE12E74FF0FF3C39
:1009000006E000BF4FF0010C02E000BF4FF0010C09
:100910004DF804CD4FEA410C7FEA6C5C4FEA430C82
:1009200018BF7FEA6C5C1BD001B050EA410C0CBFD1
:1009300052EA430C91EA030F02BF90EA020F002033
:10094000704710F1000F91EA030F58BF994208BF9A
:1009500090422CBFD8176FEAE37040F00100704757
:100960004FEA410C7FEA6C5C02D150EA013C07D1AE
:100970004FEA430C7FEA6C5CD6D152EA033CD3D0F9
:100980005DF8040B704700BF8446104662468C46F3
:100990001946634600E000BF01B5FFF7B7FF002826
:1009A00048BF10F1000F01BD4DF808EDFFF7F4FF4F
:1009B0000CBF012000205DF808FB00BF4DF808EDDA
:1009C000FFF7EAFF34BF012000205DF808FB00BFFD
:1009D0004DF808EDFFF7E0FF94BF012000205DF81F
:1009E00008FB00BF4DF808EDFFF7CEFF94BF0120D4
:1009F00000205DF808FB00BF4DF808EDFFF7C4FFCD
:100A000034BF012000205DF808FB00BF4FEA410C15
:100A10007FEA6C5C02D150EA013C0AD14FEA430CF8
:100A20007FEA6C5C02D152EA033C02D14FF0000035
:100A300070474FF0010070474FEA410212F5001273
:100A400015D211D56FF47873B3EB625212D94FEA15
:100A5000C12343F0004343EA505311F0004F23FAFF
:100A600002F018BF404270474FF00000704750EA54
:100A7000013005D111F0004008BF6FF00040704711
:100A80004FF00000704700BF4A0011D212F500126B
:100A900011D20DD56FF47873B3EB62520ED44FEAD6
:100AA000C12343F0004343EA505323FA02F0704756
:100AB0004FF00000704750EA013002D14FF0FF3094
:100AC00070474FF0000070474FEA4102B2F1E04337
:100AD00024BFB3F5001CDCF1FE5C0DD901F0004C25
:100AE0004FEAC0024CEA5070B2F1004F40EB830075
:100AF00008BF20F00100704711F0804F21D113F1A1
:100B00003872BCBF01F00040704741F480114FEAD9
:100B10005252C2F11802C2F1200C10FA0CF320FA62
:100B200002F018BF40F001004FEAC1234FEAD3237F
:100B300003FA0CFC40EA0C0023FA02F34FEA4303E9
:100B4000CCE77FEA625307D150EA01331EBF4FF072
:100B5000FE4040F44000704701F0004040F0FE408D
:100B600040F40000704700BF80F0004002E000BF8A
:100B700081F0004142001FBF5FEA410392EA030F88
:100B80007FEA226C7FEA236C6AD04FEA1262D2EBD2
:100B90001363C1BFD218414048404140B8BF5B42D7
:100BA000192B88BF704710F0004F40F4000020F070
:100BB0007F4018BF404211F0004F41F4000121F086
:100BC0007F4118BF494292EA030F3FD0A2F10102D0
:100BD00041FA03FC10EB0C00C3F1200301FA03F10E
:100BE00000F0004302D5494260EB4000B0F5000F31
:100BF00013D3B0F1807F06D340084FEA310102F1F0
:100C00000102FE2A51D2B1F1004F40EBC25008BFA1
:100C100020F0010040EA03007047490040EB00006B
:100C200010F4000FA2F10102EDD1B0FA80FCACF19A
:100C3000080CB2EB0C0200FA0CF0AABF00EBC25099
:100C400052421843BCBFD0401843704792F0000F87
:100C500081F4000106BF80F400000132013BB5E7DA
:100C60004FEA41037FEA226C18BF7FEA236C21D050
:100C700092EA030F04D092F0000F08BF08467047B5
:100C800090EA010F1CBF0020704712F07F4F04D183
:100C9000400028BF40F00040704712F100723CBF96
:100CA00000F50000704700F0004343F0FE4040F4C0
:100CB000000070477FEA226216BF08467FEA23637E
:100CC0000146420206BF5FEA412390EA010F40F469
:100CD000800070474FF0000304E000BF10F00043B5
:100CE00048BF40425FEA000C08BF704743F096439C
:100CF00001464FF000001CE050EA010208BF7047B7
:100D00004FF000030AE000BF50EA010208BF70473D
:100D100011F0004302D5404261EB41015FEA010C52
:100D200002BF84460146002043F0B64308BFA3F14A
:100D30008053A3F50003BCFA8CF2083AA3EBC2532C
:100D400010DB01FA02FC634400FA02FCC2F120024B
:100D5000BCF1004F20FA02F243EB020008BF20F082
:100D60000100704702F1200201FA02FCC2F12002E8
:100D700050EA4C0021FA02F243EB020008BF20EADD
:100D8000DC7070474FF0FF0C1CEAD0521EBF1CEA0B
:100D9000D15392EA0C0F93EA0C0F6FD01A4480EAF9
:100DA000010C400218BF5FEA41211ED04FF00063E2
:100DB00043EA501043EA5111A0FB01310CF000400E
:100DC000B1F5000F3EBF490041EAD3715B0040EA34
:100DD000010062F17F02FD2A1DD8B3F1004F40EB04
:100DE000C25008BF20F00100704790F0000F0CF0D7
:100DF000004C08BF49024CEA502040EA51207F3A9B
:100E0000C2BFD2F1FF0340EAC250704740F4000075
:100E10004FF00003013A5DDC12F1190FDCBF00F066
:100E200000407047C2F10002410021FA02F1C2F114
:100E3000200200FA02FC5FEA310040F1000053EAB0
:100E40004C0308BF20EADC70704792F0000F00F0FE
:100E5000004C02BF400010F4000F013AF9D040EA04
:100E60000C0093F0000F01F0004C02BF490011F498
:100E7000000F013BF9D041EA0C018FE70CEAD15396
:100E800092EA0C0F18BF93EA0C0F0AD030F0004C16
:100E900018BF31F0004CD8D180EA010000F00040CA
:100EA000704790F0000F17BF90F0004F084691F088
:100EB000000F91F0004F14D092EA0C0F01D14202C2
:100EC0000FD193EA0C0F03D14B0218BF084608D18B
:100ED00080EA010000F0004040F0FE4040F40000D5
:100EE000704740F0FE4040F4400070474FF0FF0C68
:100EF0001CEAD0521EBF1CEAD15392EA0C0F93EAAF
:100F00000C0F69D0A2EB030280EA010C49024FEA00
:100F1000402037D04FF0805343EA111143EA1013B9
:100F20000CF000408B4238BF5B0042F17D024FF471
:100F3000000C8B4224BF5B1A40EA0C00B3EB510F4C
:100F400024BFA3EB510340EA5C00B3EB910F24BF35
:100F5000A3EB910340EA9C00B3EBD10F24BFA3EBBA
:100F6000D10340EADC001B0118BF5FEA1C1CE0D182
:100F7000FD2A3FF650AF8B4240EBC25008BF20F035
:100F8000010070470CF0004C4CEA50207F32C2BF89
:100F9000D2F1FF0340EAC250704740F400004FF026
:100FA0000003013A37E792F0000F00F0004C02BF57
:100FB000400010F4000F013AF9D040EA0C0093F021
:100FC000000F01F0004C02BF490011F4000F013B7B
:100FD000F9D041EA0C0195E70CEAD15392EA0C0FE3
:100FE00008D142027FF47DAF93EA0C0F7FF470AF1B
:100FF000084676E793EA0C0F04D14B023FF44CAF5E
:1010000008466EE730F0004C18BF31F0004CCAD1F2
:1010100030F000427FF45CAF31F000437FF43CAF2E
:101020005FE700BF4FF0FF3C06E000BF4FF0010C50
:1010300002E000BF4FF0010C4DF804CD4FEA400232
:101040004FEA41037FEA226C18BF7FEA236C11D07C
:1010500001B052EA530C18BF90EA010F58BFB2EB2F
:10106000030088BFC81738BF6FEAE17018BF40F0AF
:10107000010070477FEA226C02D15FEA402C05D163
:101080007FEA236CE4D15FEA412CE1D05DF8040BE8
:10109000704700BF844608466146FFE70FB5FFF77B
:1010A000C9FF002848BF10F1000F0FBD4DF808ED33
:1010B000FFF7F4FF0CBF012000205DF808FB00BF24
:1010C0004DF808EDFFF7EAFF34BF012000205DF87E
:1010D00008FB00BF4DF808EDFFF7E0FF94BF0120CB
:1010E00000205DF808FB00BF4DF808EDFFF7D2FFC8
:1010F00094BF012000205DF808FB00BF4DF808ED0B
:10110000FFF7C8FF34BF012000205DF808FB00BFD7
:101110004FEA40024FEA41037FEA226C02D15FEAC4
:10112000402C08D17FEA236C02D15FEA412C02D126
:101130004FF0000070474FF0010070474FEA400247
:10114000B2F1FE4F0FD34FF09E03B3EB12620DD9F5
:101150004FEA002343F0004310F0004F23FA02F05F
:1011600018BF404270474FF00000704712F1610F06
:1011700001D1420205D110F0004008BF6FF00040DD
:1011800070474FF00000704742000ED2B2F1FE4FA0
:101190000BD34FF09E03B3EB126209D44FEA002346
:1011A00043F0004323FA02F070474FF0000070470D
:1011B00012F1610F01D1420202D14FF0FF307047AE
:1011C0004FF00000704700BF38B50E4B0546187849
:1011D0004FF47A73B3FBF0F30B4A1068B0FBF3F0F3
:1011E00000F08CF8044658B90F2D09D8024629465C
:1011F0004FF0FF3000F042F8044B20461D6038BD30
:10120000012038BD0000002008000020040000205C
:10121000074A08B51368032043F01003136000F079
:101220001BF80020FFF7D0FF01F076F8002008BD82
:1012300000200240034A044B11681B780B441360E2
:10124000704700BFA838002000000020014B18683C
:10125000704700BFA8380020074A0002D36800F496
:10126000E06023F4E0631B041B0C43F0BF6343F412
:1012700000330343D360704700ED00E0174B30B5F7
:10128000DC68C4F30224C4F10703251D042B28BF26
:101290000423062D4FF0010598BF002405FA03F33F
:1012A00003F1FF3388BF033C1940A14005FA04F461
:1012B000013C2240002842EA01024FEA0212AFBF7D
:1012C00000F16040064B00F00F00D2B2A5BFD2B2D1
:1012D00000F561401A5480F8002330BD00ED00E0B5
:1012E00014ED00E00123420900F01F0003FA00F0B2
:1012F000014B43F82200704700E100E00138B0F1F3
:10130000807F0AD2F021064B064A586082F82310EB
:101310000020072298601A6070470120704700BFC4
:1013200010E000E000ED00E00122430900F01F00A2
:1013300002FA00F0024A603342F82300704700BF0F
:1013400000E100E0114AD36813F0100305D0104902
:10135000CB6943F00203CB611023D268500706D556
:101360000B4943F00403CA6942F00102CA61074A0B
:10137000D169C90708D50648C16941F00401C161B6
:10138000D16921F00101D161D36070470020024092
:10139000B0380020064B186910F0800007D0054ACD
:1013A0005A6002F188325A601869C0F3C010704761
:1013B0000020024023016745034A0020136943F0DF
:1013C00080031361704700BF00200240F8B5064655
:1013D000FFF73CFF114C07462546E368D80712D4B7
:1013E000E368990644BF2023E360EB68DA0606D47D
:1013F000EB69DB0703D4E86810F0040002D0FFF7C4
:10140000A1FF0120F8BD731CE7D00EB90320F8BD81
:10141000FFF71CFFC01B8642DFD2F7E70020024027
:101420002DE9F84F1F4C9946237E0546012B0F46A8
:10143000904633D001234CF250302376FFF7C6FF9D
:1014400040BB012D03D0022D0CBF02250425002630
:10145000B246DFF854B0320140464946FEF778FE06
:10146000C4F81CA0DBF8103080B243F00103CBF8C5
:10147000103027F816004CF25030FFF7A7FFDBF8CA
:10148000103023F00103CBF8103018B90136F3B255
:101490009D42E0D800232376BDE8F88F0220BDE806
:1014A000F88F00BFB0380020002002400022064B19
:1014B000DA61064B1A6942F002021A6158611A6930
:1014C00042F040021A617047B0380020002002400C
:1014D0002DE9F74F00221646654BDFF8A4E1DFF84F
:1014E000A4C14FF001080C6808FA06F808EA0404E1
:1014F000A0457FD14D68122D00F0AF8000F28880AA
:10150000022D00F0A7807CD8002D00F08E80012DE8
:1015100000F09E804FF00F09FF2C93BF824606F12A
:101520008045083DD0F800B092BFB500D0F804B0B7
:10153000AD0009FA05F82BEA080802FA05F588BF9C
:1015400000F1040A48EA0505CAF80050D1F804A0E1
:101550001AF0805F4ED0474D464FAD6926F0030824
:1015600045F00105BD61BD6908F1804805F0010540
:10157000019508F5803806F0030B019D4FEA8B0BAF
:10158000D8F8085009FA0BF925EA09093A4DA8429A
:1015900068D005F58065A84266D005F58065A8424B
:1015A00064D005F58065A8420CBF0325042505FA23
:1015B0000BF545EA0905C8F808501D681AF4803F84
:1015C00014BF2543A5431D605D681AF4003F14BF96
:1015D0002543A5435D609D681AF4801F14BF254311
:1015E000A5439D60DD681AF4001F14BF2C4325EA53
:1015F0000404DC600136102E7FF473AF03B0BDE845
:10160000F08F032D22D0112D84D1CA68043281E7D6
:101610001A4FBD4209D012D8DFF86C904D4504D066
:1016200009F580394D457FF475AF8A68C2B1012A4A
:101630000CBFC0F81080C0F8148008226AE7754516
:10164000F3D06545F1D0DFF84490EBE7002261E785
:10165000CA685FE7CA6808325CE7CA680C3259E7B3
:10166000042257E70025A2E70125A0E702259EE70F
:101670000004014000100240000801400000211059
:101680000000311000003210000011100000221084
:101690000AB1016170470904FBE7704708B5044BC4
:1016A0005969014202D05861FFF7F7FF08BD00BF3A
:1016B0000004014003682DE9F341DB07054610D41F
:1016C0002B689F075ED42B68190700F195802B6863
:1016D0005A0700F1BF80EA69002A40F02D810020FE
:1016E00014E0904C636803F00C03042B07D063688C
:1016F00003F00C03082B0CD16368DE0309D52368C3
:101700009C03DDD56B68002BDAD1012002B0BDE867
:10171000F0816B68B3F5803F10D1236843F48033C8
:101720002360FFF793FD064623689803C8D4FFF7AC
:101730008DFD801B6428F7D90320E7E79BB9236858
:1017400023F480332360236823F480232360FFF78E
:101750007DFD064623689903B2D5FFF777FD801B10
:101760006428F7D9E8E7B3F5A02F236803D143F441
:1017700080232360D1E723F480332360236823F49C
:101780008023CDE7674C636813F00C0F07D06368C4
:1017900003F00C03082B10D16368DA030DD423681F
:1017A0009B0702D52B69012BAFD123686A6923F00F
:1017B000F80343EAC203236085E72A695A4B6AB1FA
:1017C00001221A60FFF742FD064623689F07ECD40A
:1017D000FFF73CFD801B0228F7D9ADE71A60FFF741
:1017E00035FD0646236898077FF56DAFFFF72EFDA0
:1017F000801B0228F6D99FE7AA694A4C4B4BDAB105
:1018000001221A60FFF722FD0646636A9B070DD589
:101810004FF4FA52464B1B68B3FBF2F3019300BF3F
:10182000019B5A1E0192002BF9D150E7FFF70EFDE4
:10183000801B0228E9D97FE71A60FFF707FD0646FB
:10184000636A9F077FF543AFFFF700FD801B022807
:10185000F6D971E7334CE369D80024D40127E36952
:1018600043F08053E361E36903F080530093009BEE
:10187000304E3368D90518D5EB68012B26D1236A81
:1018800043F001032362FFF7E1FC41F28836804612
:10189000236A9B073FD5002F3FF41DAFE36923F078
:1018A0008053E36117E70027E2E7336843F480736E
:1018B0003360FFF7CBFC80463368DA05DCD4FFF7F2
:1018C000C5FCA0EB08006428F6D935E7ABB9236A5C
:1018D00041F2883823F001032362236A23F00403D2
:1018E0002362FFF7B3FC0646236A9807D3D5FFF7B8
:1018F000ADFC801B4045F7D91EE7052B236A03D1B9
:1019000043F004032362BAE723F001032362236A4E
:1019100023F00403B6E7FFF799FCA0EB0800B04200
:10192000B6D909E70010024000004242800442425A
:101930000800002000700040224C636803F00C0394
:10194000082B3FF4E2AE00231F4E022A33602BD156
:10195000FFF77CFC0746236899011FD42B6AB3F577
:10196000803F05D16268A96822F400320A436260B0
:10197000696A62680B4322F47412134363600123A3
:101980003360FFF763FC054623689A013FF5A7AE75
:10199000FFF75CFC401B0228F6D9CDE6FFF756FCAA
:1019A000C01B0228D7D9C7E6FFF750FC05462368BD
:1019B0009B017FF594AEFFF749FC401B0228F6D946
:1019C000BAE600BF001002406000424230B5194B39
:1019D00087B002AC03F11005224618685968083335
:1019E00003C2AB421446F7D101238DF80430022321
:1019F00011498DF805304B6803F00C02082A17D105
:101A0000C3F3834206A80244DB0312F8102C0CD562
:101A10004B680A48C3F34043504306AA134413F8E3
:101A2000143CB0FBF3F007B030BD05485043FAE773
:101A30000248F8E7FC9700080010024000127A0004
:101A400000093D00544A2DE9F0411368054603F0B2
:101A500007038B420E462AD329688C0734D4CA0761
:101A600047D44D4A136803F007039E42C0F08280BA
:101A70002A684A4C12F0040F40F08780130706D5FD
:101A800063682A6923F4605343EAC2036360FFF783
:101A90009DFF6368424AC3F30313D35CD840414BB4
:101AA00018600020FFF790FB0020BDE8F08113686C
:101AB00023F007030B431360136803F007039942F5
:101AC000CAD00120BDE8F081344B11F0040F1EBFD5
:101AD0005A6842F4E0625A60080742BF5A6842F40A
:101AE00060525A605A68A86822F0F00202435A60B5
:101AF000B5E76A68294C012A23681CD113F4003F1A
:101B0000DFD0636841F2883823F003031343636036
:101B1000FFF79CFB6B680746012B14D1636803F049
:101B20000C03042B9DD0FFF791FBC01B4045F5D95A
:101B30000320BDE8F081022A02D113F0007FDFE725
:101B400013F0020FDCE7022B0FD1636803F00C03E4
:101B5000082B86D0FFF77AFBC01B4045F5D9E7E795
:101B6000FFF774FBC01B4045E2D8636813F00C0F0D
:101B7000F6D176E7136823F0070333431360136845
:101B800003F007039E429CD172E76368E96823F47F
:101B9000E0630B43636071E70020024000100240E5
:101BA0000C980008080000202DE9F04F0D68C5F3DF
:101BB0000F2595FAA5F24FF00F09B2FA82F24FF015
:101BC00003084FF0040C40F2011E35FA02F302D173
:101BD0000120BDE8F08F012393402B4263D0072AF8
:101BE00083BF4FF00114A2F1080304FA03F30EFAC5
:101BF00002F388BF43F080631E0E93FAA3FABAFA89
:101C00008AFA93FAA3FBBBFA8BFB84594FEA8A0A40
:101C100009FA0AFA24EA0A0A4C684FEA8B0B04FA1A
:101C20000BFB4AEA0B048451C4684FEA132A9AFA60
:101C3000AAFBBBFA8BFB24EA0A0A0C6904FA0BF430
:101C40004AEA0404C4604C6824F00804012C2AD138
:101C500093FAA3FABAFA8AFA93FAA3F4B4FA84F4D8
:101C600087594FEA840B4FEA8A0A8C6808FA0AFA05
:101C700027EA0A0A04FA0BF44AEA0404845193FAA4
:101C8000A3FBBBFA8BFB93FAA3F3B3FA83F3CF68FE
:101C90004FEA8B0B0CFA0BFB9B0024EA0B0407FAB0
:101CA00003F31C43845101328FE70000034B044AC5
:101CB0005B68C3F30313D35CD84070470010024045
:101CC0000C980008034B044A5B68C3F30223D35CFF
:101CD000D8407047001002401C980008034B044A8B
:101CE0005B68C3F3C223D35CD84070470010024046
:101CF0001C980008094B5A6802F4803262B1586897
:101D0000074AC0F340400130B2FBF0F05B68C3F318
:101D100083430233584370470248F7E700100240FC
:101D200000127A0000093D00044B5B6803F00C03CD
:101D3000082B01D1FFF7DEBF0148704700100240B9
:101D400000127A0008B50146FFF7EEFF0860FFF7C2
:101D5000ADFF4860FFF7B6FF88604868FFF7BEFF39
:101D6000C86008BD1A4A036890420AD0B0F1804F9B
:101D700007D0A2F59432904203D002F580629042DF
:101D800015D14A6823F070031343114A90420AD0D8
:101D9000B0F1804F07D0A2F59432904203D002F503
:101DA0008062904203D1CA6823F4407313430360F6
:101DB0008B68C3620B888362054B984204BF0B7C1F
:101DC0000363436943F0010343610120704700BF8F
:101DD000002C0140102930B55FD003D801292CD048
:101DE000002030BDB1F5807F00F08980B1F5805FC3
:101DF000F6D1036A156823F480530362036A4468CA
:101E0000C16923F4005321F4E64141EA0521156933
:101E100043EA0533556823F4805343EA0533504DB4
:101E2000A84204BF956924F48044D26808BF44EAFC
:101E300085144460C16102642CE0036A156823F0D4
:101E400001030362036A4168846923F0020324F0FA
:101E500073042C4315692B43556823F001032B436E
:101E60003F4DA84212D1556923F0080343EA850388
:101E7000956823F0040343EA8503956921F4807192
:101E80002943D56921F4007141EA4501D2684160D6
:101E9000846142630362012030BD036A156823F048
:101EA00010030362036A4168846923F0200324F469
:101EB000E64444EA0524156943EA0513556823F00E
:101EC000100343EA0513264DA84213D1556923F0A8
:101ED000800343EA8513956823F0400343EA8513A2
:101EE000956921F4806141EA8501D56921F4006199
:101EF00041EAC501D268416084618263CAE7036A2E
:101F0000156823F480730362036A4168C46923F48B
:101F1000007324F073042C43156943EA05235568C4
:101F200023F4807343EA05230D4DA84213D155696C
:101F300023F4006343EA8523956823F4806343EA2E
:101F40008523956921F4805141EA0511D56921F471
:101F5000005141EA4511D2684160C461C26399E70A
:101F6000002C01408A680B7B13434A6823F480638A
:101F700013430A6823F400631343CA8923F480538C
:101F800013430A6923F4005313434A6923F440437B
:101F9000134343640120704730B5C36885B09B0488
:101FA00004460D4602D5002005B030BD4B68C96817
:101FB000C2680B43296922F4B0520B4322F00C0291
:101FC0001343C3600369AA6823F4405313430361B6
:101FD00043696A6923F44073134343616846FFF71A
:101FE000B1FE134B9C4219D103990029DBD02A681A
:101FF000002AD8D019234B439200B3FBF2F364229A
:10200000B3FBF2F102FB11331B013233B3FBF2F3EA
:1020100003EB01139BB2A3600120C5E7054B9C4273
:1020200001D10299E1E7044B9C42BCD1F9E700BF22
:1020300000380140004400400048004010222DE9D3
:10204000F04F89B00DEB0200002105F062FC444B1B
:10205000DFF818919A69DFF8188142F010029A614E
:102060009A69404F02F010020092009A9A6948461D
:1020700042F020029A619A694FF4604102F0200216
:102080000192019A9A69012542F004029A619A69C3
:10209000032602F004020292029A9A694FF0020AA1
:1020A00042F008029A619B69002203F0080303933F
:1020B000039BFFF7EDFA4046002241F6FF61FFF770
:1020C000E7FA002238464FF44871FFF7E1FA4FF47F
:1020D000C04300244FF4004B04A9484604930595DF
:1020E000CDF818A00796FFF7F3F904A94846CDF8F4
:1020F00010B0059506940796FFF7EAF941F6FF63DD
:1021000004A940460493059506940796FFF7E0F965
:102110004FF61B430493144B04A9384605930695C8
:10212000FFF7D6F904A94046CDF810B00594CDF8D4
:1021300018A0FFF7CDF94FF4487304A9384604936B
:10214000059506940796FFF7C3F9224621462820F5
:10215000FFF794F82820FFF7C5F809B0BDE8F08F25
:1021600000100240000C014000002110001001404E
:102170000008014010B590B02822002106A805F003
:10218000C8FB0021142201A805F0C3FB4FF48033E3
:102190000122022407930E934FF4E01306A806923F
:1021A0000A920F930D94FFF785FA0F234FF4806284
:1021B00001930023214601A80294039304920593FE
:1021C000FFF740FC10B010BD2DE9F041FFF720F8FB
:1021D0000024FFF7CFFFFFF731FF00F09FF900F079
:1021E00097FA00F015FA00F053FA20223F4B2146EF
:1021F000DB683F4B062083F825435A602246FFF7F1
:102200003DF80620FFF76EF8224621460720FFF72B
:1022100035F80720FFF766F8224621460920FFF728
:102220002DF80920FFF75EF8224621460A20FFF725
:1022300025F80A20FFF756F805F0E0FA05F00AFB4A
:1022400000F052FB03F0AAFD04F0A6F804F000FC35
:1022500004F0EAFF18222146264805F05AFB264AD8
:10226000264B92F878201C7012F0100F1C4618BFF5
:1022700001234FF00005214F214E18BF2370142277
:102280000021384694F8008005F043FB64231822AF
:102290000021304623726372A37284F8008005F037
:1022A00038FB184B1D70184B1D70184B1D70184BC8
:1022B0001D70184B1D7003F0FDFD00F077FB04F05E
:1022C00097F800F09FFA01F0C3FB02F08BFD05F0D8
:1022D00053FA02F007FA04F06FFB02F07DFC00F005
:1022E0007BFB03F09FF903F049F8C8E700ED00E03D
:1022F00000E100E004390020703F0020D4380020C5
:10230000EC380020EA380020E93800201C39002091
:10231000D0380020E83800200E4B82B09A6942F095
:1023200001029A619A6902F001020092009ADA6948
:1023300042F08052DA61DB69074A03F0805301936F
:10234000019B536823F0E06343F00073536002B0D5
:10235000704700BF00100240000001407047FEE7D8
:10236000FEE7FEE7FEE7704770477047FEF762BF83
:1023700008B50120FFF792F9012004F06FFF402219
:10238000014BC3F8802108BD00E100E008B5022040
:10239000FFF784F9022004F061FF8022014BC3F8AB
:1023A000802108BD00E100E008B50820FFF776F9BC
:1023B000082004F053FF4FF40072024BC3F8802151
:1023C00008BD00BF00E100E008B51020FFF766F986
:1023D000102004F043FF4FF48062024BC3F88021C9
:1023E00008BD00BF00E100E04FF080431A69D2074A
:1023F00007D51A6922F001021A6100225A6204F01C
:1024000049B97047084B1A69D2070CD51A6922F0EE
:1024100001021A6100225A624FF00052034BC3F8C6
:10242000802004F077BA70470004004000E100E02B
:1024300010B5064CE3689B0606D56068C0B203F091
:10244000C9FC6FF02003236010BD00BF00380140BD
:1024500008B54FF48060FFF721F94FF40060FFF7F3
:102460001DF94FF48050FFF719F94FF40050FFF7B2
:1024700015F94FF48040FFF711F94FF40040FFF7D2
:102480000DF94FF48072034BC3F88421BDE8084076
:1024900001F01CBB00E100E008B50A4B02461968D8
:1024A00009B9094919606946186802448A4206D97F
:1024B00005F0F6F90C2303604FF0FF3008BD1A60F9
:1024C00008BD00BF94000020A84000200F4B1A68F0
:1024D00042F001021A6059680D4A0A405A601A68AF
:1024E00022F0847222F480321A601A6822F4802268
:1024F0001A605A6822F4FE025A604FF41F029A6072
:102500004FF00062034B9A60704700BF001002401A
:102510000000FFF800ED00E00020704770B51424C3
:102520009AB02246002102A805F0F3F920220021EA
:1025300012A8334E05F0EDF9182200210CA805F081
:10254000E8F92246002107A805F0E3F9B3692D4D0B
:1025500043F40063B361B36902A903F40063019318
:10256000019B41F61F4328460493FFF7FBFB2B68B2
:10257000002423F080032B60AB6912AA43F0080308
:10258000AB6160230121284612931394149415948F
:102590001694179418941994FFF71CFCAB690CA9B6
:1025A00023F00403AB616B68284623F070036B6073
:1025B000AB6823F08003AB604FF400530C9410938E
:1025C0000D940E948DF83C40ADF83E401194FFF709
:1025D000C9FCB36907A943F00403B361B3690A48AE
:1025E00003F004030093009B084B0A94079309230C
:1025F000089302230993FFF7D7FA1AB070BD00BF02
:1026000000100240002C01400008014001000104BC
:102610007FB50021142201A805F07BF9194BDA6976
:1026200042F00102DA61DB6903F001030093009BD1
:10263000154BD868C0F30220FFF76EFF4FF08052B1
:10264000124B0001C0B283F81C0301A91A604FF0BD
:102650008040FFF787FB4FF080431A6822F080022A
:102660001A609A6822F4804222F007029A605A683F
:1026700022F070025A609A6822F080029A6007B0D5
:102680005DF804FB0010024000ED00E000E100E016
:1026900010B586B00021142201A805F03AF9184BB4
:1026A000184CDA6942F00202DA61DB6903F00203D6
:1026B0000093009B144BD868C0F30220FFF72CFF57
:1026C0004FF00052114B0001C0B283F81D0301A965
:1026D0001A602046FFF746FB236823F0800323603F
:1026E000A36823F4804323F00703A360636823F007
:1026F00070036360A36823F08003A36006B010BD7D
:10270000001002400004004000ED00E000E100E0A5
:1027100010B58EB01822002108A805F0FAF814228E
:10272000002103A805F0F5F8254B264C9A6903A96A
:1027300042F480429A619A69204602F480420292F1
:10274000029A9A6942F008029A619B6903F00803B1
:102750000193019B44F24003039309230493032351
:102760000593FFF721FA48F280030393042303A99A
:1027700020460493FFF718FA134A04F530545368BF
:1027800008A943F0040353604FF461230C2208931B
:102790000023204609930A930B930D930C92FFF7A5
:1027A000FBFB236923F490432361636923F02A032D
:1027B0006361E36843F40053E3600EB010BD00BFF3
:1027C00000100240000C014000000140044BD8689A
:1027D000DB68C0F340305B0448BF40F00200704744
:1027E0000010014010B5064C4FF40051204605F092
:1027F00051F82046BDE810404FF4804105F04AB83A
:1028000000100140FFF7EEBF38B50C4C054662786A
:1028100022B920B9FFF7E6FF0023237338BD420633
:1028200004D54FF40051064805F037F82B06F3D5D0
:102830004FF48041024805F030F8EDE7D43800202D
:102840000010014010B5064B04461B78022B06D041
:1028500002F026FE2046BDE81040FFF7D5BF10BDB0
:10286000D43800202DE9F0414FF6FF76FEF792FDB7
:102870001748FEF71BFE4CF25030FEF7A7FD154A35
:10288000134D1369DFF85C8023F00203124F1361CC
:1028900035F80820114BB2422B4416D0FC182946BB
:1028A00000230120FEF7BCFD23461A88B24204D063
:1028B0000023A91C0120FEF7B3FD094B04359D42FE
:1028C000E6D1BDE8F041FEF777BD3B44EDE700BF40
:1028D00000FC0108002002401D3900200204FEF720
:1028E000000002081D3DFE170C4A30B510460C4B87
:1028F0000C4C1D7803F178410133A1F5FE31A34260
:102900005554F6D113780A2B06D00023FF22C25467
:102910000133B3F5806FFAD130BD00BF1D390020FF
:1029200000FC010800000208014B185C704700BF62
:102930001D390020014B1954704700BF1D3900207C
:102940000023F0B40A4C451E25448F18B94204D127
:1029500020448354F0BCFFF785BF3BB9DB0911F875
:10296000016B3344DBB205F8016FEFE70123F6E7B3
:102970001D3900200023F0B50B4C4D1E254487184F
:10298000B84205D12144885CC31A58425841F0BD71
:1029900015F8016F2BB9DB093344DBB200F8016B8A
:1029A000EEE70123F8E700BF1D39002008B500213C
:1029B0006C22074804F0ADFF0649002003F073FBCA
:1029C00020B9BDE80840072002F0C0BD08BD00BF27
:1029D000203D0020583D00200149024804F0A4BCDD
:1029E00004390020403D00202DE9F04F9BB00690B7
:1029F00064220021AE4804F08CFFAE4BAE4A9846EC
:102A000003F108051C4603CCAC421060516023461C
:102A100002F10802F6D120684FF0000B1060A37994
:102A2000A18893719180069B1B78242B40F0D1875D
:102A300001239F4A82F802B0537003229B468DF80F
:102A40003F20002425462646089407949DF83F2001
:102A5000069B13F802A0BAF1000F23D115B1002E86
:102A600008BF0226A20605D5914B1A6B934B9A42DA
:102A700000F39487BBF1000F00F00C82E30740F1F4
:102A800096878B4FFB78012B40F011823869FDF758
:102A9000CFFC85A3D3E90023FDF71EFDFEF714F854
:102AA000386104E2AAF1410309939DF82410192921
:102AB00000F2628701328DF83F200DF13F0110AA2C
:102AC000069801F00DFC002800F05987DDF84090D1
:102AD0004846FDF7ADFC05F0E3FCFDF7D5FFC7B2B6
:102AE0003846FEF7FBF801464846FEF741F87449C0
:102AF000FEF748F9FDF79CFC05F08CFCFDF7C4FFE0
:102B0000BAF1470F80B222D0BAF14D0F00F0DC804D
:102B1000099B192B28D8DFE813F02F014901500138
:102B2000270057015C012700270061016A0173013A
:102B30007C0127008101270088018D019201970106
:102B40009C01270027002700A801AF01B601282F0C
:102B500000F0A0801ED8132F08D8112F75D2042F93
:102B60005DD012D30A2F55D0142475E01C2F51D0FC
:102B700007D8152FF8D84E4BC7F11507DF7006237D
:102B800067E01E2F46D0262FEED1002E40F0FA86A9
:102B9000022620E03D2F78D017D8352F3FD00DD812
:102BA0002B2F01D0312FDFD1002E40F0EB86312FBB
:102BB00064D13F4B9E71082303263EE03B2FD3D8C0
:102BC0003B4B363FDF71092343E05B2F18D85A2F68
:102BD00046D2502FC8D1364B262F5F705ED1A0F160
:102BE000140292B21E2ABFD8364921FA02F2D70740
:102BF000BAD50A27B0FBF7F07638587001231CE0ED
:102C00005C2F07D05E2FAFD8294BC7F15E079F70AE
:102C100005231EE018B9002E40F0B4860126244B8F
:102C200007F0FD021C2A1F7001D05C2F34D108B1BF
:102C30000A2899D1384418700023012202FA03F3BC
:102C4000089A1A422CD0152406E0194B113F5F71E7
:102C500002230028F1D0172420461BB0BDE8F08FD6
:102C600020B9134B5A3F1F710323E6E70A287FF46C
:102C70007BAF5A2F3FF478AF0423DEE70A287FF4B6
:102C800073AF01220A4B9A7195E700287FF46CAF6D
:102C90000A23D2E70723DCE70023DAE70123D8E79A
:102CA000089A1A430892D1E66666666666663940F7
:102CB0008C3D0020203D00208D3D00208096980016
:102CC0000000C842010410400028C4D1092F15D8C3
:102CD000072F3AD2022F29D9052F3FF645AF042FEF
:102CE000A64B2ED0052F2ED010229A720C23012233
:102CF00002FA03F3089A1A42D3D0A4E73F2F31D047
:102D000009D81E2F15D03E2F7FF42EAF01229B4BEA
:102D10001A730F23EBE7432F26D0642F28D0422FBE
:102D20007FF422AF0122954B5A73F2E727B1012FAE
:102D300005D0924B1F7202E00322904B1A720B23B4
:102D4000D5E72022D1E70022CFE7082F8B4B05D013
:102D5000092F05D080225A720D23C8E74022FAE7D6
:102D60000022F8E70222D2E70122844B9A73D0E7CF
:102D70000122824BDA73CCE7804B45F00805C3F89B
:102D800050900D2301279F403C4240F0018640F2C5
:102D9000613141FA03F3D90706D500214846FEF711
:102DA0008FF9002840F0F7853C434FE6734B45F020
:102DB0001005C3F854900E23E4E7704B45F020054E
:102DC000C3F858900F23DDE76C4B83F85C70102339
:102DD000D8E76A4BC3F810900023D3E7674BC3F8DA
:102DE0001490079B43F0010307930123CAE7634B49
:102DF000C3F81890079B43F0020307930223C1E72F
:102E00005E4BC3F81C90079B43F004030793032316
:102E1000B8E75A4B83F82C700423B3E74846FEF713
:102E20008DF9564B18630523ACE7544BC3F8349027
:102E30000623A7E7514BC3F860901123A2E74F4B3D
:102E4000C3F8389007239DE74C4BC3F83C90082308
:102E500098E74B494846FEF751F9002840F0958520
:102E6000464B83F8407009238CE7444B45F001053D
:102E7000C3F844900A2385E7404B45F00205C3F8A8
:102E800048900B237EE73D4B45F00405C3F84C907A
:102E90000C2377E7394FBB78012B17D1022E06D1CF
:102EA0007B78502B03D013B1E70740F1808514F4F1
:102EB000807F08BFD8F81030304F08BFFB633B78E5
:102EC000042B10D161060CD41C24C5E698F80130FF
:102ED000002BECD1E0073FF5D5ADD8F814303B61BD
:102EE000E5E724F040047B79002B41D0012B0CBF97
:102EF000012300230B930CBF002302230A930CBF72
:102F0000022301230993FB78012B3FD0032E05D127
:102F1000BB79012B02D1042D40F04385DFF868E036
:102F200014AFBEE80F000FC79EE80300089B87E8B8
:102F3000030013F4007F114F45D197F80090B9F1C9
:102F40000A0F50D0B9F15C0F00F01581032E40F04C
:102F50004781B9F11E0F00F08181B9F1350F00F002
:102F6000AB81B9F11C0F40F034810649062077E1AE
:102F700002220B9201220A92C4E700BF8C3D00207E
:102F800000007F43A03D0020583D00204FF0000985
:102F9000DFF800A345FA09F3DA070CD5DAF80000E8
:102FA000FDF746FAB4A3D3E90023FDF795FAFDF740
:102FB0008BFDCAF8000009F10109B9F1060F0AF109
:102FC000040AE7D1A2E7F879062801D91D2443E6CF
:102FD00098F806308342B0D014A903F064F80028B2
:102FE000ABD1072438E60DB91A2435E614F0500F9A
:102FF0003FF46AAF786BFDF71BFA05F051FAFDF765
:1030000043FDC0B20628E1D897F82C30142B05D028
:10301000022B7FF4A9AD23063FF5A6AD24F05004A2
:10302000002800F0A1800138C3B2069394490698A5
:1030300003F039F80028D4D04FF0000897F82C306E
:10304000904F0C93DFF838A2BB6EAAF114090D93D0
:10305000203745FA08F2D10715D50C9B142B40F008
:103060008580396B3868FDF783FDDAF83010FDF79D
:103070007FFDB8F1020FCAF8000004D10D99FDF7E9
:1030800077FDC9F81C0008F10108B8F1060F0AF134
:10309000040A07F10407DCD17B4B5F789946502F77
:1030A00040F01081002D40F07F841BF001020ABF28
:1030B00024F4487424F0210424F001040EB124F413
:1030C0007C44714F3B7B23B163067FF5FDAE24F05A
:1030D00040047B7B43B16D4B2340002B3FF4F4AEA7
:1030E00024F4003424F05004BB7B2BB114F4403F93
:1030F0003FF4EAAE24F44034FB7B43B1644B2340FD
:10310000002B3FF4E1AE24F4003424F04004002C02
:1031100040F05984119412941394002A00F06382B1
:10312000089B33F0490340F051843B78352B02D0A3
:10313000002B40F04B84534D53492B692A7A12934C
:103140006B7A11A813438DF84C3000F051FC044603
:1031500000287FF481AD4F4E20350FCE0FC596E885
:10316000030085E8030077E5FB795EE7DAF83020B5
:10317000CAF8002087E7002D3FF436AF4FF0000873
:10318000404FDFF81091BB6EA9F1440A0693203737
:1031900045FA08F1CA071FD514AB53F82810386850
:1031A000FDF7E6FCD9F80010FDF7E2FCB8F1020FDC
:1031B000C9F8000004D10699FDF7DAFCCAF84C0002
:1031C00008F10108B8F1060F07F1040709F1040935
:1031D000DED1002306935FE7396BC9F80010EFE7F3
:1031E000002D3FF4B6AE4FF0000A3B79254A069316
:1031F000936E284F0C9302F1200845FA0AF1CB0791
:103200000CD4D8F8001039600AF1010ABAF1060F9F
:1032100008F1040807F10407EFD19AE6B9F1350F78
:10322000F2D0069B9BB914ABD8F8301053F82A00A3
:10323000FDF7A0FC3968FDF79DFCBAF1020F38607C
:10324000E2D10C99FDF796FC0F4BD864DCE73868A7
:10325000D8F80010FDF78EFC3860D5E70720084944
:1032600002F021FF00283FF4BCAEADB906952E4612
:1032700012E700BFAFF30080666666666666394097
:10328000A03D0020203D00208C3D00205000020089
:1032900040000200D03D00200023BF49BF4845FA4E
:1032A00003F2D70704D49A0057180244126A7A61CD
:1032B0000133062BF3D18CE7B74B5B78012B88D910
:1032C0001E24C9E4022E7FF4F0AE1FB9002D08BF02
:1032D0000026EAE600211869FDF7E8FE002840F024
:1032E00066838C2F10D007D8022F1ED0032F1ED03C
:1032F000012F7FF4DAAEE9E78E2F05D002D38F2FAE
:103300007FF4D3AE4BF0100B7237FFB2012F98BF92
:103310004BF0080B002D3FF467AE1822A049A148DE
:1033200004F0E8FA002836D0BFE64BF0040B002D7D
:103330003FF45AAE0122099B0A9902FA03F38A402C
:1033400013431D4200F036830C93099BDFF84C8237
:1033500009EB830203F1080158F82110506CFDF7C6
:1033600007FC0A9B824609EB830203F10801506CBB
:1033700058F82110FDF7FCFB14F0800207460C9B67
:1033800000F0A3801822864908F1200024F0800470
:1033900004F0B0FA08B921245EE499F80330012B57
:1033A0000CD1D9F83800FDF743F875A3D3E9002311
:1033B000FDF792F8FDF788FBC9F83800764B986B5B
:1033C000FDF736F8804689460022774BFDF784F8F2
:1033D00042464B46FDF780F88046894650465146A6
:1033E000FDF7D0FCFDF724F802460B46404649465F
:1033F000FCF7BEFE8046894638463946FDF7C2FCDA
:10340000FDF716F802460B4640464946FCF7B0FE6B
:10341000FDF75AFB00218046FDF752FE002840F0E0
:10342000CC824046FDF704F805F016F9814688463F
:103430005046394601F018F8FCF7FAFF08F1004849
:1034400002460B4648464146FDF770F9FDF73CFB46
:10345000514BDFF844915B788046032BD9F8383024
:1034600008BF00F10048002118460793FDF728FE29
:10347000079B28B103F1004308F10048C9F8383030
:10348000099B3946043309EB830340460793FDF754
:1034900079FC01465046FDF76BFB4FF07C51FDF780
:1034A00071FC079B514658600A9B4046043309EB68
:1034B0008309FDF767FC3946FDF75CFB4FF07C5153
:1034C000FDF760FCC9F80400EFE507990B4200F036
:1034D000778299F8033024F00E04012B66D00A9B02
:1034E000DFF8B48003F1040908EB8909D9F8041066
:1034F0003846FDF73DFB099B07901F1D08EB87072A
:1035000079685046FDF734FB079B194600F0ACFF85
:10351000D9F804108246786800F0A6FFC8F8380091
:10352000014607465046FDF723FB20F0004A50466F
:10353000FCF77EFF14A3D3E9002380468946FDF7FC
:103540005BFA00283FF4B1AD4FF07C515046FDF7D7
:10355000D5FD00287FF41FAF3846FCF769FF0CA3A8
:10356000D3E90023FCF7B8FF02460B464046494624
:10357000FDF742FA00287FF40EAF96E5AFF3008026
:1035800066666666666639407B14AE47E17A743FCC
:10359000FCA9F1D24D62503F8C3D0020203D00201F
:1035A000D03D0020403D0020000010409046DFF854
:1035B0000493079B43FA08F3DA070CD5D9F8000007
:1035C000FCF736FFB2A3D3E90023FCF785FFFDF734
:1035D0007BFAC9F8000008F10108B8F1060F09F1FB
:1035E0000409E6D17BE7AC4BAC4C93F8783013F090
:1035F000020F0DD07B78013B022B88BF4BF0400BB4
:10360000002D00F0EC80022E40F0E9804BF0800BA2
:103610003B6BE361BB78637013B108238DF84C30CA
:103620003B69D7F83C806361414620691193FDF7FF
:103630003DFD0BF0400510B11BF0200F0CD0607A5F
:1036400040B11BF0800F05D1002D00F0DC8000217F
:1036500002F08CFFFB6B23610DB92369129397F87D
:103660004030B87A2376637A834204D0129902F00C
:103670007DFFBB7A63729DF84C30627A787A13438F
:103680008DF84C30237A834206D0FFF7DBF87B7A43
:10369000002B40F0BA8023729DF84C30227A1343FD
:1036A0008DF84C303B78042B02D1786B00F04CFD48
:1036B0007B79032E2371FB78A3700DD1BB796371E5
:1036C0000BB90023FB64FD6CA06E2946FDF7EEFCF0
:1036D00010B9A56603F010FEFB79A2799A420CD0CE
:1036E0006F4D0DF1500EA371BEE80F000FC59EE89F
:1036F000030085E8030003F0FFFD3B79E3703B78AE
:10370000262B00F0BF8000F283801C2B00F0A080ED
:103710001E2B00F09D800A2B00F084807B78502BBC
:10372000237010D0022E0ED1012B40F0CF8011A9B2
:103730005C4800F021FB5C4D5A4E0FCE0FC596E859
:10374000030085E803003B7AE37183B101F0A8FE32
:10375000E379032B554B40F0EB801B78022B04D010
:10376000082003F00DFE01F033FD0023E3713C7BE4
:1037700054B1786BFCF75CFE04F092FEFDF784F91F
:103780002146C0B204F00EF87B7B6BB1786BFCF77E
:103790004FFE04F085FEFDF777F997F82C40444A78
:1037A0002146C0B204F028F8BB7B23B1404997F80A
:1037B0005C0004F020F8FC7B002C3FF44DAA786BF1
:1037C000FCF736FE04F06CFEFDF75EF93849C0B236
:1037D00002F0A8FD002400F085FFFFF73DBA637AF0
:1037E000102B7FF415AF2378013B022B0BF0400325
:1037F00005D8002B3FF40CAF4BF0200B08E7002B53
:103800007FF406AFF8E7414622E7227A134342E706
:103810005C2B51D0662B53D0282B7FF47FAF2249ED
:10382000072031E02349069802F064FBA379069A49
:1038300093427FF473AF1A4DDFF878E0BEE80F00D3
:103840000FC59EE8030085E8030003F055FD65E71A
:103850009DF84C3043F001038DF84C301EB111A996
:10386000104800F089FA11A9124800F085FA0E4DAF
:10387000DFF840E0BEE80F000FC59EE8030085E8D2
:1038800003004BE70620084902F034FB46E700BF7F
:103890006666666666663940703F0020203D0020FF
:1038A000583D0020D03D0020403D0020D43800206D
:1038B000EC3D0020A03D0020484DDFF82CE1BDE7A5
:1038C00018220021454804F024F8BEE733B99DF8DA
:1038D0004C3043F001038DF84C3028E7023B012BBC
:1038E00012D8CBF3800304930B9B3D4A03930A9BAE
:1038F00011A90293099B0193BB6B0093394B03F110
:10390000300000F06DFA16E79DF84C305A4643F04F
:10391000040311A934488DF84C3000F04FFC002806
:103920003FF409AF01287FF40EAFFFF755F80AE71F
:1039300001222270642200251A725A729A721B7830
:103940002571022BE5706570A571657225720FD027
:103950002649284602F0A7FB00283FF442AB03F0BB
:10396000CBFC2846002102F0D5FD2846FEF74CFF8F
:10397000082001F013FEF8E60124FFF76DB90224D8
:10398000FFF76AB91824FFF767B92624FFF764B96F
:103990001924FFF761B90424FFF75EB91B24FFF770
:1039A0005BB92524FFF758B91F24FFF755B9162432
:1039B000FFF752B92024FFF74FB92224FFF74CB983
:1039C0002324FFF749B92424FFF746B91024FFF751
:1039D00043B98DF83FB0FFF734B800BF703D002009
:1039E000403D0020A03D0020D03D0020583D00205B
:1039F00038B50B6905460360037A01F1440443F0CE
:103A000004030372104B93F8783013F0200F10D199
:103A100029460E4D204600F0AFF92C7884B900F00D
:103A200091FE68B120232B7003F04AF802F0B0FD3C
:103A300007E0204603F086FC0028E9D00F2400E0D0
:103A40000024204638BD00BF703F0020D43800203D
:103A5000054B93F878301B075EBF4FF48072034B21
:103A6000C3F88420704700BF703F002000E100E0F1
:103A70004FF48072014BC3F88420704700E100E0EE
:103A800030B50F4B0F4A9B6892F878209BB25206D4
:103A900058BF83F47C438BB10022012410460A49AD
:103AA00031F812502B421CBF04FA02F5284302F1F0
:103AB000010218BFC0B2062AF2D130BD184630BD8F
:103AC000000C0140703F0020FE99000808B5094B2A
:103AD0001B78012B0CD0084B1B784BB9FFF7D0FF9C
:103AE00030B100F0D3FBBDE80840012003F0E2BD97
:103AF00008BD00BFD43800201C3900202DE9F04F4C
:103B0000864B8FB05C7883460193002C40F0B580E3
:103B1000062300254FF000084FF04049DFF814A2BB
:103B20000494029403948DF810303AF8143005AAE6
:103B300022F814304BFA04F3D80718D5784B03EB6E
:103B40008403986CFCF774FC42464B46FCF7C4FCBB
:103B500006460F462846FCF76BFC32463B46FCF710
:103B60004BFF20B930463946FCF7AEFF054601341D
:103B7000062CDAD104240127694ED6F880A00DF175
:103B800020084046674903F0CFFB002003468146EA
:103B9000864696F879C005F100424BFA03F1C90751
:103BA00015D56049013041F823E04CFA03F1C9070B
:103BB000C0B203D527B148F8232003E0002FFAD084
:103BC00048F8235005A931F8131049EA01090133D7
:103BD000062BE2D1FDF77EF804F094FD019B01462F
:103BE000A3F806905046FDF7CDF802A9029008A868
:103BF00000F06EFE0423019A41F60668137102F08C
:103C00005FFF02F0C5FC484DA7B1FFF739FF002365
:103C100005AA32F8132012EA090F05D040FA03F181
:103C2000C90748BF29EA02090133062BF0D1019BDD
:103C3000A3F8069002F044FF2B7813F0340F5AD00B
:103C40002D78EDB2EB0602D5062003F033FDA80671
:103C500002D5072003F02EFD002F5AD1FFF710FFE9
:103C60001BEA000F02D0082003F024FD2F4B1B7825
:103C700033B100F00BFB01F0ABFA0FB0BDE8F08FF1
:103C8000042003F00DFD02F097FEB6F8840000F06A
:103C9000E1FB97F0010732D02549D6F88800FDF7FF
:103CA00071F80546D6F87CA0013C14F0FF047FF4BF
:103CB00066AF1B4D1B4F4BFA04F3D90712D596F88C
:103CC00079302341DA071FD5D6F88810A86CFCF7A5
:103CD00051FF2968FDF756F8FCF7AAFB04F058FBE2
:103CE00047F824000134062C05F10405E3D1002334
:103CF000019A1371C1E719EA080F85D1C3E7D6F815
:103D00008850D6F880A0CFE7D6F8880000F10040B0
:103D1000DFE76B07AAD50920A6E700BFD43800204B
:103D2000703F002004390020E93800201C390020B1
:103D30000000A0400A9A000810B503F003FBC0B1D0
:103D400001220C4C2078E270082808D000F09EFA7E
:103D5000022003F0AFFCBDE8104001F039BA03F0D7
:103D60000FFB01F035FA63781BB92378002BF8D1EB
:103D7000ECE710BDD4380020F8B5174C074694F88E
:103D800078200D4612F0200F144E04D03378202BEB
:103D900001D0FFF7D1FF3378022B1BD001F018FAC6
:103DA0007378BBB900F0F8FC10B101F053F8F5E7F7
:103DB0002946384600F08CFD60B994F878309A07AF
:103DC00008D52B7ADB0605D569681020BDE8F840D8
:103DD00002F0CCBBF8BD00BF703F0020D4380020FB
:103DE0002DE9F04F1C468FB09DF864500192AB0056
:103DF0001A44E31854F825700993019B039002912B
:103E0000384653F825100892FCF7B4FE9DF86880F8
:103E1000019A4FEA88031A44E3180B9354F8284098
:103E2000019B049053F8281020460A92FCF7A2FE4A
:103E3000039B0499059053F82500FCF799FE039B1A
:103E40000546059953F82800FCF792FE07F1004754
:103E5000804629463846FCF795FF04F10044824627
:103E600041462046FCF78EFF01465046FCF782FE95
:103E7000414682463846FCF785FF29468046204663
:103E8000FCF780FF01464046FCF772FE5146189E43
:103E90009DF86CB09DF8709004F032FC0546B9F1C5
:103EA000000F4ED0FCF7C4FA9BA3D3E90023804651
:103EB0008946FCF797FD48B199A3D3E90023404612
:103EC0004946FCF755F9FCF7FFFD05469A4B31468C
:103ED000D3F86C803046FCF74DFE4146FCF748FEB7
:103EE0004146FCF74FFF04F00DFC82462846FCF7E4
:103EF0009FFA0022914BFCF7EFFA80463046894644
:103F0000FCF796FA02460B4640464946FCF7E4FAAF
:103F10008046504621F00046FCF78AFA02460B46DE
:103F200040463146FCF702FC04F0AEF9FCF7ACFD6C
:103F300086B2CEB9029903980FB0BDE8F04FFFF7F3
:103F40001BBFFCF775FA78A3D3E9002380468946A6
:103F5000FCF73EFD0028B9D071A3D3E90023404609
:103F60004946FCF707F9AEE7029B93F8088018F082
:103F7000080F0DD03046FCF7B1FE029B01461868D1
:103F8000FCF700FF029B28F00808186083F80880FF
:103F90003046FCF7A3FE804601462846FCF7A6FF04
:103FA000019B824603EB8B030693019B53F82B1076
:103FB000039B53F82B00FCF7DBFD4146FCF796FF13
:103FC00051460C905046FCF7DDFE01464FF0804014
:103FD000FCF7CEFD05465046FCF72AFA54A3D3E978
:103FE0000023FCF779FA804628468946FCF720FA38
:103FF0000022534BFCF7BEF802460B4640464946AA
:10400000FCF76AFAFCF760FD4FF07C5107902846F8
:10401000FCF7B8FE012580464FF00009ABB29E4286
:1040200088D9B9F10B0F3FD807993846FCF7AAFE9B
:10403000414683462046FCF7A5FE01465846FCF75C
:1040400099FD414683463846FCF79CFE0799074692
:104050002046FCF797FE01463846FCF789FD5C4692
:10406000074609F101095FFA89F904993846FCF716
:1040700081FD089B059918602046FCF77BFD0A9B93
:104080000C991860069B01351868FCF773FD069BB8
:10409000029918600198FFF76FFE2A4B5B78002B9E
:1040A000BCD00FB0BDE8F08F2846FCF717FE514694
:1040B000FCF768FE074604F065FA0446384604F04B
:1040C00095FA099B0B9A1B68834603F10043194636
:1040D0002046D2F800900D93FCF754FE494607465F
:1040E0005846FCF74FFE01463846FCF743FD0D9B52
:1040F000074619465846FCF745FE49468346204682
:10410000FCF740FE01465846FCF732FD4FF000092F
:104110000446AAE7AFF300808DEDB5A0F7C6A0BEB8
:10412000182D4454FB2119408DEDB5A0F7C6A03ED3
:104130004BDA7D5C5555C53F703F00200000E03FE5
:1041400000001040D438002010B5074B04461B78FF
:10415000022B07D001F0A4F92046BDE81040002151
:1041600000F054B910BD00BFD438002010B504468B
:10417000FFF77EFCBCB12046FFF7C0FC01F028F839
:104180000C4B5B78A3B9FEF727FC00F025FD4FF43C
:104190007C42094B28205A61FDF7C6F8BDE8104063
:1041A0002820FDF79FB80420FFF7A8FC0320E3E7D1
:1041B00010BD00BFD4380020000401402DE9F843B1
:1041C0002E4C064623788946022B9046274652D02D
:1041D00001F066F9657815B10220BDE8F883C8F3EF
:1041E000C000657100F004FE00F008FE40B104203C
:1041F00003F060FA00F0ECFF284600F0F9FDEBE771
:1042000030464946FFF7B8FD01231D4E02203370AA
:1042100003F0B6F800F0DCFF7B78002BDCD13B78B4
:10422000002BF7D13378012B22D118F0100F1BD0BF
:10423000144C154D0FCD0FC495E8030084E803001E
:104240000020307000F0D4FD00F0C2FF02F0B4FB9B
:1042500000F048FA00F0C0FC01F0B0FA78790030C4
:1042600018BF0120BDE8F883052003F023FAE7E733
:1042700001237B71E4E70020BDE8F883D4380020F7
:10428000EA380020EC3800200439002008B5114B32
:104290001B78DB061DD4102003F072F802F0A0F8A2
:1042A000FEF7A0FA0C4A137813F02C0F03D1127901
:1042B00012F0060F0DD0042B09D1084B1B7813B94F
:1042C000062003F0F7F9BDE8084002F0A5B9032085
:1042D000F7E708BDE9380020D43800201C39002059
:1042E0002DE9F74F0B789346C218C35C06462D2B79
:1042F0008A4618D101275378951C00210A460C469E
:104300000846303BDBB2092B19D80132D2B2082A59
:1043100010D809B1013C64B200EB800003EB40000F
:1043200015F8013BEDE72B2B12BF551C951C53785C
:104330000027E2E70029F3D1013464B2F0E7FE2B55
:1043400002D109B90121EBE71AB3FCF7C3FC002144
:104350000190FCF7ABFE019B88B90FF27C09D9E90B
:104360000089621C19DB25D11846FCF761F81CA3F3
:10437000D3E90023FCF7B0F8FCF7A6FB03460FB126
:1043800003F100430122AD1B013DCBF800308AF858
:104390000050104603B0BDE8F08F1846FCF748F80F
:1043A0004B464246FCF798F8FCF78EFB0234034676
:1043B00064B2D6E7002CE2D0DFF82C8018464146E4
:1043C000FCF7E0FC013CE2B2034654B2002AF5D10E
:1043D000D5E700BFAFF300807B14AE47E17A843F9E
:1043E0009A9999999999B93F000020414FF47A72AE
:1043F000054B1B68B3FBF2F300229A4200D17047D1
:1044000000BF0132F9E700BF0800002070B50E467A
:104410000E49FCF7B7FCFCF70BF803F0B1FEFCF714
:1044200033FB0B4D84B27CB16B786BB93EB900F0B5
:10443000CFFE3220013CFFF7D9FFA4B2F3E700F032
:1044400013FDAB789B07F4D570BD00BF0000A04101
:10445000D4380020014608B501B908BD0120FFF796
:10446000C5FF013989B2F7E738B50D460146FCF7BB
:1044700089FC294604462846FCF784FC0146204670
:10448000FCF778FBBDE8384004F03CB92DE9F8436F
:104490000026041F2546B14600F1140755F8048F85
:1044A00049464046FCF702FE40B941464046FCF70B
:1044B00069FC01463046FCF75DFB0646BD42EDD186
:1044C000304604F01FF9014606464FF07E50FCF7D7
:1044D0000DFD074661683846FCF754FC44F8040FAC
:1044E000AC42F7D13046BDE8F88300002DE9F8432F
:1044F0000746884600244FF000090D4D58F8246007
:1045000049463046FCF7D2FD60B9314657F82400E1
:10451000FCF7ECFC20F0004629463046FCF7EEFDA7
:1045200000B935460134062CE8D12846BDE8F883A9
:10453000FFFF7F7F2DE9F04F5C4F5D4E3C7896F892
:104540000090002C08BFC824013CE4B2A14585B00E
:104550003CD0584D4FEA841805EB080BDBF82810C7
:10456000DBF824A00846FCF705FBDBF82C10FCF771
:1045700009FC834601465046FCF7A2FD00B9DA4625
:10458000002C08BFC824013CE4B2A844A145C8F8E7
:1045900020A04CD1484B1B784B4501D102F07AFA50
:1045A00096F800A04FF000080AF10104E4B2C82C0C
:1045B00008BF00243B7805EB8A1B0393039B9C42B6
:1045C0003CD1B8F1000F01D086F800A005B0BDE8DD
:1045D000F08F002CA24605EB841B08BFC824364B85
:1045E000013C1B78E4B2A34201D102F053FA05EB7F
:1045F0008A1ADAF82490DAF820004946FCF756FDCA
:10460000A0B9DAF828100846FCF7B4FADAF82C104A
:10461000FCF7B8FBD8F82010FCF7ACFA804601464E
:104620004846FCF76BFD30B1CAF82080D846337895
:10463000A342CED1B4E7CAF82090F7E7DBF82030E8
:10464000A70105EB07090193D9F820300198194615
:104650000293FCF735FDB0B1DBF828100846FCF7F3
:1046600089FADBF82C10FCF78DFB0199FCF782FA34
:10467000834601460298FCF741FD20B1A2464FF067
:104680000108C9F820B02F44796A386AFCF70EFD9A
:10469000002818BFA24604F10104E4B218BF4FF08D
:1046A0000108C82C08BF0024CB4687E798320020B9
:1046B00099320020980000209A3200200023012126
:1046C000044A1370044A1370044A1170044A1370A8
:1046D000704700BF9A320020983200209B320020A1
:1046E0009932002008B534220021034803F011F963
:1046F000BDE80840FFF7E2BF9C32002010B5094B2F
:10470000094A197812788A421A460AD04B1CDBB241
:10471000C82B08BF00230548137004788C4208BFDB
:10472000037010BD9A320020983200209932002088
:10473000024B1878024B03EB801070479832002030
:1047400098000020054B064A1B7812789A421ABF3F
:10475000044800EB83100020704700BF9A3200200D
:104760009832002098000020084B094A1B781278E4
:104770000133DBB2C82B08BF00239A421DBF054A94
:1047800002EB8313186A0020704700BF9A320020A2
:104790009832002098000020034B1878034B1B78B8
:1047A000C31A5842584170479A3200209B32002069
:1047B000F8B5437F0546DA07846B20D5244B587A39
:1047C000FBF724FE20A3D3E90023FBF785FE064672
:1047D00020460F46FBF72CFE02460B463046394674
:1047E000FBF77AFEFCF770F904464FF07E51204645
:1047F000FCF784FC08B94FF07E542046F8BD5B07F7
:1048000016D4134B187AFBF701FE0FA3D3E900234C
:10481000FBF762FE064620460F46FBF709FE0246FE
:104820000B4630463946FBF757FEFCF74DF9044678
:104830006D6B20462946FCF761FC0028D5D02C463C
:10484000D3E700BFAFF300807B14AE47E17A843F2B
:10485000D43800202DE9F047184B194E1C78194B1D
:10486000DFF8688093F800904C4503D1164B1E6327
:10487000BDE8F087A50108EB050A5046FFF798FF51
:10488000074601463046FCF71BFCA0B131463046D6
:10489000FCF778FA45442E6BCAF824003146686A62
:1048A000FCF72CFC00B16E620134E4B2C82C08BFE6
:1048B00000243E46D8E739463846E9E79A320020D8
:1048C000FFFF7F7F983200209C320020980000205C
:1048D0002DE9F04FB24C8A462678B24DB6019DB014
:1048E000AF19029040220021384603F012F84FF031
:1048F00000089AF80830DAF8042013F0020F14BF09
:10490000DFF8D0E2DFF8B0E201947B77FA630AAC1B
:10491000BEE80F000FC49EE8030084E80300DFF840
:10492000B0B2029B5BF8281053F82800FCF72AFA73
:10493000FBF77EFD03F02CFD04AB43F828000AAB27
:1049400053F82830C01A80EAE074A4EBE074AB1985
:1049500047F82840996903938C4238BF0C469C6104
:10496000FCF7BCF95BF82810FCF7C0FAA14610ACC4
:1049700044F828000021FCF7A3FB039B28B18A49D7
:1049800011F81800197F0143197708F10108B8F1EF
:10499000060FC6D1B9F1000F00F0F4802046FFF7F2
:1049A00075FD05EB0609C9F82C0021467F48FFF785
:1049B0009DFD2146C9F828007D48FFF797FD99F82D
:1049C0001D80C9F8340018F0010F51D0C9F8380023
:1049D000019B4FF0000A1A78764B1B789A4202D05E
:1049E00018F0020850D0AB19C3F820A0C3F830A0CB
:1049F00005EB060999F81D309B0737D43846FFF7B9
:104A0000D7FE6D4F8046D7F830A05146FCF776FBB5
:104A1000002800F0B48051465046FCF7B3F9354405
:104A20002E6BC9F824003146686AFCF767FB00B1B9
:104A30006E62624D0FCCC7F830800FC594E803005A
:104A400004AC85E803000FCC283D0FC594E80300B3
:104A50005B4A85E80300137801990B700133DBB2E0
:104A6000C82B08BF00231370FFF764FD01208AE004
:104A7000DAF8001018F0080FC9F83810A8D0D9F8E3
:104A80002C00FCF77FF9A1E7D1460DF1580B4A4BFA
:104A900043449A6954F80830104619460393029229
:104AA000FCF770F901464846FCF762F8029A039B4E
:104AB000814611461846FCF75BF84BF8080008F1F0
:104AC0000408B8F1180FE2D14846FBF7B1FC30A357
:104AD000D3E9002380468946FBF78EFF08B1AB1966
:104AE00084E72DA3D3E9002340464946FBF766FF40
:104AF00018B1344AAB191A637AE75846FFF7C6FC77
:104B000059462A48FFF7F2FC42464B4683462E4957
:104B10000020FBF72DFB00222C4BFBF7DDFCFBF705
:104B2000D3FF03F0EFFD8246294B5846996EFCF700
:104B300029F95146FCF726F9FBF77AFC80465046E6
:104B40008946FBF775FC02460B4600201E49FBF721
:104B50000FFB02460B4640464946FBF7E7FD0022A5
:104B6000002380468946FBF729FF30B94046494675
:104B7000FBF7AAFFAB1918633AE70020FAE74146B2
:104B800040464AE748461DB0BDE8F08FAFF30080CD
:104B9000E90B21E7FDFFEF3FE90B21E7FDFFEFBF49
:104BA0009832002098000020F29900081840002058
:104BB000883F00209A3200209C320020B43200202E
:104BC0009B320020FFFF7F7F0000F03F0000E03FAE
:104BD000703F0020043900200023054A054850F8A2
:104BE000231042F823100133062BF8D1704700BF81
:104BF0009C32002004390020064B1A78064B1B78A3
:104C00009A422CBFA3F1390003F1FF30801AC0B2E1
:104C1000704700BF983200209A32002008B501F09A
:104C200039FF044B1A78044B1A70BDE80840FFF7AF
:104C300081BC00BF9A3200209932002010B5441E7A
:104C400014F8010F00B910BD01F0A9F8F8E76328C6
:104C500038B51DD90A24B0FBF4F304FB1304303437
:104C6000E4B2D8B20A25B0FBF5F305FB13053035E5
:104C7000EDB2D8B23030C0B201F091F815B128468B
:104C800001F08DF854B12046BDE8384001F087B8F6
:104C900009284FF00004E5D82546EBE738BD0000B1
:104CA000F0B50D4685B000210446FCF709FA20B1A5
:104CB0002D2001F074F804F100442E46284F012EF7
:104CC0002AD86B08C3EBC31305EB430313F0FF0FA4
:104CD00004D020462349FCF755F804464FF07C5198
:104CE0002046FBF747FFFCF729FA00230A22DCB233
:104CF0000133C8B93022631E6B44AC421FD306D1C6
:104D000004AA631C1444302204F8102CDCB20DEB0E
:104D10000406CCB905B0F0BD20463946FCF732F8A0
:104D2000023E0446F6B2CAE704A90C44B0FBF2F115
:104D300002FB1100303004F8100C0846D7E70134AC
:104D4000E4B203F8012FD8E7AC4202D12E2001F0E3
:104D500026F816F8010D013C01F021F8E4B2D8E77D
:104D60000000C8420000204108B50D4B93F8783090
:104D7000DB070DD5FBF75CFB07A3D3E90023FBF7AB
:104D8000ABFBFBF7A1FE0421BDE80840FFF788BF9D
:104D90000321F9E7AFF300806568E1575128A43F8C
:104DA000703F00200000000008B50D4B93F878100C
:104DB00011F0010109D0FBF73BFB07A3D3E9002366
:104DC000FBF78AFBFBF780FE0121BDE80840FFF7F7
:104DD00067BF00BFAFF300806568E1575128A43F6B
:104DE000703F00200022014B1A707047F03D0020F8
:104DF0000022014B1A707047F03D0020044B054A19
:104E00009B68107803F400431B1A584258417047BE
:104E100000080140F03D002038B5FFF7EFFF78B102
:104E20000022084B084C094D1A700FCD0FC495E8AD
:104E30000300074A84E80300137843F0400313702B
:104E400038BD00BFEA380020EC38002004390020CB
:104E5000E938002008B5FFF775FC20B1BDE808402F
:104E6000022002F08DBA08BDF8B5384B384C1B78DB
:104E7000384E03F0FF054BB101272846013D27704E
:104E800000F07AFBBD420CD902F01EFC337803F02F
:104E9000FF05002B00F0BA80E8060CD501236370F3
:104EA000F8BD384600F07AFB102002F0F9FB3378A9
:104EB000DD06FCD5E8E7E90704D500F0E5FD0120B3
:104EC00002F0EEFB15F0E80F5AD023786EB213F023
:104ED000030F47D113F0280F10D0A37813F0C00FA1
:104EE0000CD101F0D7FD022323712378202B05D1AB
:104EF000002E07DBA37863F07F03A37023780BB940
:104F00000122A2706A0605D59F065EBFA27842F014
:104F10004002A270280704D513F0E00F04BF10234D
:104F20002370A9061ED5062000F038FBA3781A06C8
:104F300014D42278402A0FD11F0704D523F01C0374
:104F400043F00203A3704023237007E01C390020C4
:104F5000D4380020E9380020802AF4D1A37843F027
:104F60002003A370002E08DA2378012B02BFA37858
:104F700043F00503A37080232370E82002F090FB28
:104F8000A80723D515F0680F1DD12378402B07D132
:104F9000A37813F0200203D1D90640F1D480227007
:104FA0002378002B00F0D580DF060CD5A278D60739
:104FB00009D5102B40F0CD80E37A002B00F0C9809A
:104FC00043F00803E372022002F06AFB68071DD574
:104FD000237813F0D00F00F0D180E378002B40F05D
:104FE000CD8094F90230002BC0F2C880FFF716FE86
:104FF0002379990748BFA27823F0060344BF42F003
:105000000102A2702371042002F04AFB6D4B1B7851
:1050100003F0FF05002B38D002F072FB207A15F068
:10502000010F0CBF03466423AA0744BF0A33DBB257
:105030006F0744BF0A3BDBB22E0744BF0133DBB22C
:10504000E90644BF03F1FF33DBB2C82B28BFC823F6
:105050000A2B38BF0A23617A15F0200F14BF64228F
:105060000A4615F0400F18BF322215F0800F18BF06
:105070001922984201D18A4207D02372002362721A
:105080002373FFF7E7FBFFF7C9FD4F4B1B7803F0D6
:10509000FF06002B4FD002F03BFBA27A16F0010F67
:1050A0000CBF13466423B70744BF0A33DBB275074E
:1050B00044BF0A3BDBB2300744BF0133DBB2F10629
:1050C00044BF03F1FF33DBB2C82B28BFC8230A2B30
:1050D00038BF0A239A4206D0A37200232279237391
:1050E00042F008022271B70607D52378102B04D1AD
:1050F000E37A002B5FD10223E37216F0C00F1AD0BF
:10510000237813B113F0180F15D0304F30063D7AC5
:1051100005D529064CBF05F07F0545F080057206D0
:1051200005D56B064CBF05F0BF0545F04005284688
:10513000FDF76AFB3D72237813F0FC0F40D0BDE809
:10514000F84001F0BDBC5A0744BF43F00803A37008
:1051500026E700232371FFF7F5FA58B1A37813F07F
:10516000400307D1A3700823237001F0A9FC01F0CC
:105170000FFA28E70023A370237024E794F9023084
:10518000002B09DA00232371FFF7ACFA01F014FCBD
:10519000FDF722FCFFF720FDA37813F020021FBFCC
:1051A00003F07F0343F00103A37040230ABFA27002
:1051B0002370227027E7DD079FD543F004039BE7A8
:1051C000F8BD00BFD0380020E8380020203D002086
:1051D0002DE9F84F664CFFF747FEA378ABB1FFF718
:1051E000B1FAA0B9634B5D7A1A7A1F691543624E12
:1051F00096F878309B0702D5202002F077FA4FF01E
:1052000000084FF0814AA37823B9BDE8F88F457FA5
:10521000C76BECE794F80190B9F1000FF5D1D8070E
:1052200015D5217811F0C00067D013F0040B11D10F
:105230004146584684F80BB001F06CF95846FDF72A
:10524000E3FAA37823F0020343F00403A370FFF70B
:105250000BFED8E7802912D10B2000F09FF9002126
:10526000484601F057F94846FDF7CEFA01F0D4F967
:1052700063780BB1BDE8F88FFFF7F6FDF8E740293A
:1052800006D102F019F818B9A37823F02003A3700F
:10529000A3781907DBD5DFF8DCB09BF809204AB109
:1052A0009A0707D496F878309B071CD5237943F0EA
:1052B000080323719BF808305BB1A378980708D4E2
:1052C00005F04000FDF7A0FA01214FF07E50FFF7F6
:1052D0009DF8A3789907BAD443F010030220A37075
:1052E00002F04EF8B3E7394605F0300001F012F94C
:1052F00001215046FFF78AF8DCE7E37A4BB39A07BF
:1053000008D51C4B5B7AE3B1414601F003F9012358
:10531000E3729CE713F00C0F99D0164B5B7A53B1F4
:105320000A2000F03BF996F8783099070BD52379DD
:1053300043F008032371E37A1A0702D5022002F032
:105340001FF80023E4E7394605F0300001F0E2F8E9
:10535000F1E723791B077FF57AAF394605F0300076
:1053600001F0D8F8237923F0080323716FE700BF19
:10537000D4380020203D0020703F00202DE9F0416E
:10538000434B444E93F8783013F0080F07D0FEF7E4
:1053900077FB20B101230720337000F0FFF833784A
:1053A00013F0810314D0022000F0F8F801233370C9
:1053B00000242546384F00F0F5FCFF2817D1FFF7F1
:1053C00049FDFFF705FF7378002BF4D0BDE8F081AD
:1053D000337001F071FF30B1304A137843F020038D
:1053E0001370FFF7F5FE2C4801F06CFFE0E70A2888
:1053F00001D00D282AD1FFF7EBFE96F80180B8F115
:10540000000FE3D115F0010507F8048005D00B204B
:1054100000F09CF844462546CDE73C781CB9204670
:1054200000F094F8F7E7242C06D1384601F0B2FFDB
:1054300000F08CF82C46EEE7337813F0210401D00D
:105440000920F5E73846FDF7CFFAE9E735B1292815
:10545000B1D1AB07AFD505F0FD05ACE72028AAD93F
:105460002F28A8D028280DD03B280DD04E2C0DD8A1
:10547000A0F16103DBB2192B98BF2038631C3855AB
:10548000DCB298E7022596E7042594E7012592E728
:10549000703F0020D4380020D0320020E9380020AE
:1054A00010B5FFF7D7FC064CFFF792FE637833B9CF
:1054B000FFF748F90028F7D12378082BF4D010BD66
:1054C000D43800200148FFF7B9BB00BF6999000834
:1054D00008B55D2000F063FCBDE80840FFF7F2BFAF
:1054E00038B50546002455F82400FFF73DFC052C8F
:1054F00002D02C2000F053FC0134062CF3D138BD2F
:1055000010B50446242000F04AFC2046FFF79FFB1C
:10551000BDE810403D2000F042BC10B50C46FFF73E
:10552000EFFFE0B2FFF793FBBDE81040FFF7CABF03
:1055300038B50C461546FFF7E3FF29462046FFF72E
:10554000AFFBBDE83840FFF7BDBF000010B5044613
:1055500020B9BDE810400648FFF770BB0548FFF7CB
:105560006DFB2046FFF773FBBDE81040FFF7AABFB5
:10557000E6990008EB99000810B504460648FFF7C5
:105580005DFB2046FFF763FBFFF79CFFBDE8104083
:105590004FF4FA70FEF75EBF2498000810B5044679
:1055A0001448FFF74BFB601E0A280AD8DFE800F01A
:1055B000060D0F11131517191B1D1F000E48FFF7BD
:1055C0003DFBBDE81040FFF783BF0C48F7E70C48F0
:1055D000F5E70C48F3E70C48F1E70C48EFE70C4817
:1055E000EDE70C48EBE70C48E9E70C48E7E70C4827
:1055F000E5E700BF4A980008509800086298000844
:1056000076980008889800089098000899980008F3
:10561000A4980008B1980008B9980008CC98000830
:10562000DE9800080148FFF709BB00BF4A9900084F
:105630000148FFF703BB00BF009900082DE9F047C0
:105640005C4C0322216E0020FFF772FF94F8661075
:105650000120FFF762FF94F864100220FFF75DFF5E
:1056600094F865100320FFF758FF94F87810042091
:10567000C1F38001FFF751FF94F878100520C1F3C2
:105680008011FFF74AFF94F978100620C90FFFF741
:1056900044FF94F867100A20FFF73FFF0322A16E32
:1056A0000B20FFF745FF0322E16E0C20FFF740FFC0
:1056B00094F878100D2001F00101FFF72EFF94F807
:1056C00078101420C1F34011FFF727FF94F87810E9
:1056D0001520C1F3C001FFF720FF94F878101620C1
:1056E000C1F30011FFF719FF94F879101720FFF7A5
:1056F00014FF0322E16F1820FFF71AFF0322D4F8EA
:1057000080101920FFF714FFB4F884101A20FFF757
:1057100004FF0322D4F888101B20FFF709FF0022A2
:10572000216F1E20FFF704FF0022616F1F20FFF78B
:10573000FFFE94F878102020C1F34001FFF7EDFE42
:105740000322D4F88C102820FFF7F2FE4FF0000956
:105750006425DFF864A02C4605F10608154E5FFAB3
:1057600089F75FFA88F8022F17D0032F1CD0032285
:10577000012F14BF3168B16920460134E4B2FFF74C
:10578000D7FE444506F10406EDD10A35EDB28C2D65
:1057900009F10109DFD1BDE8F0875146306BFBF715
:1057A000A5FB03220146E7E7B16C3A4601F100414F
:1057B000E2E700BF703F0020000061457FB50B4865
:1057C000FFF73CFA0A49684601F0AEFD6846FFF76C
:1057D00087FE3A2000F0E3FA064B5879FFF737FAD4
:1057E000FFF776FE07B05DF804FB00BF8199000863
:1057F000EC380020D43800202DE9F0410025234E5C
:10580000234FDFF8A48086B0ECB26946204600F052
:105810004AFC50B91F48FFF711FA0720FFF717FAA3
:10582000FFF750FE06B0BDE8F0813046FFF706FAFC
:10583000062C07D0072C27D004F13600C0B2FFF7A2
:1058400006FA02E03846FFF7F9F93A2000F0A7FA25
:1058500001356846FFF744FEFFF73AFE082DD3D125
:105860000D48FFF7EBF90D48FFF73AFEFFF730FE62
:105870000B48FFF7E3F90B4B986EFFF775FAFFF74C
:1058800027FEFFF79BFFCDE74046DCE76C99000859
:105890006F990008EB99000875990008703D002089
:1058A0007B990008203D00207299000810B5454CF6
:1058B0004548FFF7C3F920788B2805D94348FFF7FF
:1058C000BDF920787630C0B2FFF7C1F94048FFF744
:1058D000B5F9A0793630C0B2FFF7B9F93C48FFF707
:1058E000ADF920791130C0B2FFF7B1F93848FFF7B0
:1058F000A5F9A078C0F11500C0B2FFF7A8F93448A7
:10590000FFF79CF9E0785A30C0B2FFF7A0F93048B1
:10591000FFF794F96078C0F15E00C0B2FFF797F925
:10592000E3797BB12B48FFF789F9E079032806D0AA
:105930001E2801D0022805D1FFF789F902E03020A6
:1059400000F02DFA2348FFF779F9637A102B04D081
:10595000202B2FD023B9352000E0332000F01FFA90
:10596000237A4BB31A0605D51A48FFF767F9372093
:1059700000F015FA237A5B0605D51648FFF75EF9A5
:10598000382000F00CFA1448FFF758F9207EFFF792
:105990005EF91248FFF752F96069FFF705FA1048FF
:1059A000FFF74CF920690021FFF77AF9BDE81040B4
:1059B000FFF78EBD3420D1E70648FFF73FF93920C5
:1059C000DFE700BF203D0020E7980008ED980008C1
:1059D000F1980008F4980008F7980008FA98000871
:1059E000FD98000838B505460C460848FFF726F92B
:1059F0002846FFF72CF93D2000F0D1F92046FFF7AB
:105A00001DF9BDE83840FFF75DBD00BFE399000810
:105A100038B505460C463E2000F0C1F92846FFF790
:105A20000DF93A2000F0BBF92046BDE83840FFF7F9
:105A30008DBD000010B504461148FFF7FFF8204661
:105A4000FFF7FCF8FFF744FD0E48FFF7F7F8562084
:105A500000F0A5F94D2000F0A2F9482000F09FF9D0
:105A60002C2000F09CF9C720FFF7F1F82C2000F063
:105A700096F9FE20FFF7EBF8BDE81040FFF728BDD0
:105A80002B980008449800082DE9F04F93B06C461D
:105A9000A44D0DF118090FCD0FC495E8030084E85B
:105AA000030069464846A04C01F03EFC3C2000F053
:105AB00076F92378082B4FD031D8012B52D047D319
:105AC000022B51D0042B4BD0984B93F8677098461B
:105AD00017F001075AD10025954E0DF1300BD6F87D
